:100000000000022099010000DD90000095900000A2
:10001000959000009590000095900000959000004C
:10002000959000009590000095900000DD900000F4
:10003000DD9000009590000091B7000095B8000099
:10004000DD900000DD900000DD900000DD900000FC
:10005000DD900000DD900000DD900000DD900000EC
:10006000DD900000DD900000DD900000DD900000DC
:10007000DD900000DD900000DD900000DD900000CC
:10008000DD900000DD900000DD900000DD900000BC
:10009000DD900000DD900000DD900000DD900000AC
:1000A0002983000035830000DD900000DD90000012
:1000B000DD900000DD900000DD900000299B000035
:1000C000DD90000085A20000DD90000005A8000082
:1000D000DD90000079C60000DD900000DD9000009A
:1000E000DD900000DD900000DD900000F98500004B
:1000F000DD900000DD900000DD900000DD9000004C
:10010000DD900000DD900000DD900000DD9000003B
:10011000DD9000004DAA0000DD900000DD900000A1
:10012000DD900000DD900000DD900000DD9000001B
:10013000DD900000DD900000DD900000DD9000000B
:10014000DD900000DD90000071C70000DD90000030
:1001500069C80000DD900000DD900000DD90000027
:10016000DD900000DD90000041830000DD90000084
:10017000DD900000DD900000DD900000DD900000CB
:10018000DD900000DD900000DD900000DD900000BB
:10019000DD900000DD900000584B4CF2205210B56D
:1001A0001A804DF628121A8000BF00BF08F09AFF8F
:1001B000534B4FF030621A60524A9A60524ADA60EA
:1001C000524B4FF470021A60514A136813F4807353
:1001D00004D150490B604FF4A85313604E4B1A786A
:1001E000110703D51A7842F008021A704B4B4C499C
:1001F0002A221A704B4A4C4B8B4204D252F8040FFD
:1002000043F8040BF8E7494B494900228B4202D2DC
:1002100043F8042BFAE74749474A002352F82300E2
:1002200041F823000133662BF8D1444B444A802126
:1002300003F8011B9342FBD1424B3E4A1A60424BEA
:100240008A221A70A3F5805324225A70A0221A70B1
:100250009A799207FCD59A79D406FCD43B4A9379D3
:1002600003F00C03082B394BF9D103221A714622F3
:100270005A719A799006FCD5344A9179334B4906E4
:10028000FBD5334A4FF08271116009215160202261
:100290001A709A7902F00C020C2AFAD12D4B2E4AD0
:1002A0001A602E4B2E4A1A6000225A60072243F829
:1002B000042C2C4AC3F80C2D62B609F031F8154B0A
:1002C0001B68DA0705D5284808F0B0FF274B284AF5
:1002D0001A60284B1B785B0609D5244C244B2268F6
:1002E0009A4204D1204808F0A1FF002323600DF0BA
:1002F00097F808F0FDFE0BF04DFFFEE70E200540DD
:1003000030800440823F04000100002B88ED00E0B3
:1003100010D0034014D0034002D0074000E0074053
:100320007813FF1F1C310100F806FF1F7813FF1F11
:10033000D47EFF1F0002FF1F0000000000E400E069
:1003400056E400E008ED00E00050064000400640A2
:100350004480044004800440C010050014E000E024
:10036000BFD401000000202085AAFA5A1CE00340F7
:10037000A5C3945A00F00740FFFFFFFFFFFFFFFFF8
:10038000FFFFFFFFFFFFFFFFFFFFFFFFFFFFFFFF7D
:10039000FFFFFFFFFFFFFFFFFFFFFFFFFFFFFFFF6D
:1003A000FFFFFFFFFFFFFFFFFFFFFFFFFFFFFFFF5D
:1003B000FFFFFFFFFFFFFFFFFFFFFFFFFFFFFFFF4D
:1003C000FFFFFFFFFFFFFFFFFFFFFFFFFFFFFFFF3D
:1003D000FFFFFFFFFFFFFFFFFFFFFFFFFFFFFFFF2D
:1003E000FFFFFFFFFFFFFFFFFFFFFFFFFFFFFFFF1D
:1003F000FFFFFFFFFFFFFFFFFFFFFFFFFFFFFFFF0D
:10040000FFFFFFFFFFFFFFFFFFFFFFFFDEF9FFFF23
:1004100010B5054C237833B9044B13B10448AFF33E
:1004200000800123237010BD7813FF1F000000001F
:1004300020310100084B10B51BB108490848AFF343
:1004400000800848036803B910BD074B002BFBD0A0
:10045000BDE81040184700BF000000007C13FF1FDC
:10046000203101007813FF1F0000000038B5054C53
:10047000A4F5A0752046103C0BF04AFDAC42F9D122
:1004800038BD00BF083FFF1FF8B5794DD5E904011D
:100490000CF002FF04287DD0764B774CD3E900673F
:1004A000C3E90067D5E90C010CF0F6FE0428704E94
:1004B00000F0D280714BD3E90067C3E90067D5E94A
:1004C00014010CF0E9FE0428694E00F0BA806C4B70
:1004D000D3E90067C3E90067D5E91C010CF0DCFE35
:1004E0000428634E00F0A280664BD3E90067C3E99D
:1004F0000067D5E924010CF0CFFE04285C4E00F023
:100500008A80614BD3E90067C3E90067D5E92C0114
:100510000CF0C2FE0428564E72D05C4BD3E9006743
:10052000C3E90067D5E934010CF0B6FE0428504E4B
:100530005BD0574BD3E90067C3E90067D5E93C01BD
:100540000CF0AAFE04284A4E44D0524BD3E900676F
:10055000C3E90067D5E944010CF09EFE0428444E2F
:100560002DD04D4BD3E90067D5E94C01C3E90067B5
:100570000CF092FE04283E4D18D0484BD3E9000100
:10058000C3E9000100231A4644F8232001330A2B53
:10059000FAD1F8BD384C20680CF068FBD5E9062389
:1005A0000CF0CAFB334B06460F4679E7606A0CF045
:1005B0005DFBD5E94E230CF0BFFB384BE0E7206A2A
:1005C0000CF054FBD6E946230CF0B6FB324B064642
:1005D0000F46C9E7E0690CF049FBD6E93E230CF071
:1005E000ABFB2C4B06460F46B2E7A0690CF03EFB76
:1005F000D6E936230CF0A0FB254B06460F469BE7B9
:1006000060690CF033FBD6E92E230CF095FB1F4BF1
:1006100006460F4684E720690CF028FBD6E926231E
:100620000CF08AFB184B06460F466DE7E0680CF0AD
:100630001DFBD6E91E230CF07FFB124B06460F462E
:1006400055E7A0680CF012FBD6E916230CF074FBFA
:100650000B4B06460F463DE760680CF007FBD6E9FA
:100660000E230CF069FB054B06460F4625E700BF3D
:10067000A84FFF1F3015FF1F9815FF1F3815FF1FCC
:100680004015FF1F4815FF1F5015FF1F5815FF1F6E
:100690006015FF1F6815FF1F7015FF1F7815FF1FDE
:1006A0002DE9F0419B4C9C4FDFF8908204F5A07639
:1006B00000220023D4E900010CF0A6FD002800F080
:1006C000BE80D4E904010CF0E7FD0546D4E902013F
:1006D0000CF0E2FD092800F2B280DFE810F03101F1
:1006E00078006C006000540048003A002C001E00A6
:1006F0000F00032198F8000008F0BEFD042D00F261
:100700000481DFE815F002019800D000D0009800C5
:10071000824B0321187808F0AFFD042DE9D8DFE8FB
:1007200015F0EF008500BD00BD0085007C4B032166
:10073000187808F0A1FD042DEAD8DFE815F0DC00F8
:100740007200AA00AA007200764B0321187808F004
:1007500093FD042DEAD8DFE815F0C9005F0097008B
:1007600097005F00704B0321187808F085FD042D79
:10077000EAD8DFE805F0B64C84844C006B4B0321CB
:10078000187808F079FD042DECD8DFE805F0A53BDA
:1007900073733B00664B0321187808F06DFD042D40
:1007A000ECD8DFE805F0942A62622A00614B03214D
:1007B000187808F061FD042DECD8DFE805F0831906
:1007C000515119005C4B0321187808F055FD042D98
:1007D000ECD8DFE805F0720840400800564B0221D3
:1007E000187808F049FD534B0221187808F044FDB1
:1007F0004F4B0221187808F03FFD4C4B022118782E
:1008000008F03AFD484B0221187808F035FD454BB9
:100810000221187808F030FD414B0221187808F0C9
:100820002BFD3E4B0221187808F026FD022198F896
:10083000000008F021FD0221387808F01DFD203469
:10084000A6427FF435AF0020BDE8F0813A4B00218D
:10085000187808F011FD374B0021187808F00CFDCE
:10086000334B0021187808F007FD304B0021187831
:1008700008F002FD2C4B0021187808F0FDFC294BF4
:100880000021187808F0F8FC254B0021187808F0B2
:10089000F3FC224B0021187808F0EEFC002198F8B8
:1008A000000008F0E9FC0021387808F0E5FCC6E714
:1008B000214B0321187808F0DFFC1E4B0321187828
:1008C00008F0DAFC1A4B0321187808F0D5FC174B16
:1008D0000321187808F0D0FC134B0321187808F096
:1008E000CBFC104B0321187808F0C6FC0C4B0321FD
:1008F000187808F0C1FC094B0321187808F0BCFCFB
:10090000032198F8000008F0B7FC0321387808F0BC
:10091000B3FC94E7A84FFF1F4007FF1FFC06FF1F13
:100920004C07FF1F4807FF1F3807FF1F3407FF1F33
:100930003007FF1F2C07FF1F2807FF1F3C07FF1F63
:10094000042D3FF63FAF01A353F825F0B108000096
:10095000DD0700004D0800004D080000DD07000025
:100960002DE9F0417D4C7E4FDFF8288204F5A0761A
:1009700000220023D4E900010CF046FC002878D0C6
:10098000D4E904010CF088FC0546D4E902010CF01E
:1009900083FC09286DD8DFE800F00516202A343ED4
:1009A00048525C65002D00F0A480012D68D06D4B8D
:1009B0000321187808F060FC27216B480AF082FDBB
:1009C0006A480BF06BF9002D00F09F80012D63D079
:1009D000674B0321187808F04FFC002D00F09A8037
:1009E000012D5ED0634B0321187808F045FC002DE3
:1009F00000F09580012D59D05F4B0321187808F045
:100A00003BFC002D00F09080012D54D05B4B032166
:100A1000187808F031FC002D00F08B80012D4FD0AC
:100A2000574B0321187808F027FC002D00F0868032
:100A3000012D4AD0534B0321187808F01DFC002DDE
:100A400000F08180012D45D04F4B0321187808F02C
:100A500013FC002D7CD0012D41D0032198F800001B
:100A600008F00AFC0DB1012D3ED00321387808F0C2
:100A700003FC2034A6427FF47BAF0020BDE8F08168
:100A8000384B2946187808F0F7FB2C213F480AF02C
:100A900019FD36480BF002F9354B0121187808F0A2
:100AA000EBFB344B0121187808F0E6FB324B0121B7
:100AB000187808F0E1FB314B0121187808F0DCFBD5
:100AC0002F4B0121187808F0D7FB2E4B0121187805
:100AD00008F0D2FB2C4B0121187808F0CDFB012146
:100AE00098F8000008F0C8FB0121387808F0C4FB32
:100AF000BFE71C4B0321187808F0BEFB27212448D0
:100B00000AF0E0FC19480BF0C9F8194B03211878DA
:100B100008F0B2FB174B0321187808F0ADFB164B19
:100B20000321187808F0A8FB144B0321187808F06B
:100B3000A3FB134B0321187808F09EFB114B0321F4
:100B4000187808F099FB104B0321187808F094FBF3
:100B5000032198F8000008F08FFB86E7D815FF1FE7
:100B60002407FF1F0007FF1F101F01001809FF1FA8
:100B70000407FF1F0807FF1F0C07FF1F1007FF1FB9
:100B80001C07FF1F1407FF1F1807FF1FE01E0100AF
:100B9000B81E01002007FF1F10B5094C204607F0C2
:100BA000E7FC282008F06EFB204607F0F5FB282024
:100BB00008F068FB204607F02BFC002010BD00BFAA
:100BC0008415FF1FF0B5C84DC84C2B68C848C94EE6
:100BD000C94F0F2BD8BF2B6885B0D4BF013300237A
:100BE0002B6007F015FCC54920460BF0FBF9D6E950
:100BF00000010CF099FB00EE100A20460BF092FA6F
:100C0000BF4904F110000BF0EDF9BE4BD3E9000130
:100C10000CF08AFB00EE100A04F110000BF082FACF
:100C2000B94904F120000BF0DDF9B84BD3E900011C
:100C30000CF07AFB00EE100A04F120000BF072FABF
:100C4000B34904F130000BF0CDF9B24BD3E9000108
:100C50000CF06AFB00EE100A04F130000BF062FAAF
:100C6000AD4904F140000BF0BDF9AC4BD3E90001F4
:100C70000CF05AFB00EE100A04F140000BF052FA9F
:100C8000A74904F150000BF0ADF9A64BD3E90001E0
:100C90000CF04AFB00EE100A04F150000BF042FA8F
:100CA000A14904F160000BF09DF9A04BD3E90001CC
:100CB0000CF03AFB00EE100A04F160000BF032FA7F
:100CC0009B4904F170000BF08DF99A4BD3E90001B8
:100CD0000CF02AFB00EE100A04F170000BF022FA6F
:100CE000954904F180000BF07DF9944BD3E90001A4
:100CF0000CF01AFB00EE100A04F180000BF012FA5F
:100D00008F4904F190000BF06DF98E4BD3E900018F
:100D10000CF00AFB00EE100A04F190000BF002FA4E
:100D2000894904F1A0000BF05DF9884B1968B1FA0C
:100D300081F1490904F1A0000BF0B8F9844904F1EC
:100D4000B0000BF04FF9834B1968B1FA81F14909F2
:100D500004F1B0000BF0AAF97F4904F1C0000BF0D8
:100D600041F97E4B1968B1FA81F1490904F1C000DB
:100D70000BF09CF97A4904F1D0000BF033F9794B70
:100D80001968B1FA81F1490904F1D0000BF08EF92C
:100D9000754904F1E0000BF025F9744B1968B1FABC
:100DA00081F1490904F1E0000BF080F9704904F188
:100DB000F0000BF017F96F4B1968B1FA81F149098E
:100DC00004F1F0000BF072F96B4904F580700BF040
:100DD00009F96A4B1968B1FA81F1490904F5807083
:100DE0000BF064F9664904F588700BF0FBF8654B6D
:100DF0001968B1FA81F1490904F588700BF056F9C8
:100E0000614904F590700BF0EDF8604B1968B1FA88
:100E100081F1490904F590700BF048F95C4904F53B
:100E200098700BF0DFF85B4B1968B1FA81F1490952
:100E300004F598700BF03AF9002211462C4807F09F
:100E4000F3FA29682A4804EB01110AF001FF012294
:100E50000021274807F0E8FA29682548013104EB0A
:100E600001110AF0F5FE02220021214807F0DCFA08
:100E700029681F48023104EB01110AF0E9FE032240
:100E800000211B4807F0D0FA29681948033104EB08
:100E900001110AF0DDFE404968460BF079F83F4940
:100EA00068460BF0E5F83E4B3E4A19783E4B6846E3
:100EB000002914BF114619460BF0DAF800220D2163
:100EC0000B4807F0B1FA694609480AF0C1FE3249F9
:100ED00068460BF087F8354968460BF0C9F8396861
:100EE000092900F3C28063E0383FFF1FD83DFF1F90
:100EF0008415FF1F3015FF1FD814FF1F581F010056
:100F0000601F01003815FF1F681F01004015FF1FFB
:100F1000701F01004815FF1F781F01005015FF1FAB
:100F2000801F01005815FF1F881F01006015FF1F5B
:100F3000901F01006815FF1F981F01007015FF1F0B
:100F4000A01F01007815FF1FA81F01003C3FFF1FD5
:100F5000B01F0100403FFF1FB81F0100443FFF1FAB
:100F6000C01F0100483FFF1FC81F01004C3FFF1F6B
:100F7000D01F01001C3FFF1FD81F01005C3FFF1F57
:100F8000E01F0100603FFF1FE81F0100643FFF1FDB
:100F9000F01F0100C415FF1F1C240100F81F0100F1
:100FA000693FFF1F381F0100401F0100FC1F0100A7
:100FB000324968460BF05CF8396868460BF076F801
:100FC0002F4C304968460BF053F82168092950DC52
:100FD0002A4968460BF04CF8216868460BF066F821
:100FE00001220D21284807F01FFA694626480AF019
:100FF0002FFE264968460AF0F5FF254968460BF0A2
:1010000037F8244B244A1978244B6846002914BF2A
:10101000114619460BF02CF802220D211A4807F050
:1010200003FA694618480AF013FE1D4968460AF09B
:10103000D9FFD6E90001002200230CF0E5F8194B96
:101040001949002808BF194668460BF011F8032219
:101050000D210D4807F0E8F969460B480AF0F8FD44
:1010600068460AF055FF05B0F0BD68460BF01EF863
:10107000A6E768460BF01AF8B2E700BF00200100AF
:10108000DC14FF1F102001008415FF1F1C24010029
:1010900004200100CC15FF1F481F01004C1F010058
:1010A0000C200100541F0100501F010008B517213A
:1010B0000D480AF007FAFE210C4804F06BFF40B11E
:1010C00011210B480AF0FEF90A480AF0E7FD00205A
:1010D00008BD1B2108480AF0F5F906480AF0DEFDB4
:1010E0004FF0FF3008BD00BF14200100CC77FF1F78
:1010F000482001001809FF1F2C20010010B50448EA
:1011000088B007F047FA012804D0002008B010BDCD
:10111000C814FF1FAB49AC48AC4C0AF063FFAC4BA2
:10112000A94819680AF0EAFFAA49A7480AF0A0FFEF
:10113000A94BD3E900010CF0F7F800EE100AA24821
:101140000AF0F0FFA349A0480AF092FFA34BD3E9AD
:1011500000010CF0E9F800EE100A9B480AF0E2FFEB
:101160009C4999480AF084FF9D4BD3E900010CF09B
:10117000DBF800EE100A94480AF0D4FF9549924833
:101180000AF076FF974BD3E900010CF0CDF800EEA2
:10119000100A8D480AF0C6FF8E498B480AF068FF96
:1011A000914BD3E900010CF0BFF800EE100A86481D
:1011B0000AF0B8FF874984480AF05AFF8B4BD3E9FD
:1011C00000010CF0B1F800EE100A7F480AF0AAFF07
:1011D00080497D480AF04CFF854BD3E900010CF0B3
:1011E000A3F800EE100A78480AF09CFF7949764887
:1011F0000AF03EFF7F4BD3E900010CF095F800EEBA
:10120000100A71480AF08EFF72496F480AF030FFE9
:10121000794BD3E900010CF087F800EE100A6A4818
:101220000AF080FF6B4968480AF022FF734BD3E94C
:1012300000010CF079F800EE100A63480AF072FF22
:10124000644961480AF014FF21685F480AF02EFFE4
:1012500060495D480AF00CFF694B5B4819680AF069
:1012600025FF5C4958480AF003FF664B5648196849
:101270000AF01CFF574954480AF0FAFE624B5248E4
:1012800019680AF013FF53494F480AF0F1FE5F4B0B
:101290004D4819680AF00AFF4E494B480AF0E8FE2B
:1012A0005B4B494819680AF001FF4A4946480AF071
:1012B000DFFE584B444819680AF0F8FE4549424899
:1012C0000AF0D6FE544B404819680AF0EFFE414937
:1012D0003D480AF0CDFE514B3B4819680AF0E6FE46
:1012E0003C4939480AF0C4FE4D4B374819680AF0AA
:1012F000DDFE384934480AF0BBFE4A4A4A4B2168B1
:10130000314801290CBF114619460AF0B1FE314996
:101310002D480AF0ADFE454BD3E900010CF004F86E
:1013200000EE100A28480AF0FDFE2A4926480AF075
:101330009FFE3F4BD3E900010BF0F6FF00EE100AD1
:1013400021480AF0EFFE23491F480AF091FE394B6D
:10135000394A1978394B1C48002914BF11461946DF
:101360000AF086FE1B4918480AF082FE344B354AC3
:101370001978354B1448002914BF114619460AF054
:1013800077FE0A2110480AF081FE684613232F4A8F
:101390002F4904F0ABFE684604F0F4FD002861D04C
:1013A000094968460AF054FC68460AF077FC68462A
:1013B00004F0DAFD044927480AF04AFC25480AF0FF
:1013C0006DFC49E01C2401001415FF1F3C3FFF1F6A
:1013D000E014FF1F742001003015FF1F3815FF1F98
:1013E0004015FF1F4815FF1F5015FF1F5815FF1F01
:1013F0006015FF1F6815FF1F7015FF1F7815FF1F71
:10140000403FFF1F443FFF1F483FFF1F4C3FFF1F50
:101410001C3FFF1F5C3FFF1F603FFF1F643FFF1F1C
:10142000C415FF1F5C20010060200100283FFF1F42
:10143000904FFF1F693FFF1F381F0100401F010031
:101440008015FF1F642001006C200100782001003E
:10145000CC77FF1F1809FF1F684604F083FD0020AA
:1014600008B010BD192103480AF02CF802480AF010
:1014700015FCF1E7842001001809FF1F2DE9F04F4A
:10148000684BDFF8ECB1DFF8ECA1DFF8EC91DFF8A6
:10149000EC8193ED1E7B93B08DED0E7B93ED267B5F
:1014A0008DED0C7B93ED2E7B8DED0A7B93ED367BE2
:1014B0008DED087B93ED3E7B8DED067B93ED467BBA
:1014C0008DED047B93ED167B8DED107B93ED0E7B04
:1014D0008DED007B93ED067B8DED027B1F461E4656
:1014E00001240022504BD6E904010BF08DFEB8B95F
:1014F000A51E082D06D8DFE805F07D706355493D2F
:1015000032271800494B1B680020002B00F0838015
:101510000021DDE902230BF00FFC454BC3E900017C
:101520000A2C0DD020360134DBE7424B18680BF053
:101530009DFBD7E94E230BF0FFFB3F4BC3E90001B6
:10154000002013B0BDE8F08FDBF800000BF08EFB3D
:10155000DDE904230BF0F0FBCAE90001E2E7D9F86A
:1015600000000BF083FBDDE906230BF0E5FBC8E987
:101570000001D7E7314B18680BF078FBDDE9082351
:101580000BF0DAFB2E4BC3E90001CBE72D4B1868BB
:101590000BF06CFBDDE90A230BF0CEFB2A4BC3E911
:1015A0000001BFE7294B1B680020002B2FD0002132
:1015B000DDE90C230BF0C0FB254BC3E90001B1E7CB
:1015C000244B1B68002023B30021DDE90E230BF020
:1015D000B3FB214BC3E90001A4E7204B1B680020AB
:1015E000DBB10021DDE910230BF0A6FB1C4BC3E9A6
:1015F000000197E71B4B1B68002083B10021DDE948
:1016000000230BF099FB184BC3E900018AE7174947
:10161000CEE71649D9E715497BE71449E2E71349B4
:10162000EDE700BFA84FFF1F00001040A04FFF1FB5
:101630003015FF1FC077FF1F7815FF1FB477FF1FFE
:101640006015FF1FB077FF1F5815FF1F2415FF1FE0
:101650005015FF1FA877FF1F4815FF1F1015FF1F0C
:101660004015FF1FA44FFF1F3815FF1F0000F03F5C
:10167000BC77FF1F7015FF1FB877FF1F6815FF1F8E
:101680002DE9F04FAB4BDFF8F8C2DFF8F8E2AA4FD4
:10169000AA4EAB4DAB4CAC48AC49AD4A1B68DCF82C
:1016A0000090DEF80080D7F800C0D6F800E02F6880
:1016B000266805680C68126895B00A93A54B1392CA
:1016C000A54ACDF834C0D3E9460101231360A34AEB
:1016D000CDF838E01360A24ACDF82C901360A14AEF
:1016E000CDF830801360A04A0F9713609F4A109680
:1016F00013609F4A119513609E4A129413609E4A8C
:1017000013609E4A136000930BF0C6FD914B834615
:10171000D3E93E010BF0C0FD8E4B8246D3E9360182
:101720000BF0BAFD8B4B8146D3E92E010BF0B4FDD3
:10173000884B8046D3E926010BF0AEFD854B07466A
:10174000D3E91E010BF0A8FD824B0646D3E9160132
:101750000BF0A2FD7F4B0546D3E90E010BF09CFD7B
:101760007C4B0446D3E906010BF096FD009B0893E1
:10177000002219460793069305930493039302935B
:10178000019309929A1E082A78D8DFE812F0A60081
:101790004B00BC006100900035001F000900FD00F7
:1017A000DDF820C000224BFA02FE1EF0010F16BF2A
:1017B0000DF1280E4FF0010E5EF822E001320A2AE8
:1017C0000CEA0E0CEFD1CDF820C0B1E0DDF81CC062
:1017D00000224AFA02FE1EF0010F16BF0DF1280E7C
:1017E0004FF0010E5EF822E001320A2A0CEA0E0CDC
:1017F000EFD1CDF81CC09BE0DDF818C0002249FAFB
:1018000002FE1EF0010F16BF0DF1280E4FF0010E63
:101810005EF822E001320A2A0CEA0E0CEFD1CDF874
:1018200018C085E0DDF808C0002245FA02FE1EF06F
:10183000010F16BF0DF1280E4FF0010E5EF822E0E9
:1018400001320A2A0CEA0E0CEFD1CDF808C06FE085
:10185000DDF810C0002247FA02FE1EF0010F16BF8D
:101860000DF1280E4FF0010E5EF822E001320A2A37
:101870000CEA0E0CEFD1CDF810C059E0009900220F
:1018800040FA02FE1EF0010F16BF0DF1280E4FF0B8
:10189000010E5EF822E001320A2A01EA0E01EFD1C0
:1018A0000A2B00F0198101220091099240E0DDF835
:1018B00014C0002248FA02FE1EF0010F16BF0DF1FF
:1018C000280E4FF0010E5EF822E001320A2A0CEADF
:1018D0000E0CEFD1CDF814C02AE0DDF804C00022D0
:1018E00044FA02FE1EF0010F16BF0DF1280E4FF054
:1018F000010E5EF822E001320A2A0CEA0E0CEFD14A
:10190000CDF804C014E0DDF80CC0002246FA02FE57
:101910001EF0010F16BF0DF1280E4FF0010E5EF8FC
:1019200022E001320A2A0CEA0E0CEFD1CDF80CC0ED
:10193000013327E7A04FFF1FA877FF1F2415FF1FC4
:10194000B077FF1FB477FF1FB877FF1FBC77FF1F6B
:10195000C077FF1FD815FF1F3C3FFF1F403FFF1FF1
:10196000443FFF1F483FFF1F4C3FFF1F1C3FFF1F0F
:101970005C3FFF1F603FFF1F643FFF1FC415FF1F39
:10198000A44FFF1F1015FF1F099B002B40F0A980DB
:10199000554BD3E94E010BF07FFC0123002240FAA6
:1019A00002F1C9074ABF0AA9012151F822100132E8
:1019B0000A2A03EA0103F2D14C4C4D48D4F80080C6
:1019C0000068019C4B494C4A096812684B4DDFF88E
:1019D00074E12F684A4D01280CBF002404F0010473
:1019E0002046029C2E68474D01290CBF002404F0BC
:1019F00001042146039C2D68012A0CBF002404F039
:101A00000104A446404C414A2060414C12682160C8
:101A1000404CDEF80010C4F800C0049C3E48DFF8DB
:101A200028E10068012F0CBF002404F001042746C0
:101A3000059C01290CBF002303F00103012E0CBFFC
:101A4000002404F0010435492646069C0F60344901
:101A5000012D0CBF002404F001040E60254631491D
:101A6000079C0D60012A0CBF002404F001042E49DC
:101A70002246089C0A602D4A01280CBF002404F06D
:101A8000010414602A4A1360DEF80030B8F1000F38
:101A900013D1009A012B0CBF002202F00102134661
:101AA000244A1268012A0ED0234A00211170234AC9
:101AB0000020136015B0BDE8F08F1E4A1268012A9D
:101AC0004FF00103F0D11E49096811390629EBD8FE
:101AD000194913460A70EAE7184B0091196001236F
:101AE0006AE7164B196053E7D815FF1FA04FFF1F79
:101AF000C877FF1FE414FF1F9413FF1F9813FF1FE5
:101B0000E814FF1FEC14FF1F403FFF1FF014FF1FDE
:101B1000443FFF1F483FFF1FF414FF1F4C3FFF1FB0
:101B20001C3FFF1F5C3FFF1F603FFF1F643FFF1F05
:101B3000C415FF1F343FFF1FCC15FF1F3C3FFF1F85
:101B4000D814FF1FF814FF1FC477FF1F664B1B68D4
:101B500010B5002B5CD1654B654C1878012107F05E
:101B600077FB2378002B00F0B680624B1B68002BBC
:101B700062D1614B0121187807F06AFB5F4B1B684B
:101B8000002B62D15E4B0121187807F061FB5D4BA1
:101B90001B68002B62D15C4B0121187807F058FBC1
:101BA0005A4B1B68002B62D1594B0121187807F062
:101BB0004FFB584B1B68002B62D1574B0121187803
:101BC00007F046FB554B1B68002B62D1544B01219B
:101BD000187807F03DFB534B1B68002B62D1524B2A
:101BE0000121187807F034FB504B1B68002B62D1A1
:101BF0004F4B0121187807F02BFB4E4B1B68002B35
:101C000062D04D4B0021187807F022FB002010BD58
:101C1000364B374C1878002107F01AFB2378002B3D
:101C2000A3D000220821454806F05CFF0023237062
:101C3000304B1B68002B9CD02F4B0021187807F0ED
:101C400007FB2E4B1B68002B9CD02D4B00211878D6
:101C500007F0FEFA2B4B1B68002B9CD02A4B00216F
:101C6000187807F0F5FA294B1B68002B9CD0284BFD
:101C70000021187807F0ECFA264B1B68002B9CD04B
:101C8000254B0021187807F0E3FA244B1B68002B42
:101C90009CD0234B0021187807F0DAFA214B1B68FF
:101CA000002B9CD0204B0021187807F0D1FA1F4B55
:101CB0001B68002B9CD01E4B0021187807F0C8FA37
:101CC0001C4B1B68002B9CD11B4B0121187807F083
:101CD000BFFA002010BD02220821184806F002FFBA
:101CE0000123237041E700BF3C3FFF1F0007FF1F98
:101CF000683FFF1F403FFF1F0407FF1F443FFF1FB8
:101D00000807FF1F483FFF1F0C07FF1F4C3FFF1F27
:101D10001007FF1F1C3FFF1F1C07FF1F5C3FFF1F1B
:101D20001407FF1F603FFF1F1807FF1F643FFF1FBF
:101D30002007FF1FC415FF1F2407FF1F9C13FF1F51
:101D4000F8B52DED048B72B6AA4FAB4C3B68AB4E89
:101D50009FEDAB9ADFEDAB8A9FEDAB8A01333B6021
:101D600000256B1E082B00F21783DFE813F0020337
:101D7000970258020D02BD012F01F50034004F00FB
:101D8000A24B187807F008F9A14BD3ED007A07EEC3
:101D9000100AF8EEE77AB8EEC77A67EE897AE7EECE
:101DA000287AFDEEE77AC3ED007A1A68642A04DC2B
:101DB00098480268110640F164831B68B3F52F7FD1
:101DC000C0F226849349944A08684FF67F73034013
:101DD000D0690B60D061D4E944010BF05DFA0138A1
:101DE000032800F28483DFE800F0A10202758B4B28
:101DF000187807F0D1F807EE900AF8EEE77A884BEA
:101E000067EE887AFDEEE77AC3ED007AD4E94C01FB
:101E10000BF042FA0138032800F26683DFE800F095
:101E2000540202297F4B187807F0B6F807EE900AA3
:101E3000F8EEE77A67EE887AFDEEE77AC6ED007A8B
:101E400001350A2D8DD139686A4CB1F5E16F80F208
:101E5000CF83754BCA1783FB0103C2EBE30303EB8C
:101E60008303B1EB830F00F0C78362B6BDEC048B34
:101E7000F8BD6C4B187807F08FF8D6ED007A07EEB6
:101E8000100AF8EEE77AB8EEC77A67EE897AE7EEDD
:101E9000287AFDEEE77AC6ED007A3368642B04DC1D
:101EA0005C4803689A0540F1CD823368B3F52F7F13
:101EB000C0F277835749584A08684FF6FF530340EA
:101EC000506A0B605062BBE7564B187807F0C6F9B2
:101ED0003060B5E7514B187807F05EF8504BD3ED02
:101EE000007A07EE100AF8EEE77AB8EEC77A67EEE6
:101EF000897AE7EE287AFDEEE77AC3ED007A1A6870
:101F0000642A04DC43480268D10540F1B2821B68B0
:101F1000B3F52F7FC0F249833E493F4A08684FF628
:101F2000FF630340106A0B6010626FE73B4B187849
:101F300007F094F93A4B186068E73C4B187807F0C3
:101F40002BF807EE900AF8EEE77A394B67EE887ABD
:101F5000FDEEE77AC3ED007AD4E93C010BF09CF981
:101F60000138032800F2C78201A353F820F000BF14
:101F7000A11F0000811F0000811F0000811D0000C3
:101F8000224B187807F008F807EE900AF8EEE77A87
:101F90001F4B67EE887AFDEEE77AC3ED007A1AE709
:101FA0001A4B187807F05AF9194B186013E7214BB0
:101FB000187806F0F1FF07EE900AF8EEE77A1E4B6C
:101FC00067EE887AFDEEE77AC3ED007AD4E9340152
:101FD0000BF062F90138032800F2918201A353F853
:101FE00020F000BF892000003B1F00003B1F0000C5
:101FF0003D2000000815FF1FA84FFF1FC077FF1FDF
:102000006666663FCDCCCC3D5E4BC83DFC06FF1FEF
:10201000B877FF1FFC14FF1F9815FF1F3C07FF1F19
:10202000BC77FF1F4007FF1F676666664C07FF1FF0
:10203000B477FF1F4807FF1FB077FF1FA94B187821
:1020400006F0AAFFA84BD3ED007A07EE100AF8EECF
:10205000E77AB8EEC77A67EE897AE7EE287AFDEE7E
:10206000E77AC3ED007A1A68642A00F321829F4858
:102070000268510600F11C829D498B6942F04002C2
:10208000013302608B6167E7964B187807F0E6F83A
:10209000954B186060E7974B187806F07DFF964BDC
:1020A000D3ED007A06EE900AF8EEE77AB6EE087AFB
:1020B00067EE877AF8EEE66AB5EE007AE6EE877AA2
:1020C000FDEEE77AC3ED007A1A68642A00F3C28154
:1020D00086480268D10600F1BD8185490B6942F04E
:1020E0001002013302600B61D4E92C010BF0D4F82B
:1020F0000138032800F2078201A353F820F000BF43
:102100005D210000AF1F0000AF1F00001121000083
:102110007A4B187806F040FF794BD3ED007A07EE42
:10212000100AF8EEE77AB8EEC77A67EE897AE7EE3A
:10213000287AFDEEE77AC3ED007A1A68642A00F384
:10214000C5816A480268910600F1C08168494B69FF
:1021500042F02002013302604B6137E7674B187889
:1021600007F07CF8664B186030E7664B187806F08D
:1021700013FF07EE900AF8EEE77A634B67EE887A72
:10218000FDEEE77AC3ED007AD4E924010BF084F880
:102190000138032800F2BB8101A353F820F000BFEF
:1021A00045220000B1210000B1210000972000006D
:1021B000504B187806F0F0FE07EE900AF8EEE77A3A
:1021C0004D4B67EE887AFDEEE77AC3ED007A8BE738
:1021D0004E4B187806F0E0FE4D4BD3ED007A07EE3B
:1021E000100AF8EEE77AB8EEC77A67EE897AE7EE7A
:1021F000287AFDEEE77AC3ED007A1A68642A40F384
:10220000B5811B68B3F52F7FC0F226823749384A63
:1022100008684FF6FB73034090680B609060D4E948
:102220001C010BF039F80138032800F2748101A376
:1022300053F820F0292400006B2100006B210000DE
:10224000E12300002B4B187807F008F82A4B1860A0
:102250004AE7304B187806F09FFE2F4BD3ED007AFB
:1022600007EE100AF8EEE77AB8EEC77A67EE897AD9
:10227000E7EE287AFDEEE77AC3ED007A1A68642A61
:1022800000F3818119480268910700F17C811849A7
:102290004B6842F00202013302604B60D4E9140142
:1022A0000AF0FAFF0138032800F2398101A353F83C
:1022B00020F000BF37240000C5220000C522000026
:1022C000D1210000114B187806F066FE07EE900A47
:1022D000F8EEE77A0E4B67EE887AFDEEE77AC3ED0B
:1022E000007A9CE74C07FF1FB477FF1FFC14FF1F09
:1022F0009815FF1F3807FF1F2415FF1F4807FF1FF2
:10230000B077FF1F3407FF1FA877FF1F3007FF1F9D
:102310001015FF1F2C07FF1FA44FFF1FA54B187898
:1023200006F03AFEA44BD3ED007A07EE100AF8EE61
:10233000E77AB8EEC77A67EE897AE7EE287AFDEE9B
:10234000E77AC3ED007A1A68642A04DC9B480268C5
:10235000D10740F175811B68B3F52F7FC0F28081F2
:102360009649974A08684FF6FE73034010680B6061
:102370001060D4E90C010AF08FFF0138032800F245
:102380004C8101A353F820F02F250000C123000049
:10239000C123000053220000D4E904010AF07CFFAD
:1023A0000138032800F2548101A353F820F000BF44
:1023B0002B2600003D2500003D2500001D230000C8
:1023C000804B187806F0E8FD07EE900AF8EEE77A01
:1023D0007D4B67EE887AFDEEE77AC3ED007A5DE724
:1023E0007A4B187806F0D8FD794BD3ED007A07EEDA
:1023F000100AF8EEE77AB8EEC77A67EE897AE7EE68
:10240000287AFDEEE77AC3ED007A1A68642A40DC88
:102410006A48026811073CD46949CB6842F0080257
:1024200001330260CB60AFE6684B187806F016FF08
:10243000674B1860A8E6674B187806F00FFF664BED
:102440001860ECE65E494A6A43F4007301320360A7
:102450004A62F5E41B68B3F52F7FC0F283805749C9
:10246000574A08684FF6EF73034010690B6010611C
:102470003AE653490B6A42F48072013302600B6200
:10248000C4E44F49CB6942F0800201330260CB6162
:10249000A1E41B68B3F52F7FC0F2C3804749484AC7
:1024A00008684FF6F7730340D0680B60D0606BE6A6
:1024B0001B68B3F52F7F36DB4049414A08684FF669
:1024C000BF73034090690B60906145E51B68B3F5ED
:1024D0002F7F43DB39493A4A08684FF6DF730340E0
:1024E00050690B60506171E500233360A8E43B4BF9
:1024F00000221A608AE43A4B00221A606BE4394BDE
:1025000000221A6028E5384B00221A605EE5374B3E
:1025100000221A60E8E52E4B00221A6034E62E4BAA
:1025200000221A607BE6264B9A699A6114E5254BD6
:10253000187806F093FE244B1860AFE61D4B187810
:1025400006F02AFD07EE900AF8EEE77A1A4B67EEDE
:10255000887AFDEEE77AC3ED007A0AE7184B5A69EC
:102560005A6133E5164B1A691A61BDE513480268D2
:1025700051073FF546AE12498B6842F00402013321
:1025800002608B604BE61B68B3F52F7F54DB0B4971
:102590000B4A08684FF6FD73034050680B605060AB
:1025A0007CE6074B5A6A5A624AE4054B1A6A1A6279
:1025B0002CE400BF2807FF1FA04FFF1FFC14FF1FC4
:1025C0009815FF1F2C07FF1FA44FFF1F3407FF1F85
:1025D000A877FF1F3007FF1F1015FF1FBC77FF1FD5
:1025E000B877FF1FB477FF1FB077FF1F2415FF1FB9
:1025F000FDF74AFF00232360FEF740FFFFF740F896
:10260000FFF7A4FAFEF7DEFA62B6BDEC048BF8BD64
:10261000154BDA69DA61FFF7DEBB144B00221A6052
:102620003CE6114BDA68DA60AEE5114B187806F03B
:1026300015FE104B18609CE60B4B5A685A602DE64D
:1026400009490B6842F00102013302600B6090E619
:10265000084B00221A608CE6034B9A689A60DEE50C
:10266000014B1A681A6084E69815FF1FA44FFF1FDC
:102670002807FF1FA04FFF1FF0B589B07849794D9B
:10268000794E04A809F084FC784904A809F0F0FC0C
:10269000774904A809F0ECFC764904A809F0E8FCA5
:1026A00007F050FD04A9744809F0D2FA00247348D9
:1026B0002C7005F095FF3746704805F06BFF78B930
:1026C00007F05EFD0028F7DD07F06AFDC0B2287054
:1026D00007F8010F6948013405F05CFF0028EFD0CE
:1026E000674F6849002338463B550BF0B7FF034658
:1026F00000287AD0644B654801220F211A6008F047
:10270000E1FE634809F0CAFA624904A809F06AFCCC
:10271000564904A809F0ACFC554904A809F0A8FCE6
:10272000544904A809F0A4FC07F00CFD04A9524880
:1027300009F08EFA002451482C7005F051FF4F48E3
:1027400005F028FF78B907F01BFD0028F7DD07F03A
:1027500027FDC0B2287006F8010F4848013405F083
:1027600019FF0028EFD04C4B454819889A78ADF8EE
:102770000C10002303A98DF80E203B5506E00BF04A
:102780001FFD042803A94FF000002BDD0DF012F807
:102790000028F4D100200AF01DFE404E404B55ECBD
:1027A000104B10EE100A2946002286ED000B0AF0AD
:1027B00049FD88B100223B4B204629460AF038FDEE
:1027C00050B1394F20462946D7E900230AF01CFDB5
:1027D000A8B1364B01221A7004A809F099FB002019
:1027E00009B0F0BD0CF0E6FFD5E7274A304813608A
:1027F000102108F067FE264809F050FA84E70B2103
:102800002C4808F05FFE0D21214809F097FA0821B5
:10281000294808F057FE96ED000B02211C4809F0EC
:1028200097FA1B4809F03AFAD6E900010AF034FD9C
:1028300007EE900A9FED217A2148F8EEE77A0D2104
:1028400067EE877AFDEEE77ACDED017ABDF80420D8
:1028500006F048F9D6E90023C7E90023B9E700BF2D
:10286000A0200100AC77FF1F8B3FFF1F6C240100ED
:10287000F820010010210100F808FF1F783FFF1F1A
:102880008C3FFF1F14210100C477FF1F1C21010092
:102890001809FF1F40210100B41E0100904FFF1FC7
:1028A00000003E4000804B40703FFF1F693FFF1F0C
:1028B0002C210100A8210100B42101000000C84220
:1028C0009C13FF1F10B588B06846DA49DA4C09F04E
:1028D0005FFB6846D94909F0CBFB6846222109F025
:1028E000D5FB6846D64909F0C3FB6846222109F0AA
:1028F000CDFB6846D34909F0BBFB6846222109F0AD
:10290000C5FB6846D04909F0B3FB6846222109F0AF
:10291000BDFB6846CD4909F0ABFB6846222109F0B2
:10292000B5FB6846CA4909F0A3FB6846222109F0B5
:10293000ADFB6846C74909F09BFBC74BD3E90001D3
:102940000AF0F2FC00EE100A684609F0EBFB68465C
:10295000C24909F08DFB6846222109F097FB6846C1
:10296000B74909F085FB6846222109F08FFB6846CC
:10297000B44909F07DFB6846222109F087FB6846CF
:10298000B74909F075FB6846222109F07FFB6846CC
:10299000AE4909F06DFB6846222109F077FB6846D5
:1029A000AB4909F065FB6846222109F06FFB6846D8
:1029B000A84909F05DFBAB4BD3E900010AF0B4FC78
:1029C00000EE100A684609F0ADFB6846A34909F01D
:1029D0004FFB6846222109F059FB6846984909F0E7
:1029E00047FB6846222109F051FB6846954909F0EA
:1029F0003FFB6846222109F049FB68469A4909F0E5
:102A000037FB6846222109F041FB68468F4909F0EF
:102A10002FFB6846222109F039FB68468C4909F0F2
:102A200027FB6846222109F031FB6846894909F0F5
:102A30001FFB8E4BD3E900010AF076FC00EE100A72
:102A4000684609F06FFB6846844909F011FB684647
:102A5000222109F01BFB6846794909F009FB684609
:102A6000222109F013FB6846764909F001FB68460C
:102A7000222109F00BFB68467D4909F0F9FA684606
:102A8000222109F003FB6846704909F0F1FA684613
:102A9000222109F0FBFA68466D4909F0E9FA684617
:102AA000222109F0F3FA68466A4909F0E1FA714B0C
:102AB000D3E900010AF038FC00EE100A684609F07C
:102AC00031FB6846654909F0D3FA6846222109F0CE
:102AD000DDFA68465A4909F0CBFA6846222109F026
:102AE000D5FA6846574909F0C3FA6846222109F029
:102AF000CDFA6846604909F0BBFA6846222109F020
:102B0000C5FA6846514909F0B3FA6846222109F02E
:102B1000BDFA68464E4909F0ABFA6846222109F031
:102B2000B5FA68464B4909F0A3FA544BD3E90001C2
:102B30000AF0FAFB00EE100A684609F0F3FA68465C
:102B4000464909F095FA6846222109F09FFA68463D
:102B50003B4909F08DFA6846222109F097FA684648
:102B6000384909F085FA6846222109F08FFA68464B
:102B7000434909F07DFA6846222109F087FA684640
:102B8000324909F075FA6846222109F07FFA684651
:102B90002F4909F06DFA6846222109F077FA684654
:102BA0002C4909F065FA374BD3E900010AF0BCFB68
:102BB00000EE100A684609F0B5FA6846274909F0A0
:102BC00057FA6846222109F061FA68461C4909F063
:102BD0004FFA6846222109F059FA6846194909F066
:102BE00047FA6846222109F051FA6846264909F059
:102BF0003FFA6846222109F049FA6846134909F06C
:102C000037FA6846222109F041FA6846104909F06E
:102C10002FFA6846222109F039FA68460D4909F071
:102C200027FA1A4BD3E900010AF07EFB00EE100AE6
:102C300068462DE01C240100AC77FF1FC021010075
:102C4000C4210100D0210100D4210100F0210100A4
:102C5000F4210100102001003015FF1FFC210100AC
:102C6000042201003815FF1F202201004015FF1F1C
:102C70003C2201004815FF1F582201005015FF1F7C
:102C8000742201005815FF1F902201006015FF1FDC
:102C900009F048FA6846DC4909F0EAF96846222159
:102CA00009F0F4F96846D94909F0E2F968462221A9
:102CB00009F0ECF96846D64909F0DAF968462221AC
:102CC00009F0E4F96846D34909F0D2F968462221AF
:102CD00009F0DCF96846D04909F0CAF968462221B2
:102CE00009F0D4F96846CD4909F0C2F968462221B5
:102CF00009F0CCF96846CA4909F0BAF9C94BD3E9D9
:102D000000010AF011FB00EE100A684609F00AFA09
:102D10006846BD4909F0ACF96846222109F0B6F9C8
:102D20006846BA4909F0A4F96846222109F0AEF9CB
:102D30006846B74909F09CF96846222109F0A6F9CE
:102D40006846B94909F094F96846222109F09EF9CC
:102D50006846B14909F08CF96846222109F096F9D4
:102D60006846AE4909F084F96846222109F08EF9D7
:102D70006846AB4909F07CF9AC4BD3E900010AF095
:102D8000D3FA00EE100A684609F0CCF968469E496D
:102D900009F06EF96846222109F078F968469B49E6
:102DA00009F066F96846222109F070F968469849E9
:102DB00009F05EF96846222109F068F968469C49E5
:102DC00009F056F96846222109F060F968469249EF
:102DD00009F04EF96846222109F058F968468F49F2
:102DE00009F046F96846222109F050F968468C49F5
:102DF00009F03EF98F4BD3E900010AF095FA00EE95
:102E0000100A684609F08EF968467F4909F030F9E2
:102E10006846222109F03AF968467C4909F028F908
:102E20006846222109F032F96846794909F020F90B
:102E30006846222109F02AF968467F4909F018F905
:102E40006846222109F022F96846734909F010F911
:102E50006846222109F01AF96846704909F008F914
:102E60006846222109F012F968466D4909F000F917
:102E7000724B1968B1FA81F14909684609F016F9EF
:102E80006846614909F0F4F86846222109F0FEF825
:102E900068465E4909F0ECF86846222109F0F6F828
:102EA00068465B4909F0E4F86846222109F0EEF82B
:102EB0006846614909F0DCF86846222109F0E6F825
:102EC0006846554909F0D4F86846222109F0DEF831
:102ED0006846524909F0CCF86846222109F0D6F834
:102EE00068464F4909F0C4F8554B1968B1FA81F1A9
:102EF0004909684609F0DAF86846434909F0B8F824
:102F00006846222109F0C2F86846404909F0B0F845
:102F10006846222109F0BAF868463D4909F0A8F848
:102F20006846222109F0B2F86846464909F0A0F83F
:102F30006846222109F0AAF86846374909F098F84E
:102F40006846222109F0A2F86846344909F090F851
:102F50006846222109F09AF86846314909F088F854
:102F6000394B1968B1FA81F14909684609F09EF8B0
:102F70006846254909F07CF86846222109F086F860
:102F80006846224909F074F86846222109F07EF863
:102F900068461F4909F06CF86846222109F076F866
:102FA00068462A4909F064F86846222109F06EF85B
:102FB0006846194909F05CF86846222109F066F86C
:102FC0006846164909F054F86846222109F05EF86F
:102FD0006846134909F04CF81D4B1968B1FA81F1A4
:102FE0004909684609F062F86846074909F040F85F
:102FF0006846222109F04AF86846044909F038F881
:103000006846222126E000BFFC210100C421010006
:10301000D0210100AC220100F0210100F4210100C7
:10302000102001006815FF1FC82201007015FF1F46
:10303000E42201007815FF1F002301003C3FFF1F21
:10304000403FFF1F1C230100443FFF1F38230100A6
:10305000483FFF1F09F01AF86846D94909F008F8F7
:103060006846222109F012F86846D64909F000F8AE
:103070006846222109F00AF86846D34908F0F8FFAB
:103080006846222109F002F86846D04908F0F0FFAE
:103090006846222108F0FAFF6846CD4908F0E8FFAB
:1030A000CC4B1968B1FA81F14909684608F0FEFF76
:1030B0006846C94908F0DCFF6846222108F0E6FFAF
:1030C0006846C64908F0D4FF6846222108F0DEFFB2
:1030D0006846BB4908F0CCFF6846222108F0D6FFBD
:1030E0006846BF4908F0C4FF6846222108F0CEFFB9
:1030F0006846B54908F0BCFF6846222108F0C6FFC3
:103100006846B24908F0B4FF6846222108F0BEFFC5
:103110006846AF4908F0ACFFB24B1968B1FA81F1CB
:103120004909684608F0C2FF6846AB4908F0A0FFAD
:103130006846222108F0AAFF6846A84908F098FFCF
:103140006846222108F0A2FF68469D4908F090FFDA
:103150006846222108F09AFF6846A34908F088FFD4
:103160006846222108F092FF6846974908F080FFE0
:103170006846222108F08AFF6846944908F078FFE3
:103180006846222108F082FF6846914908F070FFE6
:10319000964B1968B1FA81F14909684608F086FF33
:1031A00068468D4908F064FF6846222108F06EFFEA
:1031B00068468A4908F05CFF6846222108F066FFED
:1031C00068467F4908F054FF6846222108F05EFFF8
:1031D0006846874908F04CFF6846222108F056FFF0
:1031E0006846794908F044FF6846222108F04EFFFE
:1031F0006846764908F03CFF6846222108F046FF01
:103200006846734908F034FF7A4B1968B1FA81F1C6
:103210004909684608F04AFF68466F4908F028FFE8
:103220006846222108F032FF68466C4908F020FF0A
:103230006846222108F02AFF6846614908F018FF15
:103240006846222108F022FF68466B4908F010FF0B
:103250006846222108F01AFF68465B4908F008FF1B
:103260006846222108F012FF6846584908F000FF1E
:103270006846222108F00AFF6846554908F0F8FE22
:103280005E4B1968B1FA81F14909684608F00EFFF2
:103290006846514908F0ECFE6846222108F0F6FE27
:1032A00068464E4908F0E4FE6846222108F0EEFE2A
:1032B0006846434908F0DCFE6846222108F0E6FE35
:1032C00068464F4908F0D4FE6846222108F0DEFE29
:1032D00068463D4908F0CCFE6846222108F0D6FE3B
:1032E00068463A4908F0C4FE6846222108F0CEFE3E
:1032F0006846374908F0BCFE424B1968B1FA81F1C3
:103300004909684608F0D2FE6846334908F0B0FE25
:103310006846222108F0BAFE6846304908F0A8FE47
:103320006846222108F0B2FE6846254908F0A0FE52
:103330006846222108F0AAFE6846334908F098FE44
:103340006846222108F0A2FE68461F4908F090FE58
:103350006846222108F09AFE68461C4908F088FE5B
:103360006846222108F092FE6846194908F080FE5E
:103370006846012108F09AFE6846244908F078FE64
:1033800004A8234908F004FE04A8224908F070FEAE
:1033900004A8214908F06CFE04A8204908F068FE42
:1033A000029904A808F096FE04A81D4908F060FEE2
:1033B00004A81B4908F05CFE694604A832E000BF7F
:1033C000D021010054230100F0210100F42101006B
:1033D000102001004C3FFF1FFC210100C42101000F
:1033E000702301001C3FFF1F8C2301005C3FFF1F67
:1033F000A8230100603FFF1FC4230100643FFF1F9B
:10340000E0230100C415FF1FFC2301001824010064
:10341000202401007824010094240100B824010034
:103420001021010008F020FE06F08CFE04A90F48D0
:1034300008F00EFC00230E48237005F0D1F803E0DD
:1034400006F09EFE00280DDC094805F0A3F80028D0
:10345000F6D004A808F05CFD684608F059FD00208D
:1034600008B010BD06F09CFE2070EDE7F808FF1FC5
:10347000783FFF1F434810B5012106F051FA42483A
:1034800005F0AEF8404805F085F80028FAD006F0BF
:1034900059FE3D4805F0A4F806F0C4FA002804DC03
:1034A0006EE006F0BFFA00285BDC374805F072F8E2
:1034B0000028F6D0354C36480023237005F090F8EC
:1034C00003E006F05DFE002852DC314805F062F8AA
:1034D0000028F6D02F48012106F022FA2A4805F0EC
:1034E0007FF8294805F056F80028FAD006F02AFEA1
:1034F00000232548237005F073F806F093FA00289E
:1035000004DC17E006F08EFA002814DC1E4805F0F3
:1035100041F80028F6D000231D48237005F060F81C
:1035200003E006F02DFE002810DC194805F032F803
:103530000028F6D010BD06F085FA0346C0B223700D
:1035400006F044FD207808F041F8DFE706F028FE99
:103550000346C0B2237006F0D9F9207808F036F897
:10356000E3E706F06FFA01460B4808F0E7FB9CE73B
:1035700006F016FE0346C0B2237006F0C7F9A4E7B2
:10358000024CA7E7CC240100503FFF1FAC77FF1F80
:10359000783FFF1FD0240100F808FF1FF0B589B065
:1035A0007849794D794E04A808F0F2FC784904A8CE
:1035B00008F05EFD774904A808F05AFD764904A892
:1035C00008F056FD06F010FA04A9744808F040FB14
:1035D000002473482C7005F003F83746704804F057
:1035E000D9FF78B906F01EFA0028F7DD06F02AFAAE
:1035F000C0B2287007F8010F6948013404F0CAFF0F
:103600000028EFD0674F6849002338463B550BF040
:1036100025F8034600287AD0644B654801220F2123
:103620001A6007F04FFF634808F038FB624904A8AE
:1036300008F0D8FC564904A808F01AFD554904A81A
:1036400008F016FD544904A808F012FD06F0CCF964
:1036500004A9524808F0FCFA002451482C7004F0E8
:10366000BFFF4F4804F096FF78B906F0DBF9002859
:10367000F7DD06F0E7F9C0B2287006F8010F4848F8
:10368000013404F087FF0028EFD04C4B45481988DF
:103690009A78ADF80C10002303A98DF80E203B5545
:1036A00006E00AF08DFD042803A94FF000002BDD91
:1036B0000CF080F80028F4D1002009F08BFE404E79
:1036C000404B55EC104B10EE100A2946002286EDB7
:1036D000000B09F0B7FD88B100223B4B204629467C
:1036E00009F0A6FD50B1394F20462946D7E90023FD
:1036F00009F08AFDA8B1364B01221A7004A808F01F
:1037000007FC002009B0F0BD0CF054F8D5E7274ABB
:1037100030481360102107F0D5FE264808F0BEFAA5
:1037200084E70B212C4807F0CDFE0D21214808F03D
:1037300005FB0821294807F0C5FE96ED000B022184
:103740001C4808F005FB1B4808F0A8FAD6E9000160
:1037500009F0A2FD07EE900A9FED217A2148F8EECC
:10376000E77A0D2167EE877AFDEEE77ACDED017AF3
:10377000BDF8042005F0B6F9D6E90023C7E9002317
:10378000B9E700BFD4240100AC77FF1F8B3FFF1FB8
:103790006C240100F820010010210100E808FF1F3F
:1037A000783FFF1F8C3FFF1F14210100C477FF1FCC
:1037B0001C2101001809FF1F40210100B41E010057
:1037C000904FFF1F00003E4000804B40703FFF1FA6
:1037D000693FFF1F2C210100A8210100B421010035
:1037E0000000C8429C13FF1F10B588B06846DA4934
:1037F000DA4C08F0CDFB6846D94908F039FC684638
:10380000222108F043FC6846D64908F031FC68469E
:10381000222108F03BFC6846D34908F029FC6846A1
:10382000222108F033FC6846D04908F021FC6846A4
:10383000222108F02BFC6846CD4908F019FC6846A7
:10384000222108F023FC6846CA4908F011FC6846AA
:10385000222108F01BFC6846C74908F009FCC74B49
:10386000D3E9000109F060FD00EE100A684608F097
:1038700059FC6846C24908F0FBFB6846222108F063
:1038800005FC6846B74908F0F3FB6846222108F0BA
:10389000FDFB6846B44908F0EBFB6846222108F0BE
:1038A000F5FB6846B74908F0E3FB6846222108F0BB
:1038B000EDFB6846AE4908F0DBFB6846222108F0C4
:1038C000E5FB6846AB4908F0D3FB6846222108F0C7
:1038D000DDFB6846A84908F0CBFBAB4BD3E9000100
:1038E00009F022FD00EE100A684608F01BFC68464D
:1038F000A34908F0BDFB6846222108F0C7FB6846D3
:10390000984908F0B5FB6846222108F0BFFB6846DD
:10391000954908F0ADFB6846222108F0B7FB6846E0
:103920009A4908F0A5FB6846222108F0AFFB6846DB
:103930008F4908F09DFB6846222108F0A7FB6846E6
:103940008C4908F095FB6846222108F09FFB6846E9
:10395000894908F08DFB8E4BD3E9000109F0E4FCA6
:1039600000EE100A684608F0DDFB6846844908F05E
:103970007FFB6846222108F089FB6846794908F0F8
:1039800077FB6846222108F081FB6846764908F0FB
:103990006FFB6846222108F079FB68467D4908F0F4
:1039A00067FB6846222108F071FB6846704908F001
:1039B0005FFB6846222108F069FB68466D4908F004
:1039C00057FB6846222108F061FB68466A4908F007
:1039D0004FFB714BD3E9000109F0A6FC00EE100A81
:1039E000684608F09FFB6846654908F041FB684659
:1039F000222108F04BFB68465A4908F039FB68461B
:103A0000222108F043FB6846574908F031FB68461D
:103A1000222108F03BFB6846604908F029FB684614
:103A2000222108F033FB6846514908F021FB684623
:103A3000222108F02BFB68464E4908F019FB684626
:103A4000222108F023FB68464B4908F011FB544B38
:103A5000D3E9000109F068FC00EE100A684608F09E
:103A600061FB6846464908F003FB6846222108F0DE
:103A70000DFB68463B4908F0FBFA6846222108F036
:103A800005FB6846384908F0F3FA6846222108F039
:103A9000FDFA6846434908F0EBFA6846222108F02F
:103AA000F5FA6846324908F0E3FA6846222108F040
:103AB000EDFA68462F4908F0DBFA6846222108F043
:103AC000E5FA68462C4908F0D3FA374BD3E90001F0
:103AD00009F02AFC00EE100A684608F023FB68464D
:103AE000274908F0C5FA6846222108F0CFFA68464F
:103AF0001C4908F0BDFA6846222108F0C7FA68465A
:103B0000194908F0B5FA6846222108F0BFFA68465C
:103B1000264908F0ADFA6846222108F0B7FA68464F
:103B2000134908F0A5FA6846222108F0AFFA684662
:103B3000104908F09DFA6846222108F0A7FA684665
:103B40000D4908F095FA1A4BD3E9000109F0ECFB96
:103B500000EE100A68462DE01C240100AC77FF1F20
:103B6000C0210100C4210100D0210100D4210100A5
:103B7000F0210100F4210100102001003015FF1F89
:103B8000FC210100042201003815FF1F2022010042
:103B90004015FF1F3C2201004815FF1F582201005D
:103BA0005015FF1F742201005815FF1F90220100BD
:103BB0006015FF1F08F0B6FA6846DC4908F058FAAD
:103BC0006846222108F062FA6846D94908F050FA9E
:103BD0006846222108F05AFA6846D64908F048FAA1
:103BE0006846222108F052FA6846D34908F040FAA4
:103BF0006846222108F04AFA6846D04908F038FAA7
:103C00006846222108F042FA6846CD4908F030FAA9
:103C10006846222108F03AFA6846CA4908F028FAAC
:103C2000C94BD3E9000109F07FFB00EE100A68469A
:103C300008F078FA6846BD4908F01AFA6846222169
:103C400008F024FA6846BA4908F012FA68462221B8
:103C500008F01CFA6846B74908F00AFA68462221BB
:103C600008F014FA6846B94908F002FA68462221B9
:103C700008F00CFA6846B14908F0FAF968462221C2
:103C800008F004FA6846AE4908F0F2F968462221C5
:103C900008F0FCF96846AB4908F0EAF9AC4BD3E907
:103CA000000109F041FB00EE100A684608F03AFAFC
:103CB00068469E4908F0DCF96846222108F0E6F9DA
:103CC00068469B4908F0D4F96846222108F0DEF9DD
:103CD0006846984908F0CCF96846222108F0D6F9E0
:103CE00068469C4908F0C4F96846222108F0CEF9DC
:103CF0006846924908F0BCF96846222108F0C6F9E6
:103D000068468F4908F0B4F96846222108F0BEF9E8
:103D100068468C4908F0ACF98F4BD3E9000109F0F3
:103D200003FB00EE100A684608F0FCF968467F497C
:103D300008F09EF96846222108F0A8F968467C49F7
:103D400008F096F96846222108F0A0F968467949FA
:103D500008F08EF96846222108F098F968467F49F4
:103D600008F086F96846222108F090F96846734900
:103D700008F07EF96846222108F088F96846704903
:103D800008F076F96846222108F080F968466D4906
:103D900008F06EF9724B1968B1FA81F14909684669
:103DA00008F084F96846614908F062F96846222102
:103DB00008F06CF968465E4908F05AF96846222115
:103DC00008F064F968465B4908F052F96846222118
:103DD00008F05CF96846614908F04AF96846222112
:103DE00008F054F96846554908F042F9684622211E
:103DF00008F04CF96846524908F03AF96846222121
:103E000008F044F968464F4908F032F9554B1968F3
:103E1000B1FA81F14909684608F048F96846434912
:103E200008F026F96846222108F030F96846404932
:103E300008F01EF96846222108F028F968463D4935
:103E400008F016F96846222108F020F9684646492C
:103E500008F00EF96846222108F018F9684637493B
:103E600008F006F96846222108F010F9684634493E
:103E700008F0FEF86846222108F008F96846314942
:103E800008F0F6F8394B1968B1FA81F1490968462A
:103E900008F00CF96846254908F0EAF8684622213E
:103EA00008F0F4F86846224908F0E2F86846222152
:103EB00008F0ECF868461F4908F0DAF86846222155
:103EC00008F0E4F868462A4908F0D2F8684622214A
:103ED00008F0DCF86846194908F0CAF8684622215B
:103EE00008F0D4F86846164908F0C2F8684622215E
:103EF00008F0CCF86846134908F0BAF81D4B196869
:103F0000B1FA81F14909684608F0D0F868460749D6
:103F100008F0AEF86846222108F0B8F8684604496F
:103F200008F0A6F86846222126E000BFFC21010027
:103F3000C4210100D0210100AC220100F0210100C8
:103F4000F4210100102001006815FF1FC8220100A4
:103F50007015FF1FE42201007815FF1F00230100E8
:103F60003C3FFF1F403FFF1F1C230100443FFF1F3A
:103F700038230100483FFF1F08F088F86846D949F8
:103F800008F076F86846222108F080F86846D6499D
:103F900008F06EF86846222108F078F86846D349A0
:103FA00008F066F86846222108F070F86846D049A3
:103FB00008F05EF86846222108F068F86846CD49A6
:103FC00008F056F8CC4B1968B1FA81F149096846F6
:103FD00008F06CF86846C94908F04AF8684622219A
:103FE00008F054F86846C64908F042F868462221AD
:103FF00008F04CF86846BB4908F03AF868462221B8
:1040000008F044F86846BF4908F032F868462221B3
:1040100008F03CF86846B54908F02AF868462221BD
:1040200008F034F86846B24908F022F868462221C0
:1040300008F02CF86846AF4908F01AF8B24B196836
:10404000B1FA81F14909684608F030F86846AB4991
:1040500008F00EF86846222108F018F86846A849CA
:1040600008F006F86846222108F010F868469D49D5
:1040700007F0FEFF6846222108F008F86846A349C9
:1040800007F0F6FF6846222108F000F868469749D5
:1040900007F0EEFF6846222107F0F8FF68469449D2
:1040A00007F0E6FF6846222107F0F0FF68469149D5
:1040B00007F0DEFF964B1968B1FA81F149096846AD
:1040C00007F0F4FF68468D4907F0D2FF68462221C9
:1040D00007F0DCFF68468A4907F0CAFF68462221DC
:1040E00007F0D4FF68467F4907F0C2FF68462221E7
:1040F00007F0CCFF6846874907F0BAFF68462221DF
:1041000007F0C4FF6846794907F0B2FF68462221EC
:1041100007F0BCFF6846764907F0AAFF68462221EF
:1041200007F0B4FF6846734907F0A2FF7A4B19689D
:10413000B1FA81F14909684607F0B8FF68466F494E
:1041400007F096FF6846222107F0A0FF68466C49F9
:1041500007F08EFF6846222107F098FF6846614904
:1041600007F086FF6846222107F090FF68466B49FA
:1041700007F07EFF6846222107F088FF68465B490A
:1041800007F076FF6846222107F080FF684658490D
:1041900007F06EFF6846222107F078FF6846554910
:1041A00007F066FF5E4B1968B1FA81F1490968466C
:1041B00007F07CFF6846514907F05AFF6846222104
:1041C00007F064FF68464E4907F052FF6846222117
:1041D00007F05CFF6846434907F04AFF6846222122
:1041E00007F054FF68464F4907F042FF6846222116
:1041F00007F04CFF68463D4907F03AFF6846222128
:1042000007F044FF68463A4907F032FF684622212A
:1042100007F03CFF6846374907F02AFF424B196810
:10422000B1FA81F14909684607F040FF6846334911
:1042300007F01EFF6846222107F028FF6846304934
:1042400007F016FF6846222107F020FF684625493F
:1042500007F00EFF6846222107F018FF6846334931
:1042600007F006FF6846222107F010FF68461F4945
:1042700007F0FEFE6846222107F008FF68461C4949
:1042800007F0F6FE6846222107F000FF684619494C
:1042900007F0EEFE6846012107F008FF6846244952
:1042A00007F0E6FE04A8234907F072FE04A822499D
:1042B00007F0DEFE04A8214907F0DAFE04A8204931
:1042C00007F0D6FE029904A807F004FF04A81D49D0
:1042D00007F0CEFE04A81B4907F0CAFE694604A8F1
:1042E00032E000BFD021010054230100F021010081
:1042F000F4210100102001004C3FFF1FFC210100B0
:10430000C4210100702301001C3FFF1F8C2301000A
:104310005C3FFF1FA8230100603FFF1FC423010073
:10432000643FFF1FE0230100C415FF1FFC230100B1
:1043300018240100202401007824010094240100A5
:10434000B82401001021010007F08EFE05F04CFB9F
:1043500004A90F4807F07CFC00230E48237004F0EA
:104360003FF903E005F05EFB00280DDC094804F08E
:1043700011F90028F6D004A807F0CAFD684607F036
:10438000C7FD002008B010BD05F05CFB2070EDE714
:10439000E808FF1F783FFF1FF8B54748474C484DD6
:1043A000484F494E04F036F940F6AC51474804F006
:1043B000E1F8042314223F21454803F0C7FF2146BA
:1043C000284607F0E5FD214605F1100007F0E0FD65
:1043D000214605F1200007F0DBFD214605F1300004
:1043E00007F0D6FD214605F1400007F0D1FD21463A
:1043F00005F1500007F0CCFD214605F1600007F003
:10440000C7FD214605F1700007F0C2FD214605F108
:10441000800007F0BDFD214605F1900007F0B8FDD2
:10442000214605F1A00007F0B3FD214605F1B000DB
:1044300007F0AEFD214605F1C00007F0A9FD2146B9
:1044400005F1D00007F0A4FD214605F1E00007F0DA
:104450009FFD214605F1F00007F09AFD214605F584
:10446000807007F095FD214605F5887007F090FDF6
:10447000214605F5907007F08BFD214605F59870F3
:1044800007F086FD3A461349002008F09DFF2146BB
:10449000304607F07DFD3A4630460F4908F094FF5C
:1044A0004EF660210D4804F065F84FF47A710C481F
:1044B000BDE8F84004F05EB89C13FF1F1C24010007
:1044C000D83DFF1FF806FF1F1415FF1F783FFF1F81
:1044D0008415FF1F6D04000011BF0000C814FF1FEA
:1044E000503FFF1F2DE9F04FAD4CADF5215D89B078
:1044F0000020002104F5205A2346C3E90001C3E946
:104500000201C3E9040120339A45F6D1A54D0020EC
:10451000002105F520592B46C3E90001C3E902013A
:10452000C3E9040120339945F6D108A801239E4A26
:104530009E4901F0DBFD18AF3E460DF5A35830460D
:104540000021103607F024FDB045F8D104A89849A1
:1045500007F01EFD08A801F015FD002868D00A210B
:104560009448954E06F0AEFF944807F097FB002361
:104570009B4613E0BBF5A07F08A800F0C38201F0C2
:104580007BFCC3B21846337007F020F8317804A8DA
:1045900007F07CFD33780A2B00F0CE8108A801F0EB
:1045A0004DFC0028E6D15E4608A801F0DDFC002E97
:1045B00045D07B4B824F0395002201920294B34673
:1045C0001D46019B7F491B0118AA0024D058386062
:1045D0000BF0F0F806463860C0B99AE1012C00F003
:1045E0007481022C00F08C81032C40F09281386899
:1045F00008F0F0FE85ED060B0424724900200BF054
:10460000D9F806463860002800F08381304609F06A
:10461000D7FD0146304606F055FF002CDED1386844
:1046200008F0DCFE08F022FB0124C5E90001E4E704
:104630001F21654806F046FF604807F02FFB112157
:10464000624806F03FFF5D4807F028FB04F12006B2
:10465000B4EC020B0221594807F07AFB01215948BA
:1046600006F030FFA642F3D1544807F017FB564539
:104670003446EBD10123564A4C49404601F036FD01
:104680004246D8F8083012F80C0F98F804108DF84C
:104690002C000A938DF824100DF12D030DF13A0032
:1046A00012F8011F03F8011B8342F9D1D8F81C301E
:1046B0000F93404601F056FC0DF521564746203633
:1046C000444620460021103407F062FCB442F8D181
:1046D000374904A807F086FC08A801F053FC00281D
:1046E0007AD00B213B48344C06F0ECFE334807F0FF
:1046F000D5FA4FF0000A13E0BAF5A07F08A800F041
:10470000DB8101F0B9FBC3B21846237006F05EFFEF
:10471000217804A807F0BAFC23780A2B00F0238143
:1047200008A801F08BFB0028E6D108A801F01CFCCA
:10473000BAF1000F57D01B4C214F0026AB46330176
:10474000204958F8030038600BF034F80025034680
:104750003860C8B9E8E0012D00F0C080022D00F0FB
:10476000C680032D40F0E08008F038FE08F07EFAA5
:10477000C4E906010425134900200BF01BF8034689
:104780003860002800F0D0801846002DE3D108F0F2
:1047900025FE08F06BFA0125C4E90001EBE700BF34
:1047A000A84FFF1FD815FF1F2C250100CC77FF1F36
:1047B0001C24010038250100AC77FF1F1809FF1FDA
:1047C000843FFF1F74200100582501007825010057
:1047D0008C250100982501002021B94806F072FEC1
:1047E000B84807F05BFA1121B74806F06BFEB548F0
:1047F00007F054FA05F12004B5EC020B0221B14890
:1048000007F0A6FA0121B14806F05CFEA542F3D1FB
:10481000AC4807F043FAA945ECD110AD2846012376
:10482000AB4AAC4901F062FCAA682B7B29790A9259
:104830008DF82C308DF8241013AA0DF12D030DF1F5
:104840003A0012F8011F03F8011B8342F9D1EB690A
:104850000F93284601F086FB0021284607F098FBBD
:10486000002114A807F094FB9B4904A807F0BAFBA9
:1048700008A801F087FB002840F08C8014A807F0FE
:1048800047FB284607F044FB0DF521542034103C2B
:10489000204607F03DFB4445F9D104A807F038FB5A
:1048A0000DF5A25418AB1034A3F110052046103CAE
:1048B00007F02EFBA542F9D108A801F053FB002018
:1048C0000DF5215D09B0BDE8F08F386808F086FD70
:1048D00008F0CCF90224C5E902018EE6184608F07A
:1048E0007DFD08F0C3F90225C4E9020143E718463B
:1048F00008F074FD08F0BAF90325C4E904013AE7A9
:10490000386808F06BFD08F0B1F90324C5E904012B
:1049100073E6019B01335B45019305F12005FFF62A
:1049200050AE029C039D8AE60136B24504F1200494
:104930003FF705AF5D4656E704A9384607F04AFB46
:104940001121664806F0BEFD04A95E4807F080F913
:104950005C4807F0A3F9604904A80BF1010B10377C
:1049600007F040FB1AE604A9384607F033FB112193
:104970005A4806F0A7FD04A9524807F069F95148C2
:1049800007F08CF9544904A80AF1010A103707F01E
:1049900029FBC5E60B215248524E06F093FD4948CB
:1049A00007F07CF92C464FF0000908A801F046FA00
:1049B000002800F0AC80B9F1020F08A824D001F063
:1049C0005BFAC3B21846337006F000FE317804A8D3
:1049D00007F05CFB33780A2BE7D104A9204607F0E7
:1049E000F9FA11213D4806F06DFD04A9354807F09C
:1049F0002FF9344807F052F9374904A809F10109A1
:104A0000103407F0EFFAD0E708A801F0ADFA00265D
:104A1000354F364CB2464FEA0A132C49E8583860F5
:104A20000AF0C8FE002603463860D0B93FE0012EE8
:104A30002BD0022E3BD108F0D1FC0A2120602C485B
:104A400006F040FD21681F4807F078F91D4807F07F
:104A500025F903261D4900200AF0ACFE0346386004
:104A600028B31846002EE2D108F0B8FC214E0B21E5
:104A70003060214806F026FD3168124807F05EF9E3
:104A8000104807F00BF90126E4E7184608F0A6FCE9
:104A90001A4E062130601A4806F014FD31680948A4
:104AA00007F04CF9074807F0F9F80226D2E70AF1B7
:104AB000010ACA45AFDBE1E608A801F055FA3AE67B
:104AC000A42501001809FF1F7825010074200100AA
:104AD000C8250100CC77FF1F1C24010044250100DC
:104AE000D4250100AC77FF1F843FFF1F343FFF1F19
:104AF000F4250100883FFF1FE0250100303FFF1F24
:104B0000EC25010008A85E4601F02EFA51E508A840
:104B100001F02AFAB9F1000F3FF4B0AE77E700BF19
:104B200010B5022200210B4803F07EFC00244FF454
:104B3000966004F0A7FB01220749064807F074F8C5
:104B4000E1B202220348013403F06EFC142CEED1D2
:104B5000002010BD8415FF1F8427010010B50B4CE9
:104B6000282004F08FFB204603F052FC282004F09C
:104B700089FB20460122002103F056FC20460F222B
:104B80000349BDE8104007F04FB800BF8415FF1F70
:104B90000026010010B50B4C282004F073FB2046C2
:104BA00003F036FC282004F06DFB20460122002192
:104BB00003F03AFC204610220349BDE8104007F0FC
:104BC00033B800BF8415FF1F1026010010B50B4C31
:104BD000282004F057FB204603F01AFC282004F09C
:104BE00051FB20460122002103F01EFC20460D222D
:104BF0000349BDE8104007F017B800BF8415FF1F38
:104C00002426010010B50B4C282004F03BFB204665
:104C100003F0FEFB282004F035FB20460122002192
:104C200003F002FC204610220349BDE8104006F0C4
:104C3000FBBF00BF8415FF1F3426010010B50B4CCD
:104C4000282004F01FFB204603F0E2FB282004F09C
:104C500019FB20460122002103F0E6FB20460A2230
:104C60000349BDE8104006F0DFBF00BF8415FF1FF9
:104C70004826010010B50B4C282004F003FB204609
:104C800003F0C6FB282004F0FDFA20460122002193
:104C900003F0CAFB20460E220349BDE8104006F08F
:104CA000C3BF00BF8415FF1F5426010010B50B4C75
:104CB000282004F0E7FA204603F0AAFB282004F09D
:104CC000E1FA20460122002103F0AEFB20460B2230
:104CD0000349BDE8104006F0A7BF00BF8415FF1FC1
:104CE0006426010010B50B4C282004F0CBFA2046B6
:104CF00003F08EFB282004F0C5FA20460122002193
:104D000003F092FB20460A220349BDE8104006F05A
:104D10008BBF00BF8415FF1F7026010010B50B4C20
:104D2000282004F0AFFA204603F072FB282004F09C
:104D3000A9FA20460122002103F076FB204610222A
:104D40000349BDE8104006F06FBF00BF8415FF1F88
:104D50007C26010010B5104C282004F093FA204660
:104D600003F056FB282004F08DFA20460122002192
:104D700003F05AFB20460622084906F055FF20465C
:104D80000222002103F050FB20460D220449BDE819
:104D9000104006F049BF00BF8415FF1F9026010098
:104DA0009826010010B5104C282004F06BFA20461C
:104DB00003F02EFB282004F065FA20460122002192
:104DC00003F032FB20460622084906F02DFF20465C
:104DD0000222002103F028FB204610220449BDE8EE
:104DE000104006F021BF00BF8415FF1FA826010058
:104DF000B026010010B5104C282004F043FA2046DC
:104E000003F006FB282004F03DFA20460122002191
:104E100003F00AFB20461022084906F005FF204651
:104E20000222002103F000FB20460B220449BDE8CA
:104E3000104006F0F9BE00BF8415FF1FC426010014
:104E4000D826010010B5154C282004F01BFA204686
:104E500003F0DEFA282004F015FA0022204611465D
:104E600003F0E2FA204606220D4906F0DDFE204658
:104E70000122002103F0D8FA20461122094906F048
:104E8000D3FE20460222002103F0CEFA2046122251
:104E90000549BDE8104006F0C7BE00BF8415FF1FDE
:104EA000A8260100E4260100F826010010B5154CE3
:104EB000282004F0E7F9204603F0AAFA282004F09D
:104EC000E1F900222046114603F0AEFA20461222F4
:104ED0000D4906F0A9FE20460122002103F0A4FAA4
:104EE00020460F22094906F09FFE2046022200219B
:104EF00003F09AFA20460F220549BDE8104006F05B
:104F000093BE00BF8415FF1F0C270100202701005E
:104F1000302701002DE9F04F8FB0A349A34EA44FD5
:104F20000AA807F035F8A3490AA807F0A1F8A24992
:104F30000AA807F09DF8A1490AA807F099F8A04926
:104F40000AA807F095F805F0FDF8642004F09AF936
:104F50000AA99C4806F07CFE0AA99B4806F078FE48
:104F60009A4803F055FA01220021984803F05CFAB0
:104F700012229749954806F057FE44F6206104A88E
:104F800003F0F8FA04A803F02BFB4FF47A7107A89A
:104F900003F0F0FA07A803F023FB002504A803F0B0
:104FA000F9FA18BB05F0ECF8002807DD05F0F8F871
:104FB000C4B2204606F00AFB7455013507A803F079
:104FC000E9FA01280446E9D1396880484B1C0222DD
:104FD000C9B23B6003F028FA22467E497B4806F0BE
:104FE00023FE04A803F0D6FA0028DBD0774803F0AC
:104FF0000FFA01220021754803F016FA0D227649B6
:10500000724806F011FE754B684819889A78ADF819
:105010000410002301A98DF8062073550FE009F054
:10502000CFF801460546204606F04CFA664806F0E1
:1050300035FE202D01A94FF0000000F367810AF032
:10504000B9FB04460028EAD1DFF8C881D8F800305F
:10505000DFF8C081002B00F0E580614C2368002B55
:1050600000F0E0805F4D2B68002B00F0DB805E4E8F
:105070003368002B00F0D6805C4F3B68002B00F0BB
:10508000D180DFF894A1DAF80030002B00F0CA805C
:105090000E215748DFF8849106F014FAD5F800B0D5
:1050A000584609F08DF80146584606F00BFA0121E2
:1050B000504806F007FAD4F800B0584609F080F8D6
:1050C0000146584606F0FEF901214A4806F0FAF971
:1050D000D8F800B0584609F073F80146584606F073
:1050E000F1F90121444806F0EDF9D6F800B0584630
:1050F00009F066F80146584606F0E4F901213F48F8
:1051000006F0E0F9D7F800B0584609F059F8014622
:10511000584606F0D7F90121384806F0D3F9DAF8F5
:1051200000B0584609F04CF80146584606F0CAF956
:10513000254806F0B3FDD8F8000008F04FF92468C0
:10514000C9F800002E49204609F088FA002800F02E
:10515000688101232B4C3068236008F03FF9022856
:10516000286840F3568108F039F90346264D306827
:105170002B6008F033F91C4E0228306800F34D8193
:1051800008F02CF900F11503204E3868336008F060
:1051900025F91F4FDFF888803860DAF8000008F042
:1051A0001DF9C8F8000045E0402701008C3FFF1FB3
:1051B0000415FF1F6C240100F82001005027010096
:1051C00010210100F808FF1F1809FF1F8415FF1F99
:1051D000642701008427010078270100B41E010024
:1051E000D414FF1F183FFF1F2815FF1F0C15FF1FAA
:1051F0008C2701009C270100882701001020010056
:10520000A02701009C4FFF1FC015FF1FD814FF1FD0
:10521000DC14FF1FD015FF1F984FFF1F0015FF1F45
:10522000C815FF1FDFF8F892A54CA64DA64EA74F54
:10523000DFF8F082A6480E2106F044F92968A54857
:1052400006F07CFD0121A44806F03CF92168A14844
:1052500006F074FD0121A04806F034F9D9F80010D9
:105260009C4806F06BFD01219C4806F02BF9316843
:10527000984806F063FD0121994806F023F9396842
:10528000944806F05BFD0121954806F01BF9D8F81B
:105290000010904806F052FD8E4806F0FFFCD9F849
:1052A0000030D8F80000226829683F6836688DF819
:1052B00008004E3302A88DF80E308DF80D208DF8C1
:1052C0000C108DF809708DF80A6003F019FC014686
:1052D0000446804806F032FD7E4806F0DFFC814B34
:1052E0009C420CDD204603F0A1FF204603F086FC23
:1052F0000AA806F00DFE00200FB0BDE8F08FFFF702
:1053000079FD4FF4FA6003F0BDFFF1E7204608F0A5
:1053100057FF0146204606F0D5F86E4806F0BEFC61
:1053200020466E490AF046FA6C4900200AF042FA1B
:105330006A4900200AF03EFA044600283FF484AE91
:10534000DFF8E481DFF8E491674F00250DE03C6071
:10535000062E62494FF0000005F101051FDC0AF03E
:1053600029FA044600283FF471AE204608F028FFD1
:1053700001460646204606F0A5F8564806F08EFC83
:10538000002DE4D0012D3FD0022D08BFC8F8004009
:10539000062E52494FF0000005F10105DFDD2046E1
:1053A00008F00EFF0146204606F08CF8494806F04A
:1053B00075FC20464A490AF0FDF9044600283FF4EE
:1053C00045AE0025DFF86891484F494EADB93460CD
:1053D000204608F0F5FE0146204606F073F83D48E9
:1053E00006F05CFC3E4900200AF0E4F90135044671
:1053F00000283FF42BAE002DE9D0012D07D0022D5F
:1054000008BFC9F80040E3E7C9F80040A0E73C60E6
:10541000DEE707F0E3FF431EA8E607F0DFFFC31E49
:10542000B2E63449204609F019F908B1022391E6A1
:105430003149204609F012F908B103238AE62F49C1
:10544000204609F00BF908B1042383E62C492046D5
:1054500009F004F908B105237CE62A49204609F041
:10546000FDF808B1062375E62749204609F0F6F84D
:1054700008B107236EE62549204609F0EFF808B188
:10548000082367E62249204609F0E8F808B1092315
:1054900060E62049204609F0E1F808B10A2359E600
:1054A0001D49204609F0DAF808B10B2352E62046E0
:1054B0001A4909F0D3F800280CBF01230C2349E650
:1054C0009C4FFF1FC015FF1FD814FF1FDC14FF1FC8
:1054D0008C2701001809FF1F9C2701008827010065
:1054E00010200100005C995A183FFF1F0C15FF1F88
:1054F0002815FF1FA4270100A8270100AC270100E1
:10550000B0270100B4270100B8270100BC27010023
:10551000C0270100C4270100C8270100CC270100D3
:105520000015FF1FC815FF1FD015FF1FD414FF1F44
:10553000984FFF1FF8B546F2A81003F0D7FF40F6CA
:10554000230004F077FB43F2D40004F073FF06203D
:1055500004F0B6FF09E0642003F094FE16214B48E6
:1055600005F0B0FF4A4806F099FBFBF715FB002851
:10557000F1D1FFF79BFC4FF4FA6003F083FE05E0E6
:10558000FFF760FC4FF47A7003F07CFEFBF78EFDB2
:105590000028F5D1FFF752FB4FF4FA6003F072FEDA
:1055A00005E0FFF7FFFB4FF47A7003F06BFEFEF7A8
:1055B00099FF0028F5D1FFF75DFB4FF4FA6003F087
:1055C00061FEFFF7C7FB4FF4FA6003F05BFEFBF7E9
:1055D00067F8FFF7C3FA4FF4FA6003F053FEFBF7E6
:1055E000BFF9FFF7D7FA4FF4FA6003F04BFEFFF76D
:1055F00095FB4FF4FA6003F045FEFFF757FBFFF70A
:105600008FFAFFF76FFB234B1B680BB9FFF782FC88
:10561000FFF7DCFA4FF4FA6003F034FEFFF7F2FA1A
:105620004FF4FA6003F02EFE1B4802F0F1FE012158
:10563000062003F021FE0121062003F009FE174B8E
:10564000174A1978174802F0EDFF72B61649174B42
:10565000174A184E184C1948194D06270F704BF26F
:105660001B7111801A6802F0400242F02E020027DE
:105670001F6031601A601A6825604FF4006142F0C3
:1056800040021A60016062B6F8BD00BFD027010079
:105690001809FF1F303FFF1F8415FF1F4407FF1F1E
:1056A0000809FF1F9C13FF1F467AFF1F009003404D
:1056B000487AFF1F08900340D008FF1F04E100E074
:1056C000411D00002DE9F04F8FB0A349A34EA44F18
:1056D0000AA806F05DFCA3490AA806F0C9FCA24985
:1056E0000AA806F0C5FCA1490AA806F0C1FCA04919
:1056F0000AA806F0BDFC04F077F9642003F0C2FDAF
:105700000AA99C4806F0A4FA0AA99B4806F0A0FA48
:105710009A4802F07DFE01220021984802F084FEA2
:1057200012229749954806F07FFA44F6206104A8B2
:1057300002F020FF04A802F053FF4FF47A7107A88B
:1057400002F018FF07A802F04BFF002504A802F0A2
:1057500021FF18BB04F066F9002807DD04F072F998
:10576000C4B2204605F032FF7455013507A802F097
:1057700011FF01280446E9D1396880484B1C0222F8
:10578000C9B23B6002F050FE22467E497B4806F0DB
:105790004BFA04A802F0FEFE0028DBD0774802F0A6
:1057A00037FE01220021754802F03EFE0D227649A7
:1057B000724806F039FA754B684819889A78ADF83E
:1057C0000410002301A98DF8062073550FE008F09E
:1057D000F7FC01460546204605F074FE664806F0D3
:1057E0005DFA202D01A94FF0000000F36A8109F055
:1057F000E1FF04460028EAD1DFF8C881D8F800307C
:10580000DFF8C081002B00F0E580614C2368002B9D
:1058100000F0E0805F4D2B68002B00F0DB805E4ED7
:105820003368002B00F0D6805C4F3B68002B00F003
:10583000D180DFF894A1DAF80030002B00F0CA80A4
:105840000E215748DFF8849105F03CFED5F800B0F2
:10585000584608F0B5FC0146584605F033FE0121D4
:10586000504805F02FFED4F800B0584608F0A8FCC8
:105870000146584605F026FE01214A4805F022FE61
:10588000D8F800B0584608F09BFC0146584605F091
:1058900019FE0121444805F015FED6F800B058461F
:1058A00008F08EFC0146584605F00CFE01213F48E9
:1058B00005F008FED7F800B0584608F081FC014614
:1058C000584605F0FFFD0121384805F0FBFDDAF8E8
:1058D00000B0584608F074FC0146584605F0F2FD49
:1058E000254806F0DBF9D8F8000007F077FD2468BA
:1058F000C9F800002E49204608F0B0FE002800F04C
:105900006B8101232B4C3068236007F067FD022870
:10591000286840F3598107F061FD0346264D306841
:105920002B6007F05BFD1C4E0228306800F35081AD
:1059300007F054FD00F11503204E3868336007F07E
:105940004DFD1F4FDFF888803860DAF8000007F05F
:1059500045FDC8F8000045E0402701008C3FFF1FCF
:105960009415FF1F6C240100F8200100502701004E
:1059700010210100E808FF1F1809FF1F8415FF1FF1
:10598000642701008427010078270100B41E01006C
:10599000D414FF1F183FFF1F2815FF1F0C15FF1FF2
:1059A0008C2701009C27010088270100102001009E
:1059B000A02701009C4FFF1FC015FF1FD814FF1F19
:1059C000DC14FF1FD015FF1F984FFF1F0015FF1F8E
:1059D000C815FF1FDFF80493A74CA84DA84EA94F88
:1059E000DFF8FC82A8480E2105F06CFD2968A74865
:1059F00006F0A4F90121A64805F064FD2168A3483A
:105A000006F09CF90121A24805F05CFDD9F80010D0
:105A10009E4806F093F901219E4805F053FD316838
:105A20009A4806F08BF901219B4805F04BFD396837
:105A3000964806F083F90121974805F043FDD8F810
:105A40000010924806F07AF9904806F027F9D9F844
:105A50000030D8F80000226829683F6836688DF861
:105A600008004E3302A88DF80E308DF80D208DF809
:105A70000C108DF809708DF80A6003F041F80146AA
:105A80000446824806F05AF9804806F007F9834B2D
:105A90009C420FDD204603F0C9FB204603F0AEF820
:105AA0007F4B01221A700AA806F032FA00200FB0CC
:105AB000BDE8F08FFFF79EF94FF4FA6003F0E2FBC8
:105AC000F1E7204608F07CFB0146204605F0FAFC91
:105AD0006E4806F0E3F820466E4909F06BFE6D490A
