:100000000000022099010000F54E0000AD4E0000F6
:10001000AD4E0000AD4E0000AD4E0000AD4E0000F4
:10002000AD4E0000AD4E0000AD4E0000F54E00009C
:10003000F54E0000AD4E00007D57000081580000D5
:10004000F54E0000F54E0000F54E0000F54E0000A4
:10005000F54E0000F54E0000F54E0000F54E000094
:10006000F54E0000F54E0000F54E0000F54E000084
:10007000F54E0000F54E0000F54E0000F54E000074
:10008000F54E0000F54E0000F54E0000F54E000064
:10009000F54E0000F54E0000F54E0000F54E000054
:1000A000AD160000B9160000F54E0000F54E000038
:1000B000F54E0000F54E0000F54E00009D2C0000AE
:1000C000F54E0000F9330000F54E000079390000CC
:1000D000F54E000059530000F54E0000F54E0000AB
:1000E000F54E0000F54E0000F54E000081190000AD
:1000F000F54E0000F54E0000F54E0000F54E0000F4
:10010000F54E0000F54E0000F54E0000F54E0000E3
:10011000F54E0000593B0000F54E0000F54E000082
:10012000F54E0000F54E0000F54E0000F54E0000C3
:10013000F54E0000F54E0000F54E0000F54E0000B3
:10014000F54E0000F54E000051540000F54E000041
:1001500049550000F54E0000F54E0000F54E000038
:10016000F54E0000F54E0000C5160000F54E0000EB
:10017000F54E0000F54E0000F54E0000F54E000073
:10018000F54E0000F54E0000F54E0000F54E000063
:10019000F54E0000F54E0000584B4CF2205210B5C1
:1001A0001A804DF628121A8000BF00BF04F0A6FE88
:1001B000534B4FF030621A60524A9A60524ADA60EA
:1001C000524B4FF470021A60514A136813F4807353
:1001D00004D150490B604FF4A85313604E4B1A786A
:1001E000110703D51A7842F008021A704B4B4C499C
:1001F0002A221A704B4A4C4B8B4204D252F8040FFD
:1002000043F8040BF8E7494B494900228B4202D2DC
:1002100043F8042BFAE74749474A002352F82300E2
:1002200041F823000133662BF8D1444B444A802126
:1002300003F8011B9342FBD1424B3E4A1A60424BEA
:100240008A221A70A3F5805324225A70A0221A70B1
:100250009A799207FCD59A79D406FCD43B4A9379D3
:1002600003F00C03082B394BF9D103221A714622F3
:100270005A719A799006FCD5344A9179334B4906E4
:10028000FBD5334A4FF08271116009215160202261
:100290001A709A7902F00C020C2AFAD12D4B2E4AD0
:1002A0001A602E4B2E4A1A6000225A60072243F829
:1002B000042C2C4AC3F80C2D62B602F0EBF8154B57
:1002C0001B68DA0705D5284802F06AF8274B284A48
:1002D0001A60284B1B785B0609D5244C244B2268F6
:1002E0009A4204D1204802F05BF80023236005F015
:1002F000F3FF04F009FE04F06FFDFEE70E20054059
:1003000030800440823F04000100002B88ED00E0B3
:1003100010D0034014D0034002D0074000E0074053
:10032000F812FF1F6CB80000F806FF1FF812FF1F3D
:100330001821FF1F0002FF1F0000000000E400E082
:1003400056E400E008ED00E00050064000400640A2
:100350004480044004800440C010050014E000E024
:10036000BFD401000000202086F9C35A1CE00340DE
:10037000A5C3945A00F00740FFFFFFFFFFFFFFFFF8
:10038000FFFFFFFFFFFFFFFFFFFFFFFFFFFFFFFF7D
:10039000FFFFFFFFFFFFFFFFFFFFFFFFFFFFFFFF6D
:1003A000FFFFFFFFFFFFFFFFFFFFFFFFFFFFFFFF5D
:1003B000FFFFFFFFFFFFFFFFFFFFFFFFFFFFFFFF4D
:1003C000FFFFFFFFFFFFFFFFFFFFFFFFFFFFFFFF3D
:1003D000FFFFFFFFFFFFFFFFFFFFFFFFFFFFFFFF2D
:1003E000FFFFFFFFFFFFFFFFFFFFFFFFFFFFFFFF1D
:1003F000FFFFFFFFFFFFFFFFFFFFFFFFFFFFFFFF0D
:10040000FFFFFFFFFFFFFFFFFFFFFFFFDEF9FFFF23
:1004100010B5054C237833B9044B13B10448AFF33E
:1004200000800123237010BDF812FF1F00000000A0
:1004300070B80000084B10B51BB108490848AFF36D
:1004400000800848036803B910BD074B002BFBD0A0
:10045000BDE81040184700BF00000000FC12FF1F5D
:1004600070B80000F812FF1F0000000038B572B627
:10047000324D334A2B68107801332B6001F0B0FE07
:10048000304B9FED316AD3ED007A9FED307AF8EE74
:10049000E77A06EE900A67EE867AF8EEE66AE6EE0E
:1004A000877AFDEEE77AC3ED007A1B68642B284B50
:1004B00002DC1A78002A3AD0264C002221682160FA
:1004C0001A702B681D4D3B2B17DD72B6D4ED007AE8
:1004D000DFED216A9FED217AF8EEE77A67EEA67AE2
:1004E000C7EE876A16EE900A05F03EFB1C4A002311
:1004F000C2E90001236062B62B601A4B187801F044
:1005000067FF194A194B1060187801F061FF184A0B
:10051000184B1060187801F05BFF174A174B1060FA
:10052000187801F055FF164B186062B638BD094CBB
:10053000226801210A4422601970C2E79C1CFF1F37
:100540001007FF1F441BFF1F6666663FCDCCCC3DE6
:10055000401BFF1FA01CFF1F0000C842000070428C
:100560001813FF1FF806FF1F881CFF1FFC06FF1F44
:100570008C1CFF1F0007FF1F901CFF1F0C07FF1F95
:10058000941CFF1F38B5044608460D4606F038FD9A
:100590002368024629465B68204698470546204660
:1005A00004F0DEF9284438BD2DE9F04F304E85B017
:1005B00034680094009C05469846914614440F46C2
:1005C00002F07AFE284606F01BFD0146284602F09E
:1005D0000FFE284804F0C4F9284606F011FD014634
:1005E000284602F057FA244804F0BAF9B8F1000F8F
:1005F0002BD0224D05F2FF7811E032680192019C68
:1006000085F800A04FF000036B704C4406F046FFE5
:1006100060BB5D4633680293029B9C4215D902F091
:1006200069FE0028F6DD02F075FE8246C0B202F0D7
:1006300027FA454505F1010B39461048DDD33368EB
:100640000293029B0D4D9C42E9D8302033680393FE
:10065000039B9C4207D20A21094802F01BFA064874
:1006600004F07EF9322005B0BDE8F08F3120EDE7CF
:10067000B01CFF1F8408FF1F7408FF1F2413FF1FF7
:1006800000AC000008B54FF47A7001F0B5FE01230C
:1006900042F210720B490C48FFF786FF312808D050
:1006A00009210A4802F0F6F9094804F059F9002036
:1006B00008BD0821074802F0EDF9054804F050F99B
:1006C000012008BD0CAC000010AC000020AC000004
:1006D0007408FF1F14AC000010B5454C2368013BA3
:1006E000052B00F28280DFE803F01D34475A6D03CA
:1006F000404804F035F913213F4802F0CBF90123BB
:100700004FF4FA523D493E48FFF74EFF312804BFEF
:10071000062323603B4B4FF000021A700CBF0720EA
:10072000012010BD334804F01BF90921364802F0BE
:10073000B1F9012341F2883234493548FFF734FFDB
:10074000312804BF022323602E4B00221A7001209F
:1007500010BD284804F004F90B212E4802F09AF944
:10076000012341F2883229492B48FFF71DFF312828
:10077000EAD103232360E7E71E4804F0F1F80821DB
:10078000264802F087F901234FF4FA521F49244802
:10079000FFF70AFF3128D7D104232360D4E7154897
:1007A00004F0DEF813211F4802F074F901234FF41E
:1007B000FA521D491D48FFF7F7FE3128C4D1052321
:1007C0002360C1E70B4804F0CBF81021184802F071
:1007D00061F9012341F288320C491648FFF7E4FE23
:1007E0003128B1D106232360AEE7012010BD00BF40
:1007F0001807FF1F7408FF1FC4AC0000D8AC00002E
:10080000E0AC00002413FF1F2CAC00000CAC000077
:1008100038AC000040AC000010AC00004CAC000054
:1008200058AC00007CAC000090AC000098AC00001C
:10083000A8AC0000BCAC000010B50321074802F0D2
:10084000D7FC40F6B83001F0D7FD01234FF47A729F
:1008500003490448BDE81040FFF7A6BE0CAD0000F8
:100860000CAC000010AD00002DE9F04FDFF8F09265
:10087000DFF8F082A249DFF8F0A2A24CA24D91B0BD
:10088000002604A889F8006004F0E2F9D8F8001006
:1008900004A804F05FFA9D4904A804F03DFADAF8D0
:1008A000001004A804F056FA984904A804F034FA99
:1008B000216804A804F04EFA944904A804F02CFA24
:1008C000296804A804F046FA04A9914804F022F823
:1008D0008F4804F045F82368B3B98E4F2968012288
:1008E0003A7009BB8C4DDFF884A22A708AF8001098
:1008F0008A4E3368013B032B00F2A683DFE813F036
:10090000F700DA0040012700834D824F2E703E70C1
:10091000824E3368013B032B00F29C83DFE813F027
:10092000E700CA002E011700D8F80010002940F097
:100930001A82DAF80030DFF834A2774D8AF8002006
:10094000002B40F05E82764B2A701A70D0E7FFF7DA
:1009500073FF002800F0B38002233360DFF81082B9
:10096000DFF810B20CAC2B78002B00F0B380022221
:1009700008216C4801F07AFA6B48112102F08AF8DC
:10098000634803F0EDFF06216848DFF8ECA102F0B0
:1009900081F831685E4804F033F85D4803F0E0FF09
:1009A0001221634802F076F898ED000B04215848B4
:1009B00004F02EF8564803F0D3FF5E4B54481968F4
:1009C00004F01EF8524803F0CBFF5B49204604F0C8
:1009D0003FF95A4B5A4A29782046002914BF11463C
:1009E000194604F099F95749204604F095F9DBF8C7
:1009F0000010204604F0AEF900220821524800F011
:100A0000D7FE2146504803F085FF012208214E48B9
:100A100000F0CEFE4849204604F03CF9D8E9000138
:100A200005F0EEFB00EE100A204604F0A7F921467F
:100A3000454803F06FFF02220821434800F0B8FE4A
:100A4000424B434A99F800102046002914BF114632
:100A5000194604F01FF921463B4803F05BFF0322CF
:100A60000821394800F0A4FE3349204604F012F969
:100A70009AF800303978002B00F06B81354A364BFC
:100A80002046002914BF1146194604F045F99AF88A
:100A900000302D4883F0010321468AF8003003F02E
:100AA00039FF204604F094F804A804F091F811B03E
:100AB000BDE8F08FFFF710FE07287FF44FAF032348
:100AC00033602B78DFF8A880DFF8A8B00CAC002BDF
:100AD0007FF44DAF0D21214801F0DCFF0C4803F0FD
:100AE0003FFF002208210F4801F0C0F94BE7FFF754
:100AF000C9FD00283FF432AF022333602EE700BF68
:100B000070AD0000901CFF1F941CFF1F7CAD000007
:100B10007408FF1FA41CFF1F301BFF1F0407FF1FCB
:100B2000481BFF1F4C1BFF1FA8AF0000CCAF0000ED
:100B3000D4AF0000A01CFF1F90AE00001CAD000051
:100B400018AD0000E8AF0000781CFF1F28AD0000C2
:100B500020AD000030AD000040AD0000BCAF000093
:100B60002013FF1F881CFF1F8C1CFF1FA51CFF1FCD
:100B70001813FF1F981CFF1F0807FF1FDFF80CA3A7
:100B8000DFF80C83A64908A804F062F8D8E9000150
:100B900005F036FB00EE100A08A804F0EFF83A78EA
:100BA0000A9BA048002A14BF4FF0030B4FF0010B23
:100BB00068339B4459460CAC03F022FF994803F07C
:100BC000CFFE2046984904F043F82046974904F0A8
:100BD000A3F82046964904F09FF82046954904F072
:100BE0009BF85946204604F0B5F82046924904F097
:100BF00093F82046904904F08FF820468F4904F07E
:100C00008BF82046222104F095F820468C4904F008
:100C100083F82046222104F08DF82046894904F00B
:100C20007BF82046222104F085F82046864904F00E
:100C300073F82046222104F07DF82046834904F011
:100C40006BF82046222104F075F82046804904F014
:100C500063F82046222104F06DF820467D4904F017
:100C60005BF8D8E9000105F0CBFA00EE100A204647
:100C700004F084F82046784904F04EF820462221FA
:100C800004F058F820466E4904F046F82046222128
:100C900004F050F820466B4904F03EF8204622212B
:100CA00004F048F820466D4904F036F82046222129
:100CB00004F040F82046654904F02EF82046222131
:100CC00004F038F82046624904F026F82046222134
:100CD00004F030F85F49204604F01EF83B78002B02
:100CE00014BF64210021204604F034F85C492046FA
:100CF00004F012F802F0E0FA21465A4803F00AFE26
:100D00002146484803F006FE574800F02DFE03E058
:100D100002F0F0FA00286EDC534800F0FFFD0028D6
:100D2000F6D0404803F01CFE9AF8003023BB2B7825
:100D30004E48002B69D1DFF85CB1012001F05CFB6B
:100D400003232046336003F043FF08A803F040FF6D
:100D500009E6474A474B2046002914BF1146194669
:100D600003F0DAFF93E6414DDFF820A1424A2B70F1
:100D70008AF800301370CBE53B78002BD7D03F4981
:100D8000DFF814A1204603F085FF3D49204603F01B
:100D9000C3FF3C49204603F0BFFF2749204603F02C
:100DA000BBFF02F089FA21462E4803F0B3FD21462D
:100DB0001C4803F0AFFD2C4800F0D6FD4FF0000BAF
:100DC000CDF800A0284800F0A9FD002866D102F067
:100DD00091FA0028F6DD02F09DFA0346C0B20193B5
:100DE00001F04EFE009B1A46019B02F8013F0BF1F9
:100DF000010B0092E6E702F08DFAC0B201F040FE6E
:100E00008AE71D4B2970197082E5002303701A468A
:100E100008211D48DFF87CB001F028F88DE700BFFD
:100E200090AE00007408FF1F80AD0000D8AD000038
:100E3000F4AD000018AE000004AF00002CAE0000BE
:100E400030AE0000E4AF00003CAE000058AE000041
:100E50005CAE000064AE000068AE000070AE000042
:100E60008CAE00008408FF1F241BFF1F301BFF1FD8
:100E700050AD000060AD0000481BFF1F94AE0000A5
:100E8000CCAD0000ECAE00004C1BFF1FA51CFF1FEB
:100E90001813FF1F981CFF1F2313FF1F704A71496F
:100EA0000023104602F80B3006F0F8FA2B780028E1
:100EB00000F0BA806C4A0BB9012313706B4808210B
:100EC00001F0E8FD6A4803F04BFD6A49204603F053
:100ED000E1FE6949204603F01FFF6849204603F000
:100EE0001BFF6749204603F017FF02F0E5F9214692
:100EF000644803F00FFD21465D4803F00BFD624896
:100F000000F032FD4FF0000B5F4800F007FD80B9A4
:100F100002F0F0F90028F7DD02F0FCF90346C0B258
:100F2000009301F0ADFD009B0AF8013F0BF1010BAE
:100F3000EAE7564B4A481A889B788DF80E30002312
:100F4000ADF80C2003A900F80B300FE006F058F8BC
:100F500001468346504601F09DFD454803F000FDE3
:100F6000BBF1040F03A94FF0000050DD07F042FB76
:100F700082460028EAD14FF0000A504605F090F969
:100F8000DFF82CE1424B5BEC10AB10EE100A594637
:100F900000228EED000B05F0C1F800283FF4CBAE27
:100FA00000223C4B5046594605F0AEF800283FF46D
:100FB000C2AE394B50465946002204F029FEDFF8F4
:100FC000F4B005F0D5F8DBF80030984282461AD02C
:100FD0000B21324801F05EFD0D21254803F010FD84
:100FE00008212F4801F056FD5146214803F008FD25
:100FF0001F4803F0B5FC1FFA8AF20D21294800F0C2
:1010000035FFCBF800A0012389F8003095E607F002
:10101000F1FA824605F0F4FF0146504601F03AFD30
:10102000134803F09DFCA8E7002B3FF44EAF1E4B86
:101030001B7823B91D490E48FFF7A4FA45E70B4971
:101040000B48FFF79FFA40E7DFF86C80DFF864B0E9
:101050000CAC8CE4DFF86080DFF858B00CAC39E5FC
:101060002413FF1F08AF0000301BFF1F10AF00004C
:101070007408FF1F28AF0000CCAD0000ECAE0000EC
:1010800004AF00008408FF1F241BFF1FFCAB0000FF
:1010900000003E4000804B400000594090AF0000EF
:1010A0009CAF00004C1BFF1F481BFF1F1CAF000024
:1010B000381BFF1F981CFF1F1813FF1F10B508488F
:1010C00000F06CFC40F6AC51064800F017FC04231D
:1010D00014223F210448BDE8104000F0FBBA00BFD5
:1010E0004C1BFF1F241BFF1F781CFF1FF8B56A4B0A
:1010F0006A4C1878002101F079F9694B00211878C1
:1011000001F074F9674B0021187801F06FF9664B14
:101110000021187801F06AF90121062001F066F932
:10112000012001F069F90121062001F04BF9204668
:1011300000F0E2FB642001F05FF9204600F0F0FAD5
:10114000204600F029FB20461222584903F0CEFB2E
:1011500020460122002100F02BFB20460F2254499B
:1011600003F0C4FB20460222002100F021FB0622EE
:101170005049204603F0BAFB41F2883001F03CF9B7
:1011800040F6230001F06CFA40F6230001F00CFE5B
:10119000494B0121187801F029F943F2D40002F0FB
:1011A00003FA062002F046FA444B454A19784548AE
:1011B00000F0FCFB444B00251D6072B6434B444FCE
:1011C0001878022101F012F94249434B434A44483E
:1011D00003260E7049F27C2111801A681D6002F00E
:1011E000400242F02B0239601A601A683D490160E2
:1011F0003D4942F040024FF400601A60086062B658
:10120000204600F0C9FA29462046012200F0D0FA13
:1012100020460D22354903F069FB2946204602226B
:1012200000F0C6FA32463249204603F05FFB42F234
:10123000107001F0E1F84FF4FA6001F0DDF820469B
:1012400000F0AAFA2A462946204600F0B1FA2046C4
:101250000622284903F04AFB29462046012200F0D5
:10126000A7FA20460622244903F040FB29462046DF
:10127000022200F09DFA32462046204903F036FB58
:1012800032462946204600F093FA204606221C49A1
:10129000BDE8F84003F02ABBF806FF1F781CFF1FCB
:1012A000FC06FF1F0007FF1F0C07FF1FECAF00002D
:1012B00000B0000010B000001407FF1F1C07FF1F44
:1012C0009408FF1F4C1BFF1FA01CFF1F1007FF1FD0
:1012D00008900340A71CFF1F00900340A81CFF1F9D
:1012E0006408FF1F6D04000004E100E018B0000076
:1012F00028B000002CB0000034B000003CB000006A
:1013000040B000000020704790F8392090F8380075
:10131000101A704790F8383090F839209A4205D961
:101320005A1C034480F83820187E70474FF0FF3075
:10133000704700BF90F8383090F839209A4286BF45
:101340001B18187E4FF0FF30704700BF704700BF7A
:1013500038B50546B0F85E0090B195F85D3014469A
:10136000C3F1210294420CD805F13B0018442246F7
:1013700000F08AFD95F85D30234485F85D30204605
:1013800038BD012014462871EEE700BFB0F85E308A
:101390006BB190F85D30202B07D8C218013380F86C
:1013A0005D30012082F83B1070470123037100205B
:1013B000704700BF0023426980F8383080F8393028
:1013C00080F85C3080F85D3080F85E3080F85F3007
:1013D00006CA30B40D68046943662A4383660A600E
:1013E000A370426990F861301649146813441D7A5D
:1013F0005B7B01EBC5051B026D6803F4E06343F002
:1014000064032B6090F8623013449D7CDB7D01EB1C
:10141000C5011B02496803F4E06343F064030B60F9
:1014200021685368194205D003692C225A70036958
:1014300004229A71036920225A71036980229A70EA
:1014400030BC70473CB1000038B50269D478E4B2D2
:10145000E106054624D51023D37063061FD504F09A
:10146000040404F0FF03002C5AD042496A6E0023A2
:101470000B7085F85D30002A66D0904795F85D3096
:10148000002B61D02B69D0229A702B6995F83B20F4
:101490001A712B69012285F85C200222DA7038BDAE
:1014A00004F0400303F0FF00002BD8D19379DBB2A6
:1014B00003F0600160294ED0937803F0100303F02D
:1014C000FF01B3B114F0010437D195F85C3095F801
:1014D0005D1099424BD9591C2B4485F85C1093F848
:1014E0003B3013712B69D0229A702B690222DA707B
:1014F000D5E785F86010937943F0200393712B6949
:1015000095F839101A791F29D2B2C6D8194800782F
:101510000028C2D06818013185F839100276BCE77E
:101520002A6985F83930C02393702B69114A1979DB
:10153000012111700222DA70B1E7C02393702B6988
:101540001A790222DA70AAE70122002385F85D20C9
:1015500085F83B3096E703F0DF039371AB6E23B160
:1015600085F8380095F8390098472A69A4E714717E
:10157000B8E700BFA61CFF1FF0B503691222DA709E
:10158000026993780546980687B051D5B423464C36
:10159000937023680293029E2A6905E023680393EF
:1015A000039B9B1B042B5AD8D37803F0200303F032
:1015B000FF00002BF2D095F85D30002B31D04FF0BA
:1015C000000E4FF0020C05EB0E0393F83B30137145
:1015D00023680493049F286907E09B060DD52368C0
:1015E0000593059BDB1B052B40D8C378DBB203F0CA
:1015F000020202F0FF06002AEFD080F803C02E6935
:10160000F378DBB2DF0632463FD49F063DD5DB07D9
:1016100043D40EF1010E95F85D305FFA8EFE7345EE
:10162000D1D80020002934D1002385F85E301BE09A
:101630001D4C23680093009E05E023680193019BE5
:101640009B1B0F2B19D8D37803F0200303F0FF0066
:10165000002BF2D1B02385F85F00937099E790706A
:101660002B6980229A70042007B0F0BD86702B6928
:10167000802204209A7007B0F0BD002393702B697C
:10168000802204209A7007B0F0BD8023B37004203C
:10169000C8E72E698023B370C6E7BEF1000F0CBF08
:1016A00002200320F6E700BFB01CFF1F0148FFF730
:1016B000CBBE00BF8C07FF1F0148FFF7C5BE00BFB0
:1016C000F807FF1F0148FFF7BFBE00BF2007FF1F3D
:1016D000704700BF30B4054D417100210560827232
:1016E000C3720171017330BC704700BFD4B00000F9
:1016F00038B54379094C0125AB4084F83B3084F878
:101700005E5084F85D50037B20461943FFF73EFE90
:1017100029462046BDE83840FFF72EBF8C07FF1F43
:10172000082303730021FFF7E3BF00BF38B50C4661
:1017300041F004010546FFF7DBFF2823013BFDD103
:1017400004F0FB012846FFF7D3FF4FF4FA63013B97
:10175000FDD138BDF8B521F00F05154314460F46ED
:101760000646294644EA0714FFF7C2FFE4B22946B9
:101770003046FFF7DBFF21463046FFF7B9FF214631
:101780003046BDE8F840FFF7D1BF00BF08B50122E1
:10179000FFF7E0FF012008BD08B500220121FFF797
:1017A000D9FF024B013BFDD108BD00BF80380100CD
:1017B000F0B5104B144606460F460FCB85B0757A30
:1017C0000DF1100E0EE90F00A5423CBF05F1FF34EC
:1017D000E4B204AB03EB8404304654F8101C3944E3
:1017E00061F07F01C9B2002205B0BDE8F040FFF70B
:1017F000B1BF00BFE4B00000012A70B5044603D9B0
:10180000817941F00801817162720BB1012A5AD0CD
:10181000322000F0F1FD217B2D4D2046FFF768FFBF
:101820004FF47A7000F0E8FD20463021FFF760FFAA
:1018300030212046FFF77AFF2B46013BFDD13021B6
:101840002046FFF755FF20463021FFF76FFF013D8F
:10185000FDD130212046FFF74BFF20463021FFF716
:1018600065FF41F27073013BFDD120212046FFF757
:101870003FFF20462021FFF759FFA179154D204653
:1018800041F020010022FFF765FF0423E3712046A9
:1018900000220C21FFF75EFF204600220121FFF706
:1018A00059FF2B46013BFDD102262046267200221D
:1018B0000621FFF74FFF204631460022FFF74AFF7F
:1018C000013DFDD170BDA37943F00403A3719FE7EF
:1018D00020BF02008038010010B504460548FFF71C
:1018E00069FD0023A371E27AA17A2046BDE8104089
:1018F000FFF782BF8C07FF1FFFF7EEBF10B4002475
:10190000054A047083B012680192019A81604260B6
:1019100003B05DF8044B7047B01CFF1F10B41149B1
:1019200044680B68826883B00093009B1B1B934242
:1019300012D342B1037833B922444260012003B08C
:101940005DF8044B70470B680193019B43600120D5
:1019500003B05DF8044B7047002003B05DF8044B02
:10196000704700BFB01CFF1F034B82B01B68019380
:10197000019B436002B07047B01CFF1F704700BF5F
:10198000044A1368190644BF03F07F031360024B37
:101990001B681847009003406408FF1F0022C0F82E
:1019A0002021C0F82421C0F82821704700230171AC
:1019B000026080F81431A0F8163170472DE9F04F1D
:1019C000C3B002AD02792A70172907460E46697026
:1019D0003FD80122AD4B8A401340002B00F0EF802E
:1019E0000189C388EB700C121B124FF00808062007
:1019F000AB7069712C71C24603460721A44C144098
:101A000074B1B7F88A300AF102041A122A540AF1A2
:101A1000010240465FFA84F86B545346D1B2C24685
:101A2000721F122A00F21982DFE812F07A016C01AB
:101A300017021702170217021702170217021702DE
:101A40003801EE0017021702170217021702D00022
:101A5000EE004FF004094FF002084C46C2464FF02A
:101A6000030CAE4600204FF6FF735340082213F0DC
:101A7000010F4FEA53011ABF81F4204383F00103A1
:101A8000C3F34F03013AF2D10130C2B2924502D9F9
:101A90001EF8012FE9E7DAB2C3F30723002105F8A6
:101AA000082005F80C3005F80910386803685B69F0
:101AB00098470130F9D1D7F8243103B1984764B180
:101AC000013C55FA84F80DF10704386814F8011F39
:101AD00003681B6898474445F7D138680368DB689A
:101AE0009847D7F8283103B19847DFF8AC91D9F877
:101AF00000300093DDF800A04FF00008082416E045
:101B0000D7F8203103B19847B8F1050F25D0D9F89F
:101B100000300193019BCAEB0303B3F5FA6F8CBF4E
:101B2000E2200020002C00F0FE8000283BD1386825
:101B300003681B6998470028E2D0386803685A692F
:101B400008F101035FFA83FB904705F80800D846C7
:101B5000013CB8F1050FE4B2D9D12A783B79934220
:101B600040F050816B7803F07F01B14240F0488132
:101B7000190600F14981172BC9D8464A012101FAFB
:101B800003F31A403AB9414A1A40B2B913F4800F2C
:101B900018BF0524BBE70324B9E7295DDAB29142F7
:101BA00000F04B81E320002387F81431A7F81631A9
:101BB00087F81C3143B0BDE8F08FAC78A7E74FF051
:101BC00004080220C2460346032117E7B7F88E40F7
:101BD000B7F890E0DA1C4FEA242CD2B205F800C026
:101BE00003F1040A6C549C1D4FEA2E2105F80810DD
:101BF0005FFA8AFAE4B2053305F802E05FFA83FC83
:101C0000D046A1462A782CE7B7F88C205C1D4FEA15
:101C1000222E05F800E003F1030A5FFA82FEE4B227
:101C20005200043305F801E05FFA8AFA05F808204B
:101C3000A1465FFA83FCBEF1000F00F00C810AEBB5
:101C40004E085FFA88F807F18C00534630F8021FFF
:101C50005A1C4FEA212C9C1C05F803C0D2B2E3B2F7
:101C60004345A954F2D10AEB4E0A5FFA8AFA0AF107
:101C70000204E4B20AF1010CA1465FFA8CFCD046E2
:101C8000BAF1000FBED1FF231A4607E71E008000FD
:101C90006080C10060800100B01CFF1FB7F88C207D
:101CA00014122C546A5451071CBFD210013203F194
:101CB000030A03F1040C14BFD2B2C2F3C7025FFAE5
:101CC0008AFA5FFA8CFC05F80820002A00F0BE8032
:101CD0000020044620F001033B440AEB040EE40715
:101CE0004CBFB3F88E30B3F88E3000F101005FFACC
:101CF0008EFEC4B248BF1B12944205F80E30E9D3E1
:101D00009244B2E7B7F88E300AF102041A12E4B234
:101D10000AF1010C2A54A1466B545FFA8CFC71E75E
:101D2000B7F88C30F0E700287FF43DAFB8F1040F2E
:101D30004BD86B78172B46D801264B4C06FA03F389
:101D40001C40CCB1AB7853FA06F83CD000263446A0
:101D500006E0631C87F81D41DCB24445264632DAB2
:101D60003F2CF6D805EB460307EB46061979D878E1
:101D700002F02AFF7081ECE713F0060F23D095F8EC
:101D800002805FEA680953D03F2C26460BD8A31C7B
:101D900005EB430215F8130012F8011C02F014FFC2
:101DA00007EB44046081741CE4B2A14587F81D610F
:101DB000EADC18F0010F06D03F2C06F1020628D904
:101DC000F6B287F81D610020EDE62A78A8F102043A
:101DD0004FF6FF73002053400822DE074FEA5301FD
:101DE00046BF81F4204383F00103C3F34F03013A5C
:101DF000F3D10130C0B2A042BFF6CFAE2A5CEAE711
:101E0000E120D0E6E020CEE6A87803240028DFD049
:101E1000C9E602230322F6B213FB0423A146E95CC0
:101E2000002002F0D1FE07EB4909A9F80A00C8E733
:101E300018F0010FC7D00323F1E7A844C3F3072329
:101E400018F8012C9A427FF4ADAE72E70533DCB28C
:101E5000A146D046D6E6D046D4E6C14654468C4686
:101E600080469A46CEE600BF1800800010B40024D9
:101E7000A0F88A10A0F88C40A0F88E2006215DF80A
:101E8000044BFFF79BBD00BF844641EA000313F0FB
:101E900003036DD1403A41D351F8043B40F8043B71
:101EA00051F8043B40F8043B51F8043B40F8043B34
:101EB00051F8043B40F8043B51F8043B40F8043B24
:101EC00051F8043B40F8043B51F8043B40F8043B14
:101ED00051F8043B40F8043B51F8043B40F8043B04
:101EE00051F8043B40F8043B51F8043B40F8043BF4
:101EF00051F8043B40F8043B51F8043B40F8043BE4
:101F000051F8043B40F8043B51F8043B40F8043BD3
:101F100051F8043B40F8043B403ABDD2303211D373
:101F200051F8043B40F8043B51F8043B40F8043BB3
:101F300051F8043B40F8043B51F8043B40F8043BA3
:101F4000103AEDD20C3205D351F8043B40F8043B73
:101F5000043AF9D2043208D0D2071CBF11F8013B71
:101F600000F8013B01D30B8803806046704700BF37
:101F7000082A13D38B078DD010F003038AD0C3F146
:101F80000403D21ADB071CBF11F8013B00F8013B28
:101F900080D331F8023B20F8023B7BE7043AD9D3E7
:101FA000013A11F8013B00F8013BF9D20B780370BC
:101FB0004B7843708B78837060467047374A384956
:101FC00013681B06FCD40B6813F08003F8D172B6BB
:101FD00034490A78002A5FD0334A3448F0B4344C8C
:101FE000176806682568D4680C303E4414320068CF
:101FF0001268304F35442C4420440244C2F34E0250
:102000002D4E2E482E4D2F4C42F400423A60376838
:1020100006682D682C4A24680C303E44006812681B
:102020002A4F35442C4420440244C2F34E02284E29
:102030002848294D294C42F400423A603768066826
:102040002D68274A24680C303E4400681268254FEA
:1020500035442C4420440244C2F34E02224E23480D
:10206000234D244C42F400423A60376806682D68DC
:10207000214A24680C303E440068126835442C44E0
:1020800020440244C2F34E021C4842F40042026063
:102090000B7062B6F0BC704762B6704724B0034064
:1020A00024B00B40AB1CFF1F38B003403CB00340D2
:1020B00040B003402CB0034058B003405CB0034034
:1020C00060B0034064B003406CB0034030B00340E4
:1020D00038B00B403CB00B4040B00B4044B00B401C
:1020E0004CB00B402CB00B4058B00B405CB00B40D8
:1020F00060B00B4064B00B406CB00B4030B00B4094
:1021000030B42948294A2A4B2A4D6024E121047021
:1021100011701B78284C082B30D00A2B27482849EF
:1021200037D00C2B0CBF35225D2212232A6023608E
:1021300002600B60234B24491B78244ABBB1012366
:102140000B601360224B23491B78234A012B26D9AD
:10215000042B0FD9082B1ED9102B94BF862387235D
:102160000B6013601D4B01221A7030BC70470B606E
:102170001360E7E784230B601360F3E700F58E201C
:102180000F490830212213232A60236002600B606C
:10219000D0E73922F7E785230B601360E2E780235D
:1021A0000B601360DEE700BF0040074001400740BE
:1021B0006808FF1F08B003400CB0034008B00B4094
:1021C0000CB00B40AE1CFF1F20B0034020B00B40F2
:1021D0006908FF1F24B0034024B00B40AB1CFF1F55
:1021E00047282FD8334B2DE9F0411E5CFF2E2BD012
:1021F000314B1B78002B2AD132062CD472B62F4DCE
:102200002F4C2F46012326602B7062B672B62368CE
:102210001B060CD43B781BB9F4E72B78002BF1D0CC
:1022200062B602F0E1FD72B623681806F5D5254BBB
:102230001B6800222A7062B6234A107843FA00F025
:10224000BDE8F081002070470020BDE8F081FFF775
:10225000B5FE3206D2D572B61C4DDFF87C801C4C20
:1022600006F04007FFB206F03F06D8F80030DFB1B5
:1022700023F01003C8F8003001232660134A2B70A6
:1022800062B672B6236819060CD413781BB9ECE752
:102290002B78002BE9D062B602F0A6FD72B6236857
:1022A0001B06F5D50B4BC3E743F01003C8F800300D
:1022B000E2E700BFF4B00000AB1CFF1FAD1CFF1F26
:1022C00000B0034010B00340AA1CFF1FAC1CFF1F4E
:1022D00000B00B4010B00B400CB00B4010B4114BD1
:1022E00053F8302092F8804234B1012379B182F85A
:1022F00080305DF8044B704703EBC0035B681A68DD
:1023000051B922F002021A605DF8044B704782F85E
:1023100000315DF8044B704742F003021A605DF82B
:10232000044B70473CB100001C4A02EBC00301297A
:102330005B6811D004291BD052F83000002280F8CD
:10234000802229B1022920D0032922D01A607047A7
:102350004FF480721A60704752F830004FF4A27246
:1023600080F880121A601A6822F020021A60704702
:1023700052F830104FF4A272012081F880021A60E6
:102380001A6842F020021A60704740F203121A6085
:1023900070474FF481721A60704700BF3CB1000073
:1023A00030B4054B054D064C002210211A602A60FE
:1023B0002060196030BC704714D0034004D0034043
:1023C00000D003403F2801D8FFF788BF704700BF07
:1023D0003F2806D8044B53F8303093F80002C0B2BF
:1023E00070470020704700BF3CB100003F2801D873
:1023F000FFF79ABF704700BF2DE9F843054672B654
:10240000204F214B214A1B683C68126862B652017A
:1024100002D5322B88BF013495B3C3F5EA331C4E85
:10242000DFF86490DFF86480BF334FF47A72A6FB64
:10243000031302FB04F404EB931472B6D9F80010F2
:102440003A68D8F800E062B6C1F5EA33BF33A6FBBC
:1024500003031EF0806FC4EB93134FF47A7002D025
:10246000322988BF013200FB0233B3F57A7F04D3EF
:10247000013D05D004F57A74DFE702F0B5FCDCE736
:10248000BDE8F883B01CFF1F18E000E004ED00E099
:1024900089888888F8B53E4B3E49DFF818C13E4E22
:1024A0003E4ADFF814E13E4D3E4C3F4F4FF0006096
:1024B00018604FF0805018604FF0005018604FF0D7
:1024C000804018604FF0004018600020086028230A
:1024D0004EF6FF71CCF80010CEF8003033600EF5E8
:1024E000012E13602B60236005F500253B6004F589
:1024F0000024B36207F50027936206F5012602F572
:1025000001220EF1100E05F6E87504F6E87407F5E1
:102510007F67103220362B602360CEF800303B609E
:1025200013603360214EBB61936109223260A7F5CD
:10253000002706F58056203F083638603160BB60C2
:10254000F36047F8042C06F5FD2607F5FE2706F292
:10255000FC76043730603960B360FB6046F8042CC9
:102560000836C7F8FC0F06F6FC76114831602B6080
:1025700023600260FFF7C4FD3220FFF73DFF01F04A
:1025800017FF4FF4AF70BDE8F840FFF735BF00BF4D
:1025900004E100E004800340148003401C800340F9
:1025A000248003402C80034034800340008003409B
:1025B00000900B40088003400C8003402DE9F84F49
:1025C000214B1B6807460BB101221A70DFF8889077
:1025D0001E4D99F80040DFF884801D4E01343F2CD9
:1025E0008ABF4FF0000A5FFA84FA5446AB462B7854
:1025F000A34216D102F0A0FC40281FDC33791B0651
:10260000F5D59BF8003001333F2B86BF00221346DF
:10261000DAB218F80330DBB2F3712A702B78A342D8
:10262000E8D00C490A4BFFB208F804700120BC2224
:10263000087089F800A0DA70BDE8F88FFF28D6DDB1
:1026400002F0D2FBD3E700BF441DFF1F411DFF1F57
:1026500000A00640401DFF1F481DFF1FBC1CFF1FA0
:102660002E4A2F491368F0B543F4806313600A784B
:102670002C4F2D4E2D4D2E4C2E490023152A3B70EC
:1026800033702B7023700B7043D01B2A3CD04AB39D
:10269000294B1B78052B2DD01A2B30D0012B1CD0A9
:1026A000264B274C2749C0F34436C0F347151E700C
:1026B00000F01F005D7004224FF0020E88273C26B8
:1026C000402598729A704FF0004083F813E05A75D5
:1026D0001F74DE7025700860F0BD1B4B4FF4517203
:1026E0001A60DDE7194B40F213321A60124B1B7867
:1026F000052BD1D1164B4FF451721A60D0E7154B10
:102700004FF451721A60CBE7134B40F213321A6048
:10271000BEE7124B40F213321A60B9E7348004402E
:10272000FC1CFF1FB81CFF1FB91CFF1F481DFF1F0B
:10273000411DFF1F401DFF1F6A08FF1F00A006402C
:102740001FE400E000E100E044A0044040A0044099
:102750001CC00440389004403C90044018C0044021
:10276000194B19499B7803F0EC0200F00303134363
:10277000420700F00F0248BF43F01003042A8B7099
:102780001CD0114B104A5B79C10603F0EF0348BF20
:1027900043F0100353719379820603F0EF030A4A62
:1027A00048BF43F010039371C30506D553781178E1
:1027B000DBB241F020011170537070478B7943F008
:1027C00040038B71DDE700BF00A00640284B1B686B
:1027D0005B0533D510B5274C237823B102F004FBF9
:1027E0002378002BFAD12448244A254B4FF000448B
:1027F00000210460D1701B78152B20D01B2B32D008
:102800001BB9204B40F203121A601F4B1B7803F0D8
:102810007F03052B1DD01A2B20D0012B03D11B4B7E
:1028200040F203121A601A4B1A481B491A68002317
:1028300003700B700AB10123137010BD7047174B62
:1028400040F203121A60104B1B7803F07F03052B34
:10285000E1D1134B40F203121A60E4E7114B40F24E
:1028600003121A60DFE7104B40F203121A60CCE744
:1028700034800440401DFF1F80E100E000A00640BE
:10288000FC1CFF1F40A004406A08FF1F44A0044036
:10289000B41CFF1FB81CFF1FB91CFF1F18C0044049
:1028A0001CC00440389004403C9004400A4A38B5AB
:1028B0000546137803F0FF04002BFAD101212846C6
:1028C000FFF794FD21462846FFF77CFD034A044BA1
:1028D00052F835201A6038BD401DFF1F3CB1000082
:1028E000441DFF1F09B140F080001E4A1378984232
:1028F0001BD010B41C4C2468640513D503F07F036F
:10290000052B2AD01A2B24D0012B14D0002900F03B
:102910007F0114BF60234423052915D01A290ED046
:10292000012903D010705DF8044B70470F4943F440
:1029300040730B60F6E70D4B00241C60E6E70C4982
:1029400043F440730B60EDE70A4943F440730B60B6
:10295000E8E7074B00241C60D8E7064B00241C6006
:10296000D4E700BF6A08FF1F3480044044A004403D
:10297000389004401CC00440174A137883420ED09C
:1029800016490968490509D5152B20D01B2B1AD0EB
:102990005BB115280DD01B2810D008B110707047FE
:1029A0000F4B40F213311960F8E70D4915280B6001
:1029B000F1D10C4B40F213311960EFE70A4B40F2B2
:1029C00013311960EAE7084B00211960E1E7054B74
:1029D00000211960DDE700BFFC1CFF1F34800440AC
:1029E00040A0044018C004403C9004400D4B1B68BC
:1029F00013F4806305D03F2805D90B4B00201860E5
:102A0000704718467047094B10B5074C53F83030E3
:102A100023600121FFF7EAFC236800221A700120DD
:102A200010BD00BF34800440B41CFF1F3CB1000047
:102A30000F4B1B6813F4806308D0122808D01428A9
:102A400011D00C4A537B03F0FE03537300207047F0
:102A5000094B40F202321A60064A537B43F00103ED
:102A6000537301207047054B40F202321A60F3E7BE
:102A70003480044000A006400CA0044014C0044070
:102A8000034B1B685B0501D5FFF798BD704700BF7E
:102A9000348004402DE9F84F294B1B685A0548D56E
:102AA000284B1B6805460BB101221A7005EB010A81
:102AB000554540D2DFF89C80234CDFF89C90234F93
:102AC0000AE015F8012B09F80B20214A0123AA4539
:102AD000137088F800602ED098F80030227803F147
:102AE000010BBBF13F0F86BF0026B3465FFA8BF6A2
:102AF0009345E6D1BC22FA7005E03A7913060BD46F
:102B000022789345DDD102F017FA4028F5DDFF2841
:102B1000F6DD02F069F9F3E7227801323F2A86BF39
:102B200000210A46D1B219F80220D2B2FA712170FE
:102B3000E6E7BDE8F88F054BBC22DA70BDE8F88FF8
:102B400034800440441DFF1F411DFF1F00A00640AC
:102B5000401DFF1F481DFF1FBC1CFF1F10B5044C6C
:102B6000237823B102F040F92378002BFAD110BD6D
:102B7000401DFF1F064A074B1B781078DBB2C0B21E
:102B800083422CBF3F3000F1FF30C01A704700BFB6
:102B9000411DFF1F481DFF1F054A064B10781B787B
:102BA000C0B2DBB2984238BF4030C01A704700BF95
:102BB000B81CFF1FB91CFF1F30B4154B154C1A78F9
:102BC0002378D2B2DBB29A421ED001333F2B0ED90A
:102BD0001149124B087819680023C0B2237021B143
:102BE000D31A1A2B01DC00230B7030BC70470A4843
:102BF0000A49C05C0968DDB2C0B225700029F4D072
:102C00009A4238BF4032EBE74FF0FF30EDE700BFAC
:102C1000B81CFF1FB91CFF1F001DFF1FB41CFF1FA6
:102C2000084A094B12781B78DBB29A4207D001336D
:102C3000402B28BF0023054AD05CC0B270474FF03C
:102C4000FF307047B81CFF1FB91CFF1F001DFF1F7E
:102C50000D4B1B685B0516D530B40C4B0C4CDA7869
:102C60000C480D4902F0CB024025DA705D74DA7829
:102C700042F03402DA7023780268DBB20B700AB1DA
:102C80000023137030BC70473480044000A006401D
:102C9000B91CFF1FB41CFF1FB81CFF1FF0B4384B3A
:102CA0001A7912F0300F2CD072B6997D01F0FF0224
:102CB00000293DD062B6334F334938780D78334E12
:102CC0001C46C0B2EDB2431C402BE17928BF002363
:102CD000AB4202F1FF32C9B21CBFF154184612F0E8
:102CE000FF02F0D12A4B1B68C2B23A704BB1A84226
:102CF00036BFC5F14005401B40192728C4BF01223B
:102D00001A701F49CA78D2B2150616D452060DD5CC
:102D10001B4B1B795B0609D51E4B1F491B68002204
:102D20000A7003B11A70164B3C22DA70F0BC70477F
:102D30004022D9795A7462B6E3E70B791C06E5D5CF
:102D4000164B174E1C783378E4B2DBB29C420ED09F
:102D5000144D01E0A3420AD00133402B28BF0023C9
:102D60000879E85CC0B2C871087D0728F2D9DBB2E7
:102D7000034933700B79180644BF7C23CB70C5E739
:102D800000A00640B81CFF1FB91CFF1F001DFF1F3D
:102D9000B41CFF1F441DFF1F401DFF1F481DFF1FC8
:102DA000411DFF1FBC1CFF1F264A27491368F0B4B2
:102DB00043F4006313600A78244F254E254D264CBA
:102DC00026490023092A3B7033702B7023700B7047
:102DD00032D03B2A23D0224B1B780A2B27D03A2B08
:102DE00003D1204B4FF451721A601F4B1F4D204CE2
:102DF000C0F34437C0F3471600F01F001F700421D2
:102E00005E700222987288273C2640209970DA74FE
:102E100059751F74DE7028702260F0BC7047154B26
:102E200040F213321A600E4B1B780A2BD7D1124B8B
:102E30004FF451721A60D8E7104B40F213321A6007
:102E4000C9E700BF348004406B08FF1FBC1DFF1F93
:102E5000511DFF1FC41DFF1FBD1DFF1F501DFF1F64
:102E60006C08FF1F00D0044000B0064021E400E0E1
:102E700004E100E004D0044010B004400CB0044071
:102E8000194B19499B7803F0EC0200F0030313433C
:102E9000420700F00F0248BF43F01003042A8B7072
:102EA0001CD0114B104A5B79C10603F0EF0348BFF9
:102EB00043F0100353719379820603F0EF030A4A3B
:102EC00048BF43F010039371C30506D553781178BA
:102ED000DBB241F020011170537070478B7943F0E1
:102EE00040038B71DDE700BF00B00640204B1B683C
:102EF0001B053BD510B51F4C237823B101F074FF9F
:102F00002378002BFAD11C481C491D4B02240022B7
:102F10000460CA701B78092B19D03B2B01D1194BC7
:102F20001A60194B1B7803F07F030A2B19D03A2B38
:102F300002D1164B00221A60154B164816491A6822
:102F4000002303700B700AB10123137010BD134BE3
:102F500040F203121A600C4B1B7803F07F030A2B1C
:102F6000E5D10F4B40F203121A60E5E7704700BF4E
:102F700034800440501DFF1F84E100E000B0064093
:102F80006B08FF1F04D004406C08FF1F00D00440F2
:102F90004C1DFF1FBC1DFF1F511DFF1F0CB0044027
:102FA00010B004400A4A38B50546137803F0FF0410
:102FB000002BFAD101212846FFF718FA21462846AE
:102FC000FFF700FA034A044B52F835201A6038BD67
:102FD000501DFF1F3CB10000C01DFF1F09B140F094
:102FE0008000174A1378984217D010B4154C246803
:102FF00024050FD503F07F030A2B1DD03A2B12D0E6
:10300000002900F07F0114BF602344230A290ED059
:103010003A2903D010705DF8044B70470A4943F415
:1030200040730B60F6E7084B00241C60E8E7074993
:1030300043F440730B60EDE7044B00241C60DFE7B2
:103040006C08FF1F3480044000D0044010B00440DE
:10305000124B1A7882420CD011490968090507D52C
:10306000092A16D03B2A0AD009280DD03B2801D0C6
:10307000187070470B4A40F213311160F8E7094AA3
:10308000002109281160F1D1074A40F21331116083
:10309000EEE7054A00211160E6E700BF6B08FF1F5D
:1030A0003480044004D004400CB004400D4B1B6835
:1030B00013F4006305D03F2805D90B4B002018609E
:1030C000704718467047094B10B5074C53F830301D
:1030D00023600121FFF78AF9236800221A7001207A
:1030E00010BD00BF348004404C1DFF1F3CB10000E8
:1030F0000F4B1B6813F4006308D0172808D03C2836
:1031000011D00C4A537B03F0FE0353730020704729
:10311000094B40F202321A60064A537B43F0010326
:10312000537301207047054B40F202321A60F3E7F7
:103130003480044000B0064008B0044008D0044089
:103140002DE9F84F234B1B681A053BD5224B1B6812
:103150000BB101221A70DFF89090204D99F80040D1
:10316000DFF888801E4E0134272C8ABF4FF0000AFA
:103170005FFA84FA54460746AB462B789C4216D138
:1031800001F0DAFE40281FDC33791B06F5D59BF8E9
:1031900000300133272B86BF00221346DAB218F81D
:1031A0000330DBB2F3712A702B789C42E8D00D49D2
:1031B0000B4BFFB20120BC2208F80470087089F89C
:1031C00000A0DA70BDE8F88FFF28D6DD01F00CFE14
:1031D000D3E700BF34800440C01DFF1FBD1DFF1F8B
:1031E00000B00640501DFF1FC41DFF1F541DFF1FD0
:1031F0002DE9F84F294B1B681A0548D5284B1B6849
:1032000005460BB101221A7005EB010A554540D263
:10321000DFF89C80234CDFF89C90234F0AE015F8E0
:10322000012B09F80B20214A0123AA45137088F8C5
:1032300000602ED098F80030227803F1010BBBF12A
:10324000270F86BF0026B3465FFA8BF69345E6D17B
:10325000BC22FA7005E03A7913060BD42278934524
:10326000DDD101F069FE4028F5DDFF28F6DD01F033
:10327000BBFDF3E722780132272A86BF00210A46E8
:10328000D1B219F80220D2B2FA712170E6E7BDE896
:10329000F88F054BBC22DA70BDE8F88F348004400B
:1032A000C01DFF1FBD1DFF1F00B00640501DFF1FAA
:1032B000C41DFF1F541DFF1F10B5044C237823B1FC
:1032C00001F092FD2378002BFAD110BD501DFF1F95
:1032D000064A074B1B781078DBB2C0B283422CBF82
:1032E000273000F1FF30C01A704700BFBD1DFF1F1F
:1032F000C41DFF1F054A064B10781B78C0B2DBB215
:10330000984238BF4030C01A704700BFBC1DFF1F35
:10331000511DFF1F30B4154B154C1A782378D2B2CB
:10332000DBB29A421ED001333F2B0ED91149124B0A
:10333000087819680023C0B2237021B1D31A1A2B60
:1033400001DC00230B7030BC70470A480A49C05C9E
:103350000968DDB2C0B225700029F4D09A4238BFA6
:103360004032EBE74FF0FF30EDE700BFBC1DFF1F21
:10337000511DFF1F7C1DFF1F4C1DFF1F084A094BDD
:1033800012781B78DBB29A4207D00133402B28BF5A
:103390000023054AD05CC0B270474FF0FF30704741
:1033A000BC1DFF1F511DFF1F7C1DFF1F0D4B1B6808
:1033B0001B0516D530B40C4B0C4CDA780C480D4973
:1033C00002F0CB024025DA705D74DA7842F0340204
:1033D000DA7023780268DBB20B700AB10023137035
:1033E00030BC70473480044000B00640511DFF1FC0
:1033F0004C1DFF1FBC1DFF1FF0B4384B1A7912F093
:10340000300F2CD072B6997D01F0FF0200293DD01B
:1034100062B6334F334938780D78334E1C46C0B20C
:10342000EDB2431C402BE17928BF0023AB4202F1EF
:10343000FF32C9B21CBFF154184612F0FF02F0D19E
:103440002A4B1B68C2B23A704BB1A84236BFC5F1D5
:103450004005401B40192728C4BF01221A701F498C
:10346000CA78D2B2150616D452060DD51B4B1B795D
:103470005B0609D51E4B1F491B6800220A7003B169
:103480001A70164B3C22DA70F0BC70474022D97992
:103490005A7462B6E3E70B791C06E5D5164B174E56
:1034A0001C783378E4B2DBB29C420ED0144D01E0BC
:1034B000A3420AD00133282B28BF00230879E85CF7
:1034C000C0B2C871087D0728F2D9DBB20349337056
:1034D0000B79180644BF7C23CB70C5E700B00640CB
:1034E000BC1DFF1F511DFF1F7C1DFF1F4C1DFF1F1B
:1034F000C01DFF1F501DFF1FC41DFF1FBD1DFF1F4F
:10350000541DFF1F2DE9F84F214B1B6807460BB1D7
:1035100001221A70DFF888901E4D99F80040DFF8FC
:1035200084801D4E0134272C8ABF4FF0000A5FFAB9
:1035300084FA5446AB462B78A34216D101F0FCFC2A
:1035400040281FDC33791B06F5D59BF8003001338A
:10355000272B86BF00221346DAB218F80330DBB2FD
:10356000F3712A702B78A342E8D00C490A4BFFB2C2
:1035700008F804700120AC22087089F800A0DA7005
:10358000BDE8F88FFF28D6DD01F02EFCD3E700BFA1
:103590003C1EFF1F391EFF1F00C00640381EFF1FC4
:1035A000401EFF1FD01DFF1F174A18491368F0B5B2
:1035B00043F48053164C174D174FDFF874E0136037
:1035C000164E174A002323708EF80030154C2B70CE
:1035D0000B703B7040F213373760134D1349C0F343
:1035E00044364FF4517727601670C0F347142C27E8
:1035F00000F01F00402654709072082493701374DA
:10360000D7702E700C60F0BD34800440391EFF1F4F
:10361000CC1DFF1F401EFF1F381EFF1F08C00440A7
:1036200000C006400CC0044023E400E004E100E0D8
:10363000CD1DFF1F194B19499B7803F0EC0200F0D8
:1036400003031343420700F00F0248BF43F0100387
:10365000042A8B701CD0114B104A5B79C10603F011
:10366000EF0348BF43F0100353719379820603F0D0
:10367000EF030A4A48BF43F010039371C30506D510
:1036800053781178DBB241F020011170537070470C
:103690008B7943F040038B71DDE700BF00C006402B
:1036A000F8B5114B1B68DB041CD5104C237823B1F3
:1036B00001F09AFB2378002BFAD10D4B0D4F0E4EE3
:1036C0000E4D0F4C0F48104908221A600023FB7062
:1036D00040F2031232602A60226803700B7012B14C
:1036E00001231370F8BDF8BD34800440381EFF1F5D
:1036F00084E100E000C0064008C004400CC0044063
:10370000C81DFF1FCC1DFF1FCD1DFF1F0A4A38B566
:103710000546137803F0FF04002BFAD10121284657
:10372000FEF764FE21462846FEF74CFE034A044B92
:1037300052F835201A6038BD381EFF1F3CB100001A
:103740003C1EFF1F09B140F08000104A13789842D8
:103750001AD010B40E4C2468E40412D503F07F0391
:10376000082B02D10B4B00241C60002900F07F03C2
:1037700014BF60214421082B03D1064B41F4407152
:10378000196010705DF8044B704700BF6D08FF1F93
:10379000348004400CC00440704700BF0D4B1B68D0
:1037A00013F4805305D03F2805D90B4B0020186037
:1037B000704718467047094B10B5074C53F8303026
:1037C00023600121FEF712FE236800221A700120F7
:1037D00010BD00BF34800440C81DFF1F3CB1000075
:1037E0000C4B1B6813F4805306D00E2806D00A4AEF
:1037F000537B03F0FE03537300207047074B064AC8
:1038000040F202311960537B43F0010353730120EE
:10381000704700BF3480044000C0064004C004402C
:10382000034B1B68DB0401D5FFF76CBE704700BF7C
:103830003480044070B5094E04464518AC4204F18A
:1038400001040AD03368DB04F8D514F8010CFFF743
:1038500059FEAC4204F10104F4D170BD348004403F
:1038600010B5044C237823B101F0BEFA2378002B65
:10387000FAD110BD381EFF1F064A074B1B7810787F
:10388000DBB2C0B283422CBF273000F1FF30C01A38
:10389000704700BF391EFF1F401EFF1F054A064B21
:1038A00010781B78C0B2DBB2984238BF4030C01AE3
:1038B000704700BFCC1DFF1FCD1DFF1F30B4154B3F
:1038C000154C1A782378D2B2DBB29A421ED001335B
:1038D0003F2B0ED91149124B087819680023C0B24A
:1038E000237021B1D31A1A2B01DC00230B7030BCDA
:1038F00070470A480A49C05C0968DDB2C0B2257049
:103900000029F4D09A4238BF4032EBE74FF0FF3045
:10391000EDE700BFCC1DFF1FCD1DFF1FF81DFF1FD2
:10392000C81DFF1F084A094B12781B78DBB29A4268
:1039300007D00133402B28BF0023054AD05CC0B21A
:1039400070474FF0FF307047CC1DFF1FCD1DFF1F8C
:10395000F81DFF1F054B064A1B7806491268DBB2AB
:103960000B700AB100231370704700BFCD1DFF1FFD
:10397000C81DFF1FCC1DFF1F30B42B4B1A799406B6
:103980001FD52A48DA790378294901333F2B097872
:10399000C8BF00238B42D2B203D0264CD9B2E25426
:1039A0000170254A116861B1244A1278D2B293425B
:1039B00036BFC2F140029B1A9B18272BC4BF0123BC
:1039C0000B70194AD378DBB2180611D45A060DD5FC
:1039D000154B1B795B0609D5194B1A491B68002248
:1039E0000A7003B11A70104B2C22DA7030BC704789
:1039F00011790906EAD5144910480C780178C9B242
:103A00008C420DD04A1C272A84BF00210A460F4D44
:103A1000054C98BFD1B2AA5CD2B2E2710170D5E771
:103A20006C21D170D2E700BF00C00640CC1DFF1F43
:103A3000CD1DFF1FF81DFF1FC81DFF1F391EFF1FD3
:103A40003C1EFF1F381EFF1F401EFF1FD01DFF1F03
:103A5000F0B472B61A491B4E012311F8014B194FED
:103A60009A00240742F0010505D556F8324064B1AA
:103A700056F83520BAB10133052BEED162B6124BA0
:103A800000221A70F0BC00F017BD0F4C0F4D2178CA
:103A900047F8325007EB431308304A1E5860227033
:103AA00062B6F0BC70470849094B0A7847F83530D0
:103AB00007EBC5030830013A58600A7062B6F0E7B8
:103AC00070B400000000FF1F191FFF1F8800400096
:103AD000C8004000431E032B1DD81B4A400140F084
:103AE000100030B4104472B6184CE25C032A1BD8A4
:103AF000DFE802F00212151703220D88E25410F0DD
:103B0000080F14BFC823882343EA05430831036024
:103B1000416062B630BC704708300222EDE70522F2
:103B2000EBE708300422E8E7094A52F8230038B1ED
:103B3000084A52F82300416042F8231062B6E9E7D0
:103B400042F82310034AF7E70000FF1F281FFF1F5A
:103B5000F01EFF1F001FFF1F2DE9F04FDFF804A329
:103B6000DFF804B387B044E0A94F4FEA930807EBAE
:103B7000C809013ED9F8042003F00803F6B2A2F107
:103B8000080003F0FF04002B40F0FE8057F83830A7
:103B90001B0C99B222F8081C002B00F0EC809D4B06
:103BA00022F8064C42F8044C53F82620002A00F074
:103BB0002B82994D55F826305860984C45F82600D0
:103BC00034F81630194424F8161000F055FC00287B
:103BD00000F01382924A934B19F0080F00F108008D
:103BE00018BF1346C9F8040047F8383008238AF88C
:103BF00000309AF80040E4B260071AD58A4B1B786F
:103C0000A3B18A490A7802F0FF0322B1013BDBB27B
:103C10000B7003B900BE86490A7802F0FF032AB18F
:103C2000013BDBB20B70002B00F0BD8104238AF84E
:103C3000003004F0080303F0FF02002B00F0C880FE
:103C40009BF80030DBB21E098ED19C08704F57F8EC
:103C5000342007EBC401C2F38302013A49680C2AFD
:103C600000F28580DFE802F07979838383838383A0
:103C700042838383070008686E4B6F4D0193684B46
:103C80004A686E4E47F8343081B240F28164694B25
:103C90006A60286000220120A1421A603A61BA617C
:103CA000307000F2E380B1F5D06F80F02782B1F57B
:103CB000817F00F0E08100F2C381802900F036822C
:103CC000822940F0DE81A9885D4B01F07F01042943
:103CD00000F2D8815B4C89000B44227062701A7824
:103CE000930740F122832070022023E2514B01937D
:103CF0001A683AB3544B514E5449188834780D78A9
:103D00004028864645F0020828BF4FF0400E002CA0
:103D100084F001043470CEEB00000CBF8824C8246A
:103D200007EBC80680B285F0010544EA0E447260D4
:103D3000188047F8384072440D70002800F0B780B2
:103D4000019B1A603C4B1A88B2F5A06F0FD100217D
:103D50009A7859703E4B1A7009E0374A108842F23F
:103D60002102904200F0A8802D4A47F83420394AB9
:103D7000012313703AE72A4A2A4B19F0080F18BF9B
:103D8000134647F8383031E700F096FB324A3349A2
:103D900052F82630002B00F03B8158688C5D42F8C9
:103DA000260003F10802C9F80420032C05D8DFE837
:103DB00004F02C02292602228A551A8819F0080FCD
:103DC0000CBF8823C82343EA024347F838300DE785
:103DD000E00700F1EB80210600F12881A20706D55B
:103DE0001F4A204913780220DBB213700870E306E3
:103DF00002D51C4B10221A7007B0BDE8F08F0422C8
:103E00008A55DAE705228A55D7E703228A55D4E78F
:103E10000000FF1F9C1EFF1F481EFF1F0021FF1FE9
:103E2000C800400088004000241FFF1FAD1EFF1F78
:103E30002C1FFF1F441EFF1F101FFF1FAC1EFF1F64
:103E4000C02007401C1FFF1F581EFF1F181FFF1F09
:103E50009820074094200740F01EFF1F281FFF1FD7
:103E600088200740802007409020074042F221042C
:103E7000A14200F0948043D8B1F5086F00F0A8810A
:103E8000B1F5106F40F0FD80B84AB94CA9781170B7
:103E900004F1800503E00834AC4200F09E81236AFF
:103EA0001906F8D5606A083800F006FBF3E7BEF1A2
:103EB000400F18BF002243E7AE4ACD1D11F8013B69
:103EC00002F8013FA942F9D1AB4A1268862A00F0F4
:103ED0001181AA49AA4E0A78307882F0010500289B
:103EE00042F002020D700CBF8821C82147F8321041
:103EF00007EBC20280F0010000213070516033E70F
:103F000042F22124A14240F0FE81DFF8BCC29D4B69
:103F10009D49AC78DCF800501D6081460C70002093
:103F2000029080468446044694490D7845F0020E7E
:103F300007EBCE03B9F1000F5C600CBF8824C824E6
:103F400044EA080385F0010447F83E3032700C70F3
:103F5000DFF81CE28A4BDFF82482002840F09880CA
:103F6000BCF1400F1BD144F0020407EBC403029FD5
:103F7000DFF8FCE15F60002A40F09F80020442F01D
:103F8000880207444EF8342086F800900D703B46B6
:103F9000402804D100207D4A019910800B607C4AA2
:103FA00001231370E3E600F0BBFA3FE6704B78485C
:103FB00072491A614FF0020E80F800E0754F0A70E6
:103FC000754919609960754E754D764C9A610D2151
:103FD0003970FF213170DFF8F4E129702270724DE1
:103FE000724A8EF800109F27012406F8047C5D6059
:103FF0000470DA6007B0BDE8F08F6D4A47F838000A
:10400000137801331370F1E543F82600694DD4E5C8
:104010008B5D032B67D801A252F823F0ED3B000023
:10402000ED3B0000714000006B40000059495C4BC3
:1040300080220D2008701A70A2077FF5D8AECFE657
:1040400040F20232914240F05681A98801F07F018E
:10405000042916D86A88A2B94E4C89000C448146BE
:10406000217841F00201217059E701238B55BDE50C
:1040700000238B55BAE5A98801F07F01042940F29D
:104080004781444B0F221A70414A012313706EE698
:1040900040287FF668AF44F002040EEBC401029E94
:1040A0004E60AAB1444A83F800903346403888F8FD
:1040B000005040334EF834206DE70204029B86F82E
:1040C000009042F0C8020D7003444EF834205FE7C0
:1040D00083F80090029B304A88F800504038403303
:1040E0004EF8342057E719F0080F0CBF02230323C2
:1040F0008B557BE5314A0F211170EAE6304A54684E
:10410000002CBED06888B5F804E003E00C32546897
:10411000002CB6D013888342F8D153887345F5D16B
:10412000000A03280CBF2078108903E0254C0220E8
:1041300022706270EA88824280F00C810F490D780B
:10414000402A45F0020E944607EBCE0028BF4FF000
:10415000400C04EB0C0344600293CCEB02004FEAEA
:104160000C484FF001090022C824E9E6241FFF1F74
:104170000000FF1F0721FF1F0821FF1F181FFF1F3F
:10418000AC1EFF1F1021FF1F381FFF1F581EFF1FEF
:1041900094200740C0200740880040008820074046
:1041A00080200740982007405C1EFF1FB01EFF1FA5
:1041B000191FFF1F481EFF1FC8004000AD1EFF1F34
:1041C00074B400001C1FFF1FB01CFF1F8C20074091
:1041D000684A694C12782270ACE76849684B694AB2
:1041E00002916949694C6A4D039405964FF00009A4
:1041F00088461C4616460495206828B1456800F09C
:104200005BF92846002DF9D100232360049B306818
:104210001A46002342F8293028B1456800F04CF9CD
:104220002846002DF9D100223260029A98F8003019
:104230001146002241F8042B039A0291023B4FF0F1
:10424000000122F81910032B07D8DFE803F034022D
:1042500034024FF0010388F8003009F10109B9F187
:10426000040F04F1040406F1040608F10108C3D1A7
:10427000484B059EDFF83091DFF83081002119703E
:10428000012518F8013B09F8043B1A0718D4AC00C3
:1042900044F0020244F00304002347F8323047F8A8
:1042A00034303D4B994505F10105EAD196F800906F
:1042B00089F0010233E64FF0000388F80030CCE7C4
:1042C00000F0DAF8AC0007EB451300F10802002813
:1042D00037D05A60314B47F8343000F0CDF844F015
:1042E000010307EBC30200F1080100B351602C4A3F
:1042F00047F83320CCE7B1F5A06F7FF4C2AE0022BF
:104300004FF001090BE642F221329142F7D0B8E6B4
:104310006A88002A7FF4B5AE224C89000C4481469D
:10432000217821F002012170F9E5022002E7194B02
:1043300044F001021B7847F83200164A013313702B
:10434000A6E7144B134A1B78AC00013347F834003E
:104350001370C2E74028844628BF4FF0400C04EB9E
:104360000C03CCEB00004FEA0C48029300224FF004
:104370000109D9E5241FFF1F1C1FFF1F001FFF1F7E
:104380009C1EFF1FF01EFF1F281FFF1F0021FF1F85
:10439000481EFF1F191FFF1FD42007408800400040
:1043A000C8004000C0200740C420074070B400008F
:1043B0002DE9F843244C01F033F9002204F1880080
:1043C00023461A605A60083383424FF00001F8D147
:1043D0001E481F4A0368DFF890E01E4F1E4D1F4E17
:1043E000DFF88880DFF888C0DFF8889043F4802306
:1043F000036013681A4843F040731360C4F3072343
:104400008EF80030C4F307433B70240EFF2302F5FF
:10441000C9222C7002F5847288F80030114D8CF896
:1044200000303370012389F8003070268EF8641054
:104430004FF40014102107F82C3C2E70046011700A
:104440000EF1640EBDE8F8830000FF1F34800440C5
:1044500000D80040B0200740B4200740102007409B
:1044600004E100E035E400E09C20074080200740A4
:10447000882007409420074072B60D480268B2FABF
:1044800082F30B2B10DC4FF00041D94022EA0102ED
:10449000026062B6074803EBC303DB00C2180021C9
:1044A000C15010465160704762B60020704700BF8F
:1044B0007008FF1F9803FF1F0D4B0E4AC31AA2FB83
:1044C00003231B090B2B0CD80B4A127852B972B676
:1044D0000A484FF00041026821FA03F31A430260D0
:1044E00062B67047064A1278002AF0D0FFF7B0BAD9
:1044F0009803FF1F398EE338191FFF1F7008FF1F35
:10450000241FFF1F044B054A1B6890881BB11A88A3
:104510005B88D31A18447047341FFF1F0021FF1F08
:1045200038B50E4B1B7873B90D4C216861B103F09F
:10453000FF054B880B800420FFF7CCFA256038BDBF
:10454000084B01221A7038BDFFF796FF0028F7D0FC
:104550000146BDE838400420FFF7BCBA2D1FFF1FFD
:10456000301FFF1F2C1FFF1F0368C9B21B681847AD
:104570000368C9B21B6818470368C9B21B681847AB
:104580000368C9B21B68184708B50846FEF778FAF1
:10459000012008BD08B50846FEF772FA012008BDE3
:1045A00038B508460D4602F02BFD04460146284664
:1045B000FEF770FA204638BD10B50846144611467D
:1045C000FEF768FA204610BDFEF742BB08B5084664
:1045D000FEF72EFA003018BF012008BD08B50846C6
:1045E000FEF704FA003018BF012008BD0846114646
:1045F000FEF778B90846FEF7BFB900BF0846FEF7D8
:1046000055B900BFFEF7E2B8034B03EB5100B0FB16
:10461000F1F0FEF725B800BF001C4E0E10B5064B9A
:10462000144603EB5100B0FBF1F0FEF719F82046F9
:10463000BDE81040FEF794B8001C4E0EFEF7F0BA2D
:10464000FEF7BABAFEF7A8BAFEF788BAFEF792BA32
:10465000704700BF08B50846FEF772FD012008BD8F
:1046600008B50846FEF76CFD012008BD38B50846C0
:104670000D4602F0C5FC044601462846FEF7B8FD8B
:10468000204638BD10B5084614461146FEF7B0FD69
:10469000204610BDFEF78ABE08B50846FEF728FD85
:1046A000003018BF012008BD08B50846FEF7FEFC23
:1046B000003018BF012008BD08461146FEF78EBC29
:1046C0000846FEF7C5BC00BF0846FEF76BBC00BF3E
:1046D000FEF70CBC034B03EB5100B0FBF1F0FEF70F
:1046E00063BB00BF001C4E0E10B5064B144603EB17
:1046F0005100B0FBF1F0FEF757FB2046BDE810403B
:10470000FEF7BEBB001C4E0EFEF738BEFEF702BE23
:10471000FEF7F0BDFEF7D0BDFEF7DABD0368064A2E
:104720001B68934205D110B5C8B2FEF709FD012000
:1047300010BDC9B2184700BF614600000368064AB1
:104740001B68934205D110B5C8B2FEF7F9FC0120F1
:1047500010BDC9B2184700BF614600000368064A91
:104760001B68934205D110B5C8B2FEF7E9FC0120E1
:1047700010BDC9B2184700BF614600000368064A71
:104780001B68934205D110B5C8B2FEF7D9FC0120D1
:1047900010BDC9B2184700BF61460000704700BF96
:1047A00008B50846FFF73CF8012008BD08B50846E3
:1047B000FFF736F8012008BD38B508460D4602F06F
:1047C0001FFC044601462846FFF734F8204638BD52
:1047D00010B5084614461146FFF72CF8204610BDC8
:1047E000FFF7B8B808B50846FEF7FAFF003018BF63
:1047F000012008BD08B50846FEF7D0FF003018BFFD
:10480000012008BD08461146FEF79CBF0846FEF78A
:10481000C3BF00BF0846FEF779BF00BFFEF740BF29
:10482000034B03EB5100B0FBF1F0FEF7BDBE00BF40
:10483000000E270710B5064B144603EB5100B0FBE2
:10484000F1F0FEF7B1FE2046BDE81040FEF7F2BEE3
:10485000000E2707FFF766B8FFF730B8FFF71EB85E
:10486000FEF7FEBFFFF708B80368064A1B689342CD
:1048700005D110B5C8B2FEF7D3FF012010BDC9B2F3
:10488000184700BFAD4700000368064A1B68934203
:1048900005D110B5C8B2FEF7C3FF012010BDC9B2E3
:1048A000184700BFAD4700000368064A1B689342E3
:1048B00005D110B5C8B2FEF7B3FF012010BDC9B2D3
:1048C000184700BFAD4700000368064A1B689342C3
:1048D00005D110B5C8B2FEF7A3FF012010BDC9B2C3
:1048E000184700BFAD470000704700BFF8B572B170
:1048F00006460F4614460025336817F8011B1B684F
:1049000030469847013C0544F6D12846F8BD154687
:10491000FBE700BF2DE9F0438C688BB0ECB10025BC
:10492000064689462F462B46212201A9484600F01B
:1049300039FA3268202C234628BF2023D2F804807D
:1049400001A91A4630461D44E41AC0470744002C0A
:10495000E9D138460BB0BDE8F0832746F9E700BF40
:1049600000B5064A036812885B6883B001A9ADF8F8
:1049700004200222984703B05DF804FB5CB40000F9
:10498000F0B507468BB0002A33D0012A08BF0A22AF
:1049900051B3212400E0F4B2B1FBF2F502FB151192
:1049A000C8B2092900F1300198BFC8B20AA988BF6E
:1049B0003730214488BFC0B201F8240C661E294656
:1049C000002DE8D133B1013CE4B20AAB23442D22DF
:1049D00003F8242C3B6801AA11195B683846C4F11E
:1049E000220298470BB0F0BD30228DF825202124FB
:1049F000E8E70368C9B21B6898470BB0F0BD00BF79
:104A00000029BABF49422D2300230A22FFF7B8BF6D
:104A10002DE9F04357EC106B85B005460C4610EEBF
:104A2000102A3B4610EE100A394601F08BFB002895
:104A300040F0B28027F00049304649464FF0FF323F
:104A4000594B01F07FFB90B9304649464FF0FF3299
:104A5000554B01F059FB50B92B6854495B68284607
:104A6000032298478046404605B0BDE8F0834FF0EA
:104A700060424F4B3046394601F05AFB002872D154
:104A80004FF060424B4B3046394601F033FB002873
:104A900069D1002200233046394601F02BFB002863
:104AA00064D18146002C67D0434900204FF00008B4
:104AB0003BA3D3E9002308F1010801F0A9F85FFA4C
:104AC00088F39C42F4D802460B463046394600F043
:104AD000EDFE0F46064601F073FB804601F022F81A
:104AE00002460B463046394600F0DEFE4B4606468F
:104AF0000F460A2241462846FFF742FF0F2C28BFE7
:104B00000F2404F101092E2380465FFA89F98DF8FC
:104B1000003001240022294B3046394601F078F854
:104B20000F46064601F04CFB04AB2344C0B200F133
:104B3000300203F8102C01F005F802460B4630460F
:104B4000394600F0B1FE0134E4B24C4506460F464A
:104B5000E0D12B6822465B68284669469847404664
:104B600005B0BDE8F0832B68154977E707F10043EE
:104B70001F464FF0010995E700220F4B304639469A
:104B800000F094FE01F01CFB4B4601460A22284629
:104B9000FFF7F6FE804666E72B680A495EE700BF2E
:104BA000000000A09999B93FFFFFEF7F68B40000B3
:104BB000FFFFEF41FFFFEFC10000E03F0000244096
:104BC00064B4000060B4000041EA0020704700BFF8
:104BD00010B50446006801F0AFFB204610BD00BFD1
:104BE00038B543688B4201D3012038BD0D460446D9
:104BF0000131006801F02CFF0028F6D0A36884E89A
:104C00002100002BF0D10370EEE700BFF8B5044699
:104C1000154632B9036803B11A700023A360204619
:104C2000F8BD0E461146FFF7DBFF074648B920687E
:104C300010B101F081FB276000236360A360204670
:104C4000F8BDA5603146206802F074F9E7E700BFBF
:104C500038B500230446036043608360037341B1A9
:104C600008460D4602F0CCF9294602462046FFF7D9
:104C7000CDFF204638BD00BF38B5054608460C4676
:104C800002F0BEF9214602462846BDE83840FFF74B
:104C9000BDBF00BF10B5044619B1FFF7EDFF2046B8
:104CA00010BDA160204610BD2DE9F84303680F46F2
:104CB000BB420446816815460AD85A18974207D263
:104CC000C3EB07094FF0010835B92046BDE8F8836A
:104CD0004FF00008002DF8D04E1931462046FFF75E
:104CE0007FFF0028F1D0B8F1000F0ED02368A06834
:104CF0002A4603EB09011844FDF7C6F82368002291
:104D00009A55A6602046BDE8F8832068A368394616
:104D1000184402F00FF9F4E738B5054641B10846EA
:104D20000C4602F06DF9214602462846FFF7BCFF0B
:104D3000284638BD10B582B000238DF8041001223A
:104D400001A904468DF80530FFF7AEFF204602B0FA
:104D500010BD00BF10B50B4684B0044601A918462B
:104D60000A2200F02DF901A802F04AF901A9024631
:104D70002046FFF799FF204604B010BD10B588B05B
:104D800004466A460221042000F02CF9684602F02D
:104D900037F9694602462046FFF786FF204608B0ED
:104DA00010BD00BFB2B1A9B138B584689C420ED91C
:104DB000E41A013A0D469442016828BF144619448A
:104DC0002246284602F0DAF900232B5538BD00238D
:104DD0000B7038BD704700BF08B5FCF787F9FBF7CB
:104DE00043FD00F001F8FAE738B52C4C237803B105
:104DF00038BD01232370FFF785FB002842D1FDF762
:104E0000CBFE00283BD1FEF775FA002834D1FEF71F
:104E100045FD70BB00F090FA40BB00F009FB10BBF1
:104E200000F082FBE0B900232370EFF30583002B31
:104E3000DED1EFF3108172B6194B186828B3194C04
:104E4000227812BB45691D60012323700DB3AA614E
:104E500001B962B600254577836898472570C7E792
:104E600000F01AFDDFE700F015FDD9E700F010FDB6
:104E7000D3E7FFF739FDCDE7FFF790FCC7E7FFF772
:104E8000E7FBC0E700F00AFDB9E70029B0D162B640
:104E900038BD054B1D600029DCD1DAE7391FFF1F43
:104EA000C020FF1FC420FF1FBC20FF1F08B5104CEF
:104EB00008E0236859050DD423681A050FD4236828
:104EC000DB0411D423685803F3D5FEF745FE2368AD
:104ED0005905F1D5FDF7E2FE23681A05EFD5FEF777
:104EE0008BFA2368DB04EDD5FEF746FDEAE700BF49
:104EF0003480044008B5FFF7D9FF00BF014B1022F2
:104F00001A80704700200540704700BF094908B566
:104F10000B6830B16A461844A2F50052904202D2A2
:104F20000860184608BD01F0D1F90C2303604FF06A
:104F3000FF3008BDA408FF1FEFF3138070B9EFF333
:104F400010836BB9EFF305825AB94FF48070EFF319
:104F500011832BB1984228BF184670474FF0FF309D
:104F600070470F2A01D81846F1E7014BD05CEEE7F5
:104F7000F0E300E0F0B44D1E2E46002400E00134C2
:104F8000B0FBF2F302FB1300092800F130078ABFDF
:104F90003730F8B2C0B206F8010F1846002BEED138
:104FA0000A1953704CB1107815F8016F287001334D
:104FB000E01A834202F80169F5DB0846F0BC70474D
:104FC00010B5041E03DBBDE81040FFF7D3BF2D234F
:104FD000204640420C4601F8013BFFF7CBFF20463C
:104FE00010BD00BF2DE9F0472DED028BB4EE400A55
:104FF00080EAE073F1EE10FA84B0B0EE408A054624
:105000001446A3EBE07380F12D81DFEDC87AB0EE9A
:10501000C07AB4EE677AF1EE10FA42DDB5EEC00A5E
:10502000F1EE10FA4CBF04200320984221DB002D42
:10503000C0F273810020B5EEC08AF1EE10FA48BFCD
:1050400023462AD449214E22462321706270A37040
:105050000334002800F065812044202304F8013B3C
:10506000A042FBD10023037004B0BDEC028BBDE86D
:10507000F087002DA3EB0000DDDA002800F04D8161
:105080001318202204F8012B9C42FBD1B5EEC08AF4
:10509000F1EE10FA40F11C8100202D221A705C1CE8
:1050A000D0E70F4602AA01A9384601F0FDF8BA463A
:1050B0008046DDF80490002F59D0C9F10003BB42AF
:1050C00000F39680404601F09BFF0646B145B8BF0D
:1050D0000136B9F1000F40F09A800136DDF808E0A2
:1050E000BEF1000F55D00136A81B002804EB0601C5
:1050F00055DC23462D221A700133B9F1000F65D11A
:1051000037B11A46302002F8020B2E205870134691
:105110008B4220D25F1C98F800201A708F4208F151
:10512000010819D0019A4FF02E0E0BE083F801E030
:1051300002338B4203F101070DD218F8010B1870EE
:105140008F4209D0013A0192002AEFD03B468B42B0
:1051500003F10107F1D31946002DC0F2A38000230B
:1051600020460B7004B0BDEC028BBDE8F087B9F1AE
:10517000000FA2D190F800806D496E4A012301937F
:105180009946B8F1340F8CBF884690464FF0FF33F4
:1051900095E7A81B002804EB060140F3C4800144F6
:1051A000224601384FF0200C02F801CBC2F1010376
:1051B00003442344002BF7DC20EAE073013323444B
:1051C000BEF1000F96D1B9F1000F99D0A0DA002FEF
:1051D0009ED01A46302002F8020B2E275F70C9EBD2
:1051E000020302F8010B9342FBD1002201928FE7E8
:1051F000C7F100090126B1453046B8BF0136B9F103
:10520000000FDFF83081CDF804903FF466AFBFF6B1
:1052100065AF002F3FF462AF09EB0703984207F137
:1052200002067FF65BAF002F06DDF2EE047ABAF1DC
:10523000010A28EE278AFAD102AA5046B0EE480A9F
:1052400003A901F031F8DDF80490039A7B1CC9EB47
:1052500002029A4208BF09F10109804608BFCDF851
:1052600004903BE7B5EEC00AF1EE10FA4CBF042003
:105270000320984234DA002DA3EB000339DB18EE4B
:10528000102A002A30DB4E2241212270A270617068
:105290000334002B45D0E018202304F8013B84425E
:1052A000FBD1DFE6A8194342002B6FEA00007FF72D
:1052B00056AF0A46202502F8015BC2F10103034400
:1052C0000B44002BF7DC20EAE0730133194446E776
:1052D00049204E214622187059709A70D81CC1E698
:1052E000002D18DB0023CAE720462D220270441C43
:1052F000C9E783B1D018202304F8013B8442FBD1D5
:1053000018EE103A002B0ADB4E2341220370837003
:1053100042700330A6E62046F2E72346B6E60023B5
:10532000E3E720469EE62346E7E600BFFFFF7F7FD8
:105330006CB4000008AD0000054A064B10781B78DD
:10534000C0B2DBB2984238BF4030C01A704700BFCD
:10535000401FFF1F411FFF1F30B42B4B1A799406CB
:105360001FD52A48DA790378294901333F2B097878
:10537000C8BF00238B42D2B203D0264CD9B2E2542C
:105380000170254A116861B1244A1278D2B2934261
:1053900036BFC2F140029B1A9B18272BC4BF0123C2
:1053A0000B70194AD378DBB2180611D45A060DD502
:1053B000154B1B795B0609D5194B1A491B6800224E
:1053C0000A7003B11A70104B2C22DA7030BC70478F
:1053D00011790906EAD5144910480C780178C9B248
:1053E0008C420DD04A1C272A84BF00210A460F4D4B
:1053F000054C98BFD1B2AA5CD2B2E2710170D5E778
:105400006C21D170D2E700BF00D00640401FFF1FC3
:10541000411FFF1F6C1FFF1F3C1FFF1FAD1FFF1F02
:10542000B01FFF1FAC1FFF1FB41FFF1F441FFF1F34
:10543000054A064B10781B78C0B2DBB2984238BFE1
:105440004030C01A704700BFBC1FFF1FBD1FFF1FA9
:1054500030B42B4B1A7994061FD52A48DA79037891
:10546000294901333F2B0978C8BF00238B42D2B2B0
:1054700003D0264CD9B2E2540170254A116861B1BB
:10548000244A1278D2B2934236BFC2F140029B1A2C
:105490009B18272BC4BF01230B70194AD378DBB2AA
:1054A000180611D45A060DD5154B1B795B0609D584
:1054B000194B1A491B6800220A7003B11A70104B6D
:1054C0002C22DA7030BC704711790906EAD51449EC
:1054D00010480C780178C9B28C420DD04A1C272A9A
:1054E00084BF00210A460F4D054C98BFD1B2AA5C7B
:1054F000D2B2E2710170D5E76C21D170D2E700BF62
:1055000000A00E40BC1FFF1FBD1FFF1FE81FFF1F95
:10551000B81FFF1F2920FF1F2C20FF1F2820FF1F5F
:105520003020FF1FC01FFF1F054A064B10781B7855
:10553000C0B2DBB2984238BF4030C01A704700BFDB
:105540003820FF1F3920FF1F30B42B4B1A799406E7
:105550001FD52A48DA790378294901333F2B097886
:10556000C8BF00238B42D2B203D0264CD9B2E2543A
:105570000170254A116861B1244A1278D2B293426F
:1055800036BFC2F140029B1A9B18272BC4BF0123D0
:105590000B70194AD378DBB2180611D45A060DD510
:1055A000154B1B795B0609D5194B1A491B6800225C
:1055B0000A7003B11A70104B2C22DA7030BC70479D
:1055C00011790906EAD5144910480C780178C9B256
:1055D0008C420DD04A1C272A84BF00210A460F4D59
:1055E000054C98BFD1B2AA5CD2B2E2710170D5E786
:1055F0006C21D170D2E700BF00B00E403820FF1FF1
:105600003920FF1F6420FF1F3420FF1FA520FF1F2C
:10561000A820FF1FA420FF1FAC20FF1F3C20FF1F5E
:1056200072B6184A184B19491160702280211A70FD
:105630001A46197013781B06FCD510B5144B84B0AC
:10564000186862B6134B144C984298BF00EB800068
:1056500001A998BF40000A22FFF78CFC01A920464F
:10566000002311F8012B01333AB10A2B20F8022F45
:10567000F7D11623237004B010BD5B00DBB223709A
:1056800004B010BD040002400000024000000741C9
:105690000C0002407F9698003409FF1F10B4EFF30E
:1056A000108272B6437F33B9017F012908D00329E4
:1056B00010D00123437702B962B65DF8044B7047FE
:1056C000114C2168A1B1114943610B6883610860E5
:1056D0005861EEE70E4C216881B10E4943610B68B9
:1056E0008361086058610C4B4FF080511960E0E70E
:1056F000064B4161816120601860DAE7054B41612A
:10570000816120601860EEE7C020FF1FBC20FF1FF2
:10571000B020FF1FB420FF1F04ED00E010B4047F91
:105720004160022CC26003D05DF8044BFFF7B6BFA6
:1057300083685DF8044B184770B5EFF3108272B6BA
:105740000C4C206880B10C4E00254369236073B176
:105750009D6102B962B6457783689847EFF310827E
:1057600072B620680028F0D102B962B670BD33600D
:10577000EFE700BFB020FF1FB420FF1FFFF7DCBF23
:10578000184A30B41468002C27D0036821688B4273
:105790000ED2CB1A00218460C1602360E0601060EB
:1057A0000223037530BC704711688B42144608D33E
:1057B000A2685B1A0360002AF6D18260C460A06010
:1057C000EEE7D268C2608460E060C568CB1A02224E
:1057D000A8602360027530BC70478460C4601060AC
:1057E000DEE700BFB820FF1FF8B5224E34682CB3A7
:1057F0002368002B3AD1204F1D4604E03468ECB1F9
:105800002368002B32D1A36803B1DD6020693360C7
:10581000036825751B68BB4221D1037F4560022BBD
:10582000C46020D0FFF73AFF6368002BE6D0236006
:105830002046FFF7A5FF3468002CE1D1EFF3108379
:1058400072B60E4A00211068116003B962B628B121
:105850008468FFF795FF20460028F9D1F8BD22465D
:1058600000219847E0E783689847DDE7013B236024
:10587000E4E700BFB820FF1F1D570000C820FF1F2E
:10588000024A136801331360FFF7AEBFB01CFF1F5D
:10589000704700BF704700BF704700BF704700BF30
:1058A00081F0004102E000BF83F0004330B54FEAD1
:1058B00041044FEA430594EA050F08BF90EA020F3E
:1058C0001FBF54EA000C55EA020C7FEA645C7FEAD1
:1058D000655C00F0E2804FEA5454D4EB5555B8BFF4
:1058E0006D420CDD2C4480EA020281EA030382EA65
:1058F000000083EA010180EA020281EA0303362DF7
:1059000088BF30BD11F0004F4FEA01314FF4801CC9
:105910004CEA113102D0404261EB410113F0004FDB
:105920004FEA03334CEA133302D0524263EB430392
:1059300094EA050F00F0A780A4F10104D5F1200E30
:105940000DDB02FA0EFC22FA05F2801841F100018B
:1059500003FA0EF2801843FA05F359410EE0A5F15F
:1059600020050EF1200E012A03FA0EFC28BF4CF090
:10597000020C43FA05F3C01851EBE37101F0004546
:1059800007D54FF0000EDCF1000C7EEB00006EEB53
:105990000101B1F5801F1BD3B1F5001F0CD34908DD
:1059A0005FEA30004FEA3C0C04F101044FEA445234
:1059B00012F5800F80F09A80BCF1004F08BF5FEABB
:1059C000500C50F1000041EB045141EA050130BD9B
:1059D0005FEA4C0C404141EB010111F4801FA4F13E
:1059E0000104E9D191F0000F04BF01460020B1FA93
:1059F00081F308BF2033A3F10B03B3F120020CDACB
:105A00000C3208DD02F1140CC2F10C0201FA0CF0A8
:105A100021FA02F10CE002F11402D8BFC2F1200C0D
:105A200001FA02F120FA0CFCDCBF41EA0C019040C3
:105A3000E41AA2BF01EB0451294330BD6FEA04040C
:105A40001F3C1CDA0C340EDC04F11404C4F12002F7
:105A500020FA04F001FA02F340EA030021FA04F309
:105A600045EA030130BDC4F10C04C4F1200220FA60
:105A700002F001FA04F340EA0300294630BD21FA9E
:105A800004F0294630BD94F0000F83F4801306BF64
:105A900081F480110134013D4EE77FEA645C18BF58
:105AA0007FEA655C29D094EA050F08BF90EA020FEF
:105AB00005D054EA000C04BF1946104630BD91EAE7
:105AC000030F1EBF0021002030BD5FEA545C05D1EA
:105AD0004000494128BF41F0004130BD14F5800429
