:100000000000022099010000C15200007952000056
:1000100079520000795200007952000079520000B4
:10002000795200007952000079520000C15200005C
:10003000C15200007952000075790000797A000001
:10004000C1520000C1520000C1520000C152000064
:10005000C1520000C1520000C1520000C152000054
:10006000C1520000C1520000C1520000C152000044
:10007000C1520000C1520000C1520000C152000034
:10008000C1520000C1520000C1520000C152000024
:10009000C1520000C1520000C1520000C152000014
:1000A0000D45000019450000C1520000C15200007A
:1000B000C1520000C1520000C15200000D5D00009D
:1000C000C152000069640000C1520000E9690000EB
:1000D000C152000015880000C1520000C15200004A
:1000E000C1520000C1520000C1520000DD470000B3
:1000F000C1520000C1520000C1520000C1520000B4
:10010000C1520000C1520000C1520000C1520000A3
:10011000C1520000316C0000C1520000C152000009
:10012000C1520000C1520000C1520000C152000083
:10013000C1520000C1520000C1520000C152000073
:10014000C1520000C15200000D890000C1520000E0
:10015000058A0000C1520000C1520000C1520000D7
:10016000C1520000C152000025450000C1520000EC
:10017000C1520000C1520000C1520000C152000033
:10018000C1520000C1520000C1520000C152000023
:10019000C1520000C1520000584B4CF2205210B521
:1001A0001A804DF628121A8000BF00BF05F08CF8A7
:1001B000534B4FF030621A60524A9A60524ADA60EA
:1001C000524B4FF470021A60514A136813F4807353
:1001D00004D150490B604FF4A85313604E4B1A786A
:1001E000110703D51A7842F008021A704B4B4C499C
:1001F0002A221A704B4A4C4B8B4204D252F8040FFD
:1002000043F8040BF8E7494B494900228B4202D2DC
:1002100043F8042BFAE74749474A002352F82300E2
:1002200041F823000133662BF8D1444B444A802126
:1002300003F8011B9342FBD1424B3E4A1A60424BEA
:100240008A221A70A3F5805324225A70A0221A70B1
:100250009A799207FCD59A79D406FCD43B4A9379D3
:1002600003F00C03082B394BF9D103221A714622F3
:100270005A719A799006FCD5344A9179334B4906E4
:10028000FBD5334A4FF08271116009215160202261
:100290001A709A7902F00C020C2AFAD12D4B2E4AD0
:1002A0001A602E4B2E4A1A6000225A60072243F829
:1002B000042C2C4AC3F80C2D62B605F023F9154B1B
:1002C0001B68DA0705D5284805F0A2F8274B284A0D
:1002D0001A60284B1B785B0609D5244C244B2268F6
:1002E0009A4204D1204805F093F80023236009F0D6
:1002F00065F904F0EFFF08F01BF8FEE70E2005405B
:1003000030800440823F04000100002B88ED00E0B3
:1003100010D0034014D0034002D0074000E0074053
:100320004813FF1F64EF0000F806FF1F4813FF1F6C
:10033000243FFF1F0002FF1F0000000000E400E058
:1003400056E400E008ED00E00050064000400640A2
:100350004480044004800440C010050014E000E024
:10036000BFD401000000202019DBE05A1CE003404C
:10037000A5C3945A00F00740FFFFFFFFFFFFFFFFF8
:10038000FFFFFFFFFFFFFFFFFFFFFFFFFFFFFFFF7D
:10039000FFFFFFFFFFFFFFFFFFFFFFFFFFFFFFFF6D
:1003A000FFFFFFFFFFFFFFFFFFFFFFFFFFFFFFFF5D
:1003B000FFFFFFFFFFFFFFFFFFFFFFFFFFFFFFFF4D
:1003C000FFFFFFFFFFFFFFFFFFFFFFFFFFFFFFFF3D
:1003D000FFFFFFFFFFFFFFFFFFFFFFFFFFFFFFFF2D
:1003E000FFFFFFFFFFFFFFFFFFFFFFFFFFFFFFFF1D
:1003F000FFFFFFFFFFFFFFFFFFFFFFFFFFFFFFFF0D
:10040000FFFFFFFFFFFFFFFFFFFFFFFFDEF9FFFF23
:1004100010B5054C237833B9044B13B10448AFF33E
:1004200000800123237010BD4813FF1F000000004F
:1004300068EF0000084B10B51BB108490848AFF33E
:1004400000800848036803B910BD074B002BFBD0A0
:10045000BDE81040184700BF000000004C13FF1F0C
:1004600068EF00004813FF1F0000000038B572B6A7
:10047000384D394A2B68107801332B6004F07EFE2A
:10048000364B9FED376AD3ED007A9FED367AF8EE62
:10049000E77A06EE900A67EE867AF8EEE66AE6EE0E
:1004A000877AFDEEE77AC3ED007A1A68642A41DCA8
:1004B0002D4A117800293DD12C4C236801210B4491
:1004C000236011702A68234D44F24F639A4217DD6E
:1004D00072B6D4ED007AF8EEE77AB2EE047A67EEFF
:1004E000877AB3EE027AC7EE876A16EE900A08F0B2
:1004F0009DFC1F4A0023C2E90001236062B62B6005
:100500001C4B187804F09CFF1B4A1C4B1060187899
:1005100004F096FF1A4A1B4B1060187804F090FF05
:10052000194A1A4B1060187804F08AFF184B1860AB
:1005300062B638BD1B68B3F52F7F06DB0B4C0A4B48
:100540002268226000221A70BCE7084C23682360EE
:10055000B8E700BF8C13FF1F0407FF1FA82FFF1F62
:100560006666663FCDCCCC3DD82FFF1FDC2FFF1F2A
:10057000F837FF1F1407FF1FE42FFF1F1807FF1F87
:10058000E82FFF1F1C07FF1FEC2FFF1F2007FF1F77
:10059000F02FFF1F2DE9F04F304E85B034680094E6
:1005A000009C05469846914614440F4605F0BCFE53
:1005B000284609F0C5FE0146284605F051FE2848A8
:1005C00007F05EFC284609F0BBFE0146284605F010
:1005D00099FA244807F054FCB8F1000F2BD0224DB3
:1005E00005F2FF7811E032680192019C85F800A0C5
:1005F0004FF000036B704C440AF0F0F860BB5D46AE
:1006000033680293029B9C4215D905F0ABFE00288B
:10061000F6DD05F0B7FE8246C0B205F069FA454541
:1006200005F1010B39461048DDD333680293029B74
:100630000D4D9C42E9D8302033680393039B9C42C4
:1006400007D20A21094805F05DFA064807F018FCB0
:10065000322005B0BDE8F08F3120EDE7B43AFF1F3E
:10066000CC08FF1FBC08FF1FF42FFF1F38E000005D
:1006700008B54FF47A7004F0F7FE012342F21072CD
:100680000B490C48FFF786FF312808D009210A489A
:1006900005F038FA094807F0F3FB002008BD0821EF
:1006A000074805F02FFA054807F0EAFB012008BDCE
:1006B00044E0000048E0000058E00000BC08FF1FD4
:1006C0004CE0000010B5454C2368013B052B00F2BF
:1006D0008280DFE803F01D34475A6D03404807F07D
:1006E000CFFB13213F4805F00DFA01234FF4FA52D6
:1006F0003D493E48FFF74EFF312804BF06232360E3
:100700003B4B4FF000021A700CBF0720012010BDB8
:10071000334807F0B5FB0921364805F0F3F901230A
:1007200041F2883234493548FFF734FF312804BF9D
:10073000022323602E4B00221A70012010BD28488E
:1007400007F09EFB0B212E4805F0DCF9012341F256
:10075000883229492B48FFF71DFF3128EAD10323AE
:100760002360E7E71E4807F08BFB0821264805F0C9
:10077000C9F901234FF4FA521F492448FFF70AFF31
:100780003128D7D104232360D4E7154807F078FB3C
:1007900013211F4805F0B6F901234FF4FA521D4901
:1007A0001D48FFF7F7FE3128C4D105232360C1E7B8
:1007B0000B4807F065FB1021184805F0A3F9012349
:1007C00041F288320C491648FFF7E4FE3128B1D1D6
:1007D00006232360AEE7012010BD00BF0007FF1F06
:1007E000BC08FF1FFCE0000010E1000018E1000061
:1007F000F42FFF1F64E0000044E0000070E0000000
:1008000078E0000048E0000084E0000090E0000094
:10081000B4E00000C8E00000D0E00000E0E000002C
:10082000F4E0000010B50321074805F019FD40F67B
:10083000B83004F019FE01234FF47A7203490448DA
:10084000BDE81040FFF7A6BE44E1000044E0000010
:1008500048E100002DE9F04F99B06549DFF8F481D7
:10086000644FDFF8F491644D04A807F081FC04F0B4
:10087000C9FD034601466148C8F8003007F050FB47
:100880005E4807F0FDFAD8F800405D485D4980FBFE
:100890000430E317C3EBE0505B4B01FB104283FBDA
:1008A00002315A4C5A48D317C3EB215304FB13218E
:1008B00081FB0023CA185748574CCB17C3EB224281
:1008C000564B00FB121283FB02318B18D117C1EB80
:1008D000E321534821604FF4616303FB112380FB44
:1008E0000302D018DA17C2EB6012C2EB0210A3EBBE
:1008F00080034C484C4C03604C4B226011391A4623
:10090000062901934A494B4C94BF0123002308A8B0
:10091000137007F02DFC396808A807F0B3FC4649AE
:1009200008A807F091FCD9F8001008A807F0AAFC65
:10093000414908A807F088FC216808A807F0A2FC34
:100940003D4908A807F080FC296808A807F09AFC30
:1009500008A93A4807F06EFA384807F091FA236878
:10096000A3B92968364D01222A7001BB354F364C98
:100970003B6836482270013B0170032B00F267850B
:10098000DFE813F068016101DD016C002D4F2E4C92
:100990003B682B4D0022013B22702A70032B00F292
:1009A0005E85DFE813F057015001C7015B0039682D
:1009B000002940F06781254BD9F800101A70214FAB
:1009C000214C002940F04A8301990978002940F020
:1009D000458339681E48227001390270032900F2EC
:1009E0004685DFE811F037013001A8013B0000BF68
:1009F00034E40000E42FFF1FF02FFF1FEC08FF1F5F
:100A00007BA418448033E101D1249067008D270036
:100A100007452EC2805101008013FF1FC5B3A2916C
:100A2000898888881438FF1F8813FF1F0038FF1F2C
:100A3000B8E10000EC2FFF1FC4E10000BC08FF1F5D
:100A40006813FF1F0807FF1F8413FF1F1838FF1FBD
:100A5000D02FFF1F0438FF1FE82FFF1FFFF7E2FE14
:100A6000002800F0F58002233B60924BDFF8BCB217
:100A7000DFF8BC921E46237833B1019B1B781BB96B
:100A80002B78002B40F09F830D218B4805F03AF81E
:100A90008A4807F0F5F900231A4608218848237090
:100AA00004F012F906218748DFF85CA205F02AF865
:100AB0003968824807F034FA804807F0E1F91221DA
:100AC000814805F01FF899ED000B04217B4807F0E1
:100AD0002FFA7A4807F0D4F97C4B7848196807F068
:100AE0001FFA764807F0CCF979490CA807F040FBCB
:100AF000784B794A21780CA8002914BF1146194671
:100B000007F0A2FB75490CA807F09EFB31680CA802
:100B100007F0B8FB00220821714803F077FD0CA90B
:100B20006F4807F087F9012208216D4803F06EFD38
:100B300067490CA807F046FBD9E9000108F0C2FCA0
:100B400000EE100A0CA807F0C5FB0CA9644807F0DA
:100B500071F902220821624803F058FD614A624B94
:100B60009BF800100CA8002914BF1146194607F085
:100B700029FB5E490CA807F067FBDAF80010092989
:100B80007CDC5B490CA807F05FFBDAF800100CA8CE
:100B900007F078FB574F58490CA807F055FB396808
:100BA000092967DC52490CA807F04EFB39680CA8EC
:100BB00007F068FB0CA94A48504F07F03BF90322A5
:100BC0000821474803F022FD41490CA807F0FAFA32
:100BD0003B782978002B43D0494A4A4B0CA800297E
:100BE00014BF1146194607F02FFB3B783C4883F0B1
:100BF00001030CA93B7007F01DF9434B43481968EA
:100C000007F08EF901213C4806F04EFD394B3F4874
:100C1000196807F085F93D4807F032F93C4803F0C0
:100C2000ABFD012800F0678200230CA88BF8003090
:100C300007F05EFA08A807F05BFA04A807F058FA74
:100C400019B0BDE8F08FFFF73DFD07287FF40DAF29
:100C5000032309E7FFF70CFD00283FF406AF02E786
:100C60002C4A2D4B0CA8002914BF1146194607F039
:100C7000EBFABAE70CA807F005FB9BE70CA807F016
:100C800001FB87E7254F264C3A6826482649237002
:100C9000013A03700B70032A00F2E18301A353F8B9
:100CA00022F000BF550C0000470C00003F0D000073
:100CB0005D0A0000B02FFF1F4CE40000BC08FF1FBE
:100CC0007C2EFF1F5CE4000064E40000DC2FFF1FAB
:100CD00034E4000054E1000050E1000078E400003A
:100CE0007013FF1F58E1000060E100007CE4000089
:100CF00040E100008813FF1FD0E300001007FF1F32
:100D000068E1000078E100008013FF1FEC08FF1F7E
:100D1000B42FFF1F88E1000098E100000807FF1FC3
:100D20008413FF1F1838FF1FD02FFF1FAC2FFF1F8A
:100D3000F837FF1FAF4B1B78002B40F0A3812378BF
:100D4000AD481BB12B78002B00F06C830DF1400AED
:100D5000AA4BDFF800B31E46DFF8FC92A8495046C4
:100D600007F006FAD9E9000108F0ACFB00EE100A22
:100D7000504607F0AFFA2B78129AA248002B14BF06
:100D800003230123D23213441946029307F0C8F813
:100D90009C4807F075F89C4904A807F013FA9B4992
:100DA00004A807F051FA9A4904A807F04DFA9949A6
:100DB00004A807F049FA029B04A8194607F062FA52
:100DC000954904A807F040FA934904A807F03CFAB3
:100DD000924904A807F038FA222104A807F042FA41
:100DE0008F4904A807F030FA222104A807F03AFA44
:100DF0008C4904A807F028FA222104A807F032FA47
:100E0000894904A807F020FA222104A807F02AFA49
:100E1000864904A807F018FA222104A807F022FA4C
:100E2000834904A807F010FA222104A807F01AFA4F
:100E3000804904A807F008FAD9E9000108F042FB4C
:100E400000EE100A04A807F045FA7B4904A807F051
:100E5000FBF9222104A807F005FA714904A807F05C
:100E6000F3F9222104A807F0FDF96E4904A807F060
:100E7000EBF9222104A807F0F5F9704904A807F05E
:100E8000E3F9222104A807F0EDF9684904A807F066
:100E9000DBF9222104A807F0E5F9654904A807F069
:100EA000D3F9222104A807F0DDF9624904A807F06C
:100EB000CBF92B78002B14BF6421002104A807F084
:100EC000E1F95D4904A807F0BFF9222104A807F061
:100ED000C9F9534904A807F0B7F9222104A807F07B
:100EE000C1F9504904A807F0AFF9222104A807F07E
:100EF000B9F9534904A807F0A7F9222104A807F07B
:100F0000B1F94A4904A807F09FF9222104A807F083
:100F1000A9F9474904A807F097F9222104A807F086
:100F2000A1F9444904A807F08FF99BF8001004A820
:100F300007F0A8F9404904A807F086F9222104A87F
:100F400007F090F9364904A807F07EF9222104A899
:100F500007F088F9334904A807F076F9222104A89C
:100F600007F080F9374904A807F06EF9222104A898
:100F700007F078F92D4904A807F066F9222104A8A2
:100F800007F070F92A4904A807F05EF9222104A8A5
:100F900007F068F9274904A807F056F9217804A852
:100FA00007F070F9284904A807F04EF905F0BCF9DC
:100FB00004A9264806F03EFF04A9124806F03AFFAD
:100FC000234803F0FFFB04E005F0CCF9002800F310
:100FD000F4801F4803F0D0FB0028F5D0094806F044
:100FE0004FFF012004F040FA032350463B6007F016
:100FF0007FF840E51838FF1F8413FF1FB02FFF1F35
:1010000034E40000BC08FF1FECE2000044E30000F1
:1010100060E3000084E3000038E2000098E3000091
:101020009CE3000074E40000A8E30000C4E30000B7
:10103000C8E30000D0E30000D4E30000DCE30000DC
:10104000F8E3000014E4000030E40000CC08FF1FC7
:101050000838FF1FAC2FFF1FF837FF1F3B689A4966
:101060000022013B22700A70032B00F2F88101A2DA
:1010700052F823F0550C0000470C000085100000CA
:101080005D0A00009149DFF8B8A204A807F09AF8B9
:101090008F4904A807F0D8F88E4904A807F0D4F8BF
:1010A0008D4904A807F0D0F805F03EF904A98B4853
:1010B00006F0C0FE04A98A4806F0BCFE894803F089
:1010C00081FBD3464FF00009864803F055FB00280A
:1010D00040F08E8005F046F90028F5DD05F052F964
:1010E0000346C0B2029304F003FD029B0BF8013FDC
:1010F00009F10109E8E77C497C4807F063F8D8F872
:1011000000107A4807F0D2F87949784807F09CF83F
:10111000784A794B21787548002914BF1146194641
:1011200007F092F87249714807F08EF8D9E900018A
:1011300008F0C8F900EE100A6C4807F0CBF86C49CB
:101140006A4807F081F86D4A6D4B9BF800106748BC
:10115000002914BF1146194607F076F86449634820
:1011600007F072F8674A684B29786048002914BF75
:10117000114619460DF1400A07F066F85046132350
:10118000624A634901F0A4F8504600F0EDFF38B31D
:101190005649504606F04EFE504606F071FE504647
:1011A00000F0D4FF51495B4806F044FE594806F070
:1011B00067FE504600F0C8FF36E505F0E3F8C0B220
:1011C00004F096FC05E702220821534803F07CFD59
:1011D0001121524804F096FC414806F051FE61E4AA
:1011E00019214F4806F060FA4A4806F049FEE0E748
:1011F0004C4A4D490023104602F8093009F0EEFA36
:1012000023784A4A002840D033B92B7823B1019B78
:101210001B780BB90123137045480F2104F072FCB1
:101220002F4806F02DFE434904A806F0CBFF2849BD
:1012300004A807F009F8274904A807F005F826498B
:1012400004A807F001F805F06FF804A9234806F098
:10125000F1FD04A9224806F0EDFD224803F0B2FAA0
:101260004FF000091F4803F087FAF0B905F07AF84B
:101270000028F7DD05F086F88346C0B204F038FC9C
:1012800009F101090AF801BFECE7002BCBD00E4BA6
:101290001B78002B40F0D38009212748137004F0FD
:1012A00031FC0F4806F0ECFDBDE7244B1D481A88C1
:1012B0009B788DF842300DF1400A0023ADF84020B4
:1012C000514600F809304DE0D02FFF1FC8E1000063
:1012D00038E3000020E2000038E20000CC08FF1FE5
:1012E000BC08FF1F0838FF1F34E400006C2EFF1FEE
:1012F00080E4000050E1000054E1000058E10000EB
:1013000060E10000A8E10000B0E1000084E400001A
:101310001C38FF1FEC08FF1F7C2EFF1F38E4000065
:1013200090E40000F42FFF1F3CE200008413FF1F35
:1013300044E200006CE2000054E2000034E00000EF
:10134000F32FFF1F08F0FCFF01468346484604F0D8
:10135000D9FB4B4806F094FDBBF1040F51464FF00A
:10136000000052DD0AF0E6FA81460028EAD14FF08B
:101370000009484608F0FCF8DFF828E1414B5CEC36
:1013800010BB10EE100A614600228EED000B8DEDB1
:10139000020B08F025F800283FF4DAAC00223A4BA3
:1013A000DDE9020108F012F800283FF4D1AC374B18
:1013B000374E0022DDE9020107F08CFD08F03AF813
:1013C0003368984281461AD00B21324804F09AFBC8
:1013D0000D212B4806F0A4FD08212F4804F092FBB4
:1013E0004946274806F09CFD254806F049FD1FFAAE
:1013F00089F20D21294803F067FCC6F80090DFF858
:10140000A8B001238BF80030A6E40AF093FA8146D5
:1014100008F096FF0146484604F074FB184806F0B1
:101420002FFDA6E703701A46194B1C48DFF878B069
:1014300008211E460DF1400A03F046FC8CE4082109
:10144000174804F05FFB0E4806F01AFDEBE6104B60
:10145000DFF854B0DFF854901E46FFF70EBB0C4B7C
:10146000DFF844B0DFF844901E46FFF70DBB084B91
:10147000DFF834B0DFF834901E46FFF701BB00BF41
:10148000BC08FF1F00003E4000804B400000594058
:10149000B02FFF1FD4E20000E0E200007C2EFF1F0F
:1014A00060E200009013FF1FAC2FFF1FF837FF1FF3
:1014B00010B50F480F4C03F09FF940F6AC510E48A1
:1014C00003F04AF9042314223F210C4803F030F8BA
:1014D00020460B4906F04CFE20460A490A4A08F00D
:1014E00041F84EF660210948BDE8104003F034B9D8
:1014F0007C2EFF1F6C2EFF1F0838FF1F7013FF1F6D
:1015000034E40000F1800000F806FF1FB42FFF1F35
:101510002DE9F04FADF6D47D03F074FFC04BC14907
:10152000C14EC24FC24CC34D83FB0032C317C3EB45
:10153000224301FB130286FB0231D317C3EB215375
:1015400007FB132181FB0423CA18CB17C3EB2242EC
:10155000B94BBA4CBA4EBB4F306005FB121283FB3D
:1015600002131344D117C1EBE3214FF4616303FB72
:10157000112384FB0302D018DA17C2EB6012C2EB0E
:101580000210A3EB8003B04E3B60B04B3260A1F180
:101590001102062A1960AE4B94BF012200221A7074
:1015A000AC4B0021187803F059FFAB4B00211878A1
:1015B00003F054FFA94B0021187803F04FFFA84B0C
:1015C0000021187803F04AFF0121062003F046FFAE
:1015D000012003F049FF0121062003F02BFFA14861
:1015E00003F0B8F8642003F03FFF9E4802F0C6FF06
:1015F0009C4802F0FFFF12229B499A4806F006FC25
:1016000001220021974803F001F80F2297499548DD
:1016100006F0FCFB02220021924802F0F7FF0622AE
:101620009349904806F0F2FB41F2883003F01CFF2A
:1016300040F6230004F04CF840F6230004F0ECFBE5
:101640008C4B0121187803F009FF43F2D40004F019
:10165000E3FF062005F026F8874B884A197888486A
:1016600003F0D2F8874B00241C6072B6864B874D7E
:101670001878022103F0F2FE8549864B864A032042
:10168000087049F27C2111801A6884481C6002F0BD
:10169000400242F02B0229601A601A6880490160FA
:1016A000804942F040024FF400601A60086062B660
:1016B0006C4802F09FFF214601226A4802F0A6FF13
:1016C0000D227949674806F0A1FB214602226548B0
:1016D00002F09CFF4FF47A7003F0C6FE01227349BA
:1016E000604806F093FBE1B202225E48013402F04A
:1016F0008DFF142CEED15B4802F07CFF012200210B
:10170000584802F083FF11226949564806F07EFBD3
:1017100002220021534802F079FF00244FF47A702E
:1017200003F0A2FE012261494E4806F06FFBE1B2D0
:1017300002224C48013402F069FF142CEED15D49BD
:10174000DFF89081DFF890910CA806F011FD5A495E
:101750000CA806F079FD59490CA806F075FD58490A
:101760000CA806F071FD57490CA806F06DFD04F0B9
:10177000DBFD642003F078FE0CA9534806F05AFB09
:101780000CA9524806F056FB364802F033FF0122FE
:101790000021344802F03AFF12224D49314806F048
:1017A00035FB44F6206106A802F0D6FF06A803F038
:1017B00009F84FF47A7109A802F0CEFF09A803F0E6
:1017C00001F8002406A802F0D7FF002840F0868028
:1017D00004F0C8FD002808DD04F0D4FD0546C0B2C1
:1017E00004F086F908F80450013409A802F0C4FF97
:1017F0000128E7D102462D491A4806F007FBD9F81F
:10180000001018484B1C0222C9B2C9F8003002F07F
:10181000FDFE06A802F0B0FF0028D9D05EE000BFB0
:10182000DD2C88002043E101B9F62466A0192800C8
:1018300007452EC280510100C5B3A29189888888CE
:101840000438FF1F1438FF1F8813FF1F8013FF1F6A
:101850000038FF1F1407FF1F1807FF1F1C07FF1F7B
:101860002007FF1F7013FF1FACE40000C0E400005E
:10187000D0E40000FC06FF1F0C07FF1FDC08FF1F61
:101880007C2EFF1FDC2FFF1F0407FF1F0890034063
:10189000963AFF1F00900340983AFF1FA408FF1FCD
:1018A0006D04000004E100E0D8E4000040E5000021
:1018B000E8E40000FCE4000038E3000020E200005F
:1018C0000CE5000038E20000CC08FF1FBC08FF1F39
:1018D00020E50000F42FFF1F6C13FF1F774802F074
:1018E00089FE01220021754802F090FE0D22744904
:1018F000724806F08BFA734B73481A889B788DF800
:101900000E30002303A9ADF80C2008F804300FE0D6
:1019100008F016FD01460546204604F0F3F86B4832
:1019200006F0AEFA202D03A94FF0000000F30A8262
:101930000AF000F804460028EAD1DFF8A481D8F8BC
:101940000030002B00F0E280614C2268002A00F099
:10195000DD80DFF8A491D9F80020002A00F0D680BD
:10196000DFF89881D8F80020002A00F0CF80DFF857
:1019700090B1DBF80020002A00F0C880DFF884A1D5
:10198000DAF80020002A00F0C1800E215148524DA3
:1019900004F0B8F8D9F800200192104608F0D0FC05
:1019A000019A0146104604F0ADF801214B4804F0BD
:1019B000A9F822680192104608F0C2FC019A01467B
:1019C000104604F09FF80121444804F09BF8444B72
:1019D0001A680192104608F0B3FC019A01461046BD
:1019E00004F090F801213F4804F08CF8D8F800206A
:1019F0000192104608F0A4FC019A0146104604F03A
:101A000081F80121384804F07DF8DBF800200192CC
:101A1000104608F095FC019A0146104604F072F851
:101A20000121314804F06EF8DAF8002001921046E6
:101A300008F086FC019A0146104604F063F823483A
:101A400006F01EFA264B186807F096FD24682860F9
:101A50002649204608F0C2FE002800F062820123D9
:101A6000234CD8F80000236007F086FD0228D9F83F
:101A7000000000F3528207F07FFD431EDFF88890DC
:101A8000D8F80000C9F8003007F076FDDFF86C8068
:101A90000228D8F8000000F33C8207F06DFD00F149
:101AA0001503144ADBF80000136007F065FD306091
:101AB000DAF8000007F060FD38602BE07013FF1FBC
:101AC00034E5000034E00000F42FFF1FBC08FF1FC6
:101AD0006413FF1F44E50000E02FFF1F54E50000E2
:101AE000C02FFF1F6CE00000D0E3000058E50000AD
:101AF000CC2FFF1F8013FF1F9813FF1FC42FFF1F42
:101B0000D42FFF1FC82FFF1F682EFF1FC04DC14CD1
:101B1000DFF85C93C0480E2103F0F4FFD9F8001001
:101B2000BE4806F0FDF90121BD4803F0EBFF216836
:101B3000BA4806F0F5F90121B94803F0E3FF296836
:101B4000B64806F0EDF90121B64803F0DBFFB64BCD
:101B5000B248196806F0E4F90121B44803F0D2FF55
:101B60003168AE4806F0DCF90121B04803F0CAFF45
:101B70003968AA4806F0D4F9A84806F081F92B681C
:101B8000A94AD9F8001015683F68226836688DF8B0
:101B900014104E3304A88DF816308DF815208DF8EA
:101BA00010708DF811608DF8125003F09BF8044608
:101BB00001469A4806F0B4F9984806F061F9002CFD
:101BC00040F060819A4802F015FD002211469848C5
:101BD00002F01CFD06229749954806F017F90122EC
:101BE0000021934802F012FD06229349904806F026
:101BF0000DF9022200218E4802F008FD03228F49D0
:101C00008B4806F003F903220021894802F0FEFC0C
:101C100006228B49864806F0F9F81721894805F015
:101C200043FDFE21884800F0A7FA002800F0E88074
:101C30001121864805F038FD854806F021F914A8E1
:101C40000123844A804900F043FB1CAE34460DF565
:101C50007D6520460021103406F08AFAAC42F8D1A6
:101C600010A87D4906F084FA14A800F07DFA002837
:101C700060D00A21794805F017FD754806F000F993
:101C800037460DE014A800F0E9F9C4B2204605F08B
:101C90008FFD214610A806F0E5FA0A2C00F09B8083
:101CA00014A800F0BDF90028ECD114A800F04EFAF9
:101CB000344621466648103406F0BCF8AC42F8D1F0
:101CC000DFF8B08101256649306909F033FEB0B113
:101CD0000024C5EBC50704E06149002009F02AFE95
:101CE00068B1062CF8DC07F047FC3B195C4948F862
:101CF00023000020013409F01DFE0028F1D1013538
:101D0000F62D06F11006DED110A806F0F1F90DF55A
:101D10007C6418AD2046103C06F0EAF9A542F9D1E2
:101D200014A800F011FA0CA806F0E2F90DF6D47D23
:101D3000BDE8F08F16214B4805F0B6FC444806F08C
:101D40009FF8E1E7204608F0FBFA0146204603F041
:101D5000D9FE324806F094F82046324909F0EAFDEF
:101D60003049002009F0E6FD2E49002009F0E2FD8F
:101D7000044600283FF4E1ADDFF8FC80DFF8FCA06A
:101D8000DFF8FC9000250FE0C9F80040BBF1060F1A
:101D900024494FF0000005F101057ADC09F0CAFD85
:101DA000044600283FF4CBAD204608F0C9FA0146AE
:101DB0008346204603F0A6FE184806F061F8002D81
:101DC000E2D0012D04D0022D08BFC8F80040DDE7A5
:101DD000CAF80040DAE710A9384606F0EBF91321FB
:101DE000214805F061FC10A9194806F023F81848AD
:101DF00006F046F8184910A8103706F0E3F94FE747
:101E00001B211A4805F050FC114806F039F80FE77D
:101E1000E02FFF1FCC2FFF1F44E50000BC08FF1F71
:101E200054E500006CE000008013FF1FD0E30000C9
:101E30007013FF1F88E5000090E5000098E50000A2
:101E40009CE50000A4E500001C38FF1FD8E5000059
:101E5000EC08FF1FECE5000034E40000F8E50000AA
:101E600080E4000018E6000004E60000BCE5000085
:101E7000682EFF1F9C13FF1FC02FFF1F6413FF1F3F
:101E80009813FF1F204603F0C3FA204602F0A8FF74
:101E900098E6204608F054FA0146204603F032FE48
:101EA000474805F0EDFF2046464909F043FD04464A
:101EB00000283FF444AD4FF0000BDFF83CA1DFF801
:101EC0003C91414DBBF1000F17D12C60204608F02A
:101ED00037FA0146204603F015FE394805F0D0FFD9
:101EE0003849002009F026FD0BF1010B04460028BB
:101EF0003FF425ADBBF1000FE7D0BBF1010F05D0DA
:101F0000BBF1020F08BFCAF80040DFE7C9F8004084
:101F1000DCE707F031FBC31EC3E507F02DFB0346EA
:101F2000ACE52A49204608F059FC08B1022397E5A0
:101F30002749204608F052FC08B1032390E52549C3
:101F4000204608F04BFC08B1042389E522492046CD
:101F500008F044FC08B1052382E52049204608F03A
:101F60003DFC08B106237BE51D49204608F036FC00
:101F700008B1072374E51B49204608F02FFC08B17F
:101F800008236DE51849204608F028FC08B109230C
:101F900066E51649204608F021FC08B10A235FE5F2
:101FA0001349204608F01AFC08B10B2358E52046D7
:101FB000104908F013FC00280CBF01230C234FE547
:101FC000BC08FF1FD0E30000C42FFF1F5CE500002A
:101FD00060E5000064E5000068E500006CE50000D5
:101FE00070E5000074E5000078E500007CE5000085
:101FF00080E5000084E50000C82FFF1FD42FFF1FDD
:1020000000207047704700BF10B582B002AB026875
:1020100003F8011D546819460122A04702B010BD03
:10202000C06938B18369C06847F6FF72181A9042D8
:1020300028BF1046704700BFC36910B504463BB1C6
:1020400000201871E06901F037FCE3691B791BB1CE
:1020500001232371002010BD10BD00BFC06978B1FD
:1020600000B583B001220DF1070101F0F7F9012855
:102070000CBF9DF807004FF0FF3003B05DF804FB84
:102080004FF0FF30704700BFC369C3B110B582B0D5
:102090000446012218460DF1070101F0DFF901287D
:1020A00003D04FF0FF3002B010BDE0699DF807404B
:1020B000C168013901F08EFA204602B010BD184601
:1020C000704700BFC06908B101F0B6BA704700BFE1
:1020D0002DE9F04105464FF47A731348AB600023B5
:1020E00028602B712B7324200C46904607F092FA3F
:1020F000E861B0B1064604F1200E20686168A2686C
:10210000E36837460FC7103474453E46F5D1206862
:10211000386041460C2205F10D0008F0CFF900238C
:102120006B762846BDE8F08138E600004FF47A72FD
:10213000044982600022016002710273C26142732D
:10214000704700BF38E60000704700BFC36953B155
:1021500010B50446184601F009F9E06907F062FA83
:102160000023E36110BD7047C06918B18079003069
:1021700018BF0120704700BFFE2938B5054617D0AB
:102180000A46012100F0F4FD03460BB9002038BDDA
:102190002C1D20460122294601F07EFE98B12146E1
:1021A00005F12C0001F032F9003018BF012038BDD4
:1021B000017000F0DDF9044600F0C8F9B4FA84F3C8
:1021C0005B09A870E1E702462946204601F064FE5B
:1021D0000028E4D1002038BD2DE9F04F99B04FF030
:1021E0000008DFF8E8A08DF81C808146043106A8BD
:1021F000934601938DF81E808DF840808DF84280C3
:10220000CDF818A0CDF83CA001F000F906AE5D466F
:102210000FAF2F21284607F0CDFF441BE4B229461B
:1022200008B32B782F2B02A81BD00C2C28BF0C2412
:10223000224608F043F918AB2344384603F8588C7B
:1022400001F094F8012302AA3146384601F028FB38
:1022500088B3304601F08AF8334625443E461F468F
:10226000D7E70135D5E7019831797279B379B46848
:10227000377DCBEB05050560F068356989F80410FA
:1022800089F80520B16989F80630F269336AC9F81E
:102290000C004846C9F800A0C9F80840C9F8105019
:1022A00089F81470C9F81810C9F81C20C9F8203032
:1022B00019B0BDE8F08F89F8040089F80600484697
:1022C000C9F800A019B0BDE8F08F00BF5CE60000BF
:1022D000F0B59DB005461F4601A86B461446FFF7B2
:1022E0007BFF009AA35C1444002B42D09DF80A2087
:1022F0002F4E0A9600238DF82C308DF82E30002AB0
:1023000031D00AA83B46224601A901F0C9FA50B3D0
:1023100001A801F02BF817F0060F43D19DF82C709F
:102320000C9B9DF82DE0139622469DF82E408DF8CB
:1023300050708DF8524015930D990E989DF83C7091
:10234000109E119C129B8DF851E01691179013A9C5
:1023500028468DF8607019961A941B93FFF7B8FE03
:1023600028461DB0F0BD2846FFF7E0FE28461DB008
:10237000F0BD9DF808700E4E9DF809409DF80A309A
:10238000039A8DF8507013968DF851408DF85230A5
:102390001592049905989DF81870079E089C099B52
:1023A000044AD2E70AA8109901F014F9B6E700BF71
:1023B0005CE6000054E50000064B074ADA620221A1
:1023C000002259609A7083F8242083F8302083F823
:1023D000322070471C38FF1F5CE6000010B4114C1F
:1023E000114B226811491340184322F0080240F4AF
:1023F0006020226020600B681C0706D40C4B01E0B3
:10240000013B02D00A681207FAD5064B094A5DF86B
:10241000044B40F008001860136843F48013136005
:10242000704700BF2C100B400700F0FF24100B403A
:10243000FFFF0F0030100B402149224A0B6843F088
:1024400080030B6011461368DB07FCD40B689B0705
:10245000F9D41D4B30B44FF08072194D186000E074
:10246000A2B12968194B164C0B40013A002BF7D04A
:1024700062B1012B0AD1236813F0800F23680FD0BB
:1024800043F001132360032030BC70470C4A1368EB
:1024900043F4702343F001031360012030BC704704
:1024A00013F4803305D0236843F001132360052023
:1024B000F4E7226842F0010218462260EEE700BF0E
:1024C00030100B4024100B400C100B4001000E008C
:1024D00070B50D4D0D480E4E00232B60FFF7ACFF7D
:1024E0006324034606E04BB92B60FFF7A5FF013CD0
:1024F000034605D0326805485207F4D4184670BD2B
:10250000002808BF052070BD08100B400000DB0C40
:1025100024100B4070B5094C002305462360084881
:10252000FFF78AFF00B170BD064E0748336825608B
:10253000FFF782FF0028F6D1336870BD08100B400A
:1025400000001A3710100B4000000229074B1A78C0
:102550004AB99A782AB15B78002B0CBF022003207D
:102560007047012070470020704700BF7038FF1F80
:102570002DE9F047674D684E2B68684F6849694CF4
:1025800069486A4ADFF8C8E143F400332B603368D6
:1025900043F4005333603B6843F002033B600B6835
:1025A00043F002030B60236805F59F4506F59F463F
:1025B00007F59F4701F5D12123F00103236001F2C4
:1025C000EC7140F20313583554365437036000243D
:1025D000574813602C600A4633603B60CEF80030E9
:1025E0000860136813F08073FBD1524C524A534871
:1025F000534923604FF481354FF0101328240560B0
:102600000C6041F290001360FFF7E8FE4D4A13683A
:102610009C07FCD1454EDFF810E14B4C4B4A4C492E
:102620004C4F4D4D4D4840F24343CEF8003033609F
:102630004FF48866266013604FF6FF76484C3B6087
:1026400002F5C8220B6020322E604FF4FA7104604C
:10265000136843F00063136013681801FCD4013958
:10266000F6D13D4A3748136843F08003136003688E
:10267000DA0308D43B4B02205970997018705960E6
:102680009960BDE8F087374C374E21706170A170BA
:10269000084631606160A160FFF7CEFE68B9334D36
:1026A00033482B684FF4D5733360FFF7C5FE40B94C
:1026B0002B682B68B3F5D57F29D001202070BDE8A9
:1026C000F0870528F9D10020FFF724FF0028F4D176
:1026D000264B1A6812F4401F58D06278254FDFF855
:1026E0009880002A05461E4608BF4FF4401704E0B4
:1026F0003268002A42DB454546D03846FFF70AFFDC
:1027000001351A4B0028F3D00120BDE8F0870123E2
:102710006370D8E730800440388004403C80044037
:102720004080044000D0004000D0044004D0044069
:1027300000800001C0100B4044100B4004100B40FF
:1027400028100B4024100B4008D004400CD004404B
:1027500014D0044010D0044030100B4034100B4013
:10276000BB007F117038FF1F08100B4010100B408A
:1027700000001A0800003040A0860100554A95422A
:1027800002D01B685B0001D400236370524E534893
:1027900000233360FFF750FE034600288DD1504DD3
:1027A00050482A683360FFF747FE002885D12B6820
:1027B0002B684D484D4D1B0C1B0433606360FFF7C5
:1027C0003BFE00287FF479AF494B4A491A68120E44
:1027D000EA700A6812F4400F71D1196846481B6804
:1027E000026800689B0203F4406343EA9253C0F31B
:1027F000C2105A1CC1F30321831C093902FA03F3E6
:102800008B40AB60344E636833603C48374FFFF712
:1028100013FE00287FF451AF314D39482B684FF437
:1028200000733360FFF708FE00287FF446AF7B6833
:102830002A6834483360FFF7FFFD00287FF43DAF7E
:1028400002232A6830483360FFF7F6FD00287FF442
:1028500034AF2E4B2A681A68DFF8B8A0DFF8B890BA
:10286000DFF8B8802A4C22F006021A601A68A6F532
:10287000C726A6F2FC76A5F5C82542F002021A602A
:1028800040F20313CAF80030C9F80030C8F800005D
:1028900033604FF490702B602360FFF79FFD40F290
:1028A00043434FF48862CAF80030C9F80030C8F8D2
:1028B000002033602B6023603878BDE8F087012268
:1028C0000D4BAA701B68C3F3152313449B02AB6026
:1028D00098E700BFA086010008100B400000090225
:1028E00010100B4000001A03000009097038FF1F88
:1028F00018100B401C100B4014100B4000001B075D
:1029000000001A1000001A3700001A0628100B40A9
:1029100014D0044000D0044004D0044008D0044047
:10292000F8B5384B1A780AB10320F8BD5B78064633
:1029300003B94902344D354C354B36484FF6FF77D5
:102940004FF481322F6021601A60FFF775FD002877
:10295000EBD1314B31491B681C3406F1400206F5BE
:1029600010702B68284F43F0200613F4E00F2E6000
:102970003ED123681E05FCD50B6842F8403C0B682D
:1029800042F83C3C0B6842F8383C0B6842F8343C57
:102990000B6842F8303C0B6842F82C3C0B6842F85C
:1029A000283C0B6842F8243C0B6842F8203C0B683A
:1029B00042F81C3C0B6842F8183C0B6842F8143C87
:1029C0000B6842F8103C0B6842F80C3C0B6842F86C
:1029D000083C0B6842F8043C40328242C1D10020DE
:1029E00009490B68084A9B07FBD50D4B1360F8BDDE
:1029F00043F4E00343F020033B60FFF769FD01204F
:102A0000EEE700BF7038FF1F30100B4008100B407E
:102A100004100B4010003A1110100B4020100B4016
:102A200022000001F8B52B4B1A780AB10320F8BD3B
:102A30005B78044603B94902274D284E284B2948A4
:102A40004FF6FF774FF481322F6031601A60FFF745
:102A5000F3FC0028EBD1244B24491B682E4604F5D7
:102A600000772B681C4AD806FBD5336813F4E00FB7
:102A70001AD104F1400254F8043B0B60A242FAD18F
:102A80002B68DFF854E043F010032B602B6813F43D
:102A9000E00013D19742E4D10F490B680E4A9B071F
:102AA000FBD5134B1360F8BD136843F4E00343F008
:102AB00010031360FFF70CFD0120EDE7DEF8003096
:102AC00043F4E00343F01003CEF80030FFF700FDBD
:102AD0000120E1E77038FF1F30100B4008100B4059
:102AE00004100B4000003A1810100B4020100B404F
:102AF00012000001052822D8DFE800F003030F15BB
:102B00001B09124B124A1A60124801F0EFBA0F4B20
:102B1000114A1A600F4801F0E9BA0C4B0F4A1A60CB
:102B20000C4801F0E3BA094B0D4A1A60094801F05C
:102B3000DDBA064B0B4A1A60064801F0D7BA034BC0
:102B4000094A1A60034801F0D1BA00BF8038FF1F5C
:102B5000000001B82807FF1F0430003801100038BA
:102B600003200038010002380650013810B5012159
:102B7000007802F05FFC0E4A137893B10D49CB7ACE
:102B800000241846147063B1DC0703D50A4A88692B
:102B9000106018469A0705D4430702D5074B0A6A06
:102BA0001A6010BD064BCA69C87A1A60F4E700BF04
:102BB0008438FF1F2807FF1F00E100E008E100E064
:102BC00004E100E01E4B1A781AB10078002102F0EF
:102BD00031BC70B41B4A1C49D47A096801251D70A8
:102BE000ECB172B6D37ADE071C4606D5174DD46811
:102BF0002E68344094612C601C469D0706D5144D08
:102C000013692E68D47A3340D3612B60630705D5EE
:102C1000104C536925682B401362236062B6136819
:102C2000DA688A4207D00C4C1C600C4AD96041F02B
:102C300080441C611A600078002170BC02F0FABB6D
:102C40008438FF1F2807FF1F8038FF1F80E100E046
:102C500084E100E088E100E001401F0000001F80E7
:102C6000F0B4134C134A236882B0174600930098BF
:102C70004FF0004680B2FF25136843F48063136071
:102C8000D6625563D36A002BFCDABB6BDBB2FF2B39
:102C90000AD023680193019B9BB21B1A8B42EBDB8A
:102CA000002002B0F0BC7047012002B0F0BC7047B9
:102CB000B43AFF1F00C00240F8B50D464FF49671BC
:102CC00016460446FFF7CCFF284B1A684FF0004029
:102CD00042F4806245F040011A60D8621A46596396
:102CE000D36A002BFCDA214918204FF000470A680C
:102CF00026FA00F342F48062DBB20A60CF624B63D3
:102D0000CB6A002BFCDA083810F1080FEFD155B36D
:102D1000082D0CBF8721FF21144B1A684FF000408B
:102D200042F480621A60D8621A465963D36A002B53
:102D3000FCDA0E4A002716464FF00045FF211368C3
:102D400043F480631360D5625163D36A002BFCDACD
:102D5000B36BD8B21B06607000D4F8BD0137B7F56D
:102D6000807FECD1F8BD9521D6E700BF00C00240BE
:102D70002DE9F0430023944F027085B083703B68C7
:102D800001930546884610460121019E02F052FB40
:102D90002878012102F062FB2878012102F04AFB29
:102DA0008A4A136843F4805313600620FFF7A2FE9B
:102DB000DFF844E2864B9EF80BC01A68B6B2BCF14D
:102DC000000F20D072B69EF80B30DC07194608D5EC
:102DD0008048DEF80C1004682140CEF8181001601D
:102DE0001946980709D57C48DEF8103004689EF82B
:102DF0000B102340CEF81C300360490700F1A4807B
:102E000062B69EF80BC0DEF80030D968914207D058
:102E1000724818607249DA6042F0804018611960A7
:102E2000704A0A244FF00040FF21136843F4806386
:102E30001360D0625163D36A002BFCDA013C14F0BA
:102E4000FF04F2D1BCF1000F18D01CF0010F05D027
:102E5000654BDEF818209EF80BC01A601CF0020FBC
:102E600005D0624BDEF81C209EF80BC01A601CF0E7
:102E7000040F03D05E4BDEF820201A602846FFF7CF
:102E8000A1FE07E03B680293029B9B1B9BB2B3F53C
:102E9000FA6F52D8002211462846FFF70DFF01288D
:102EA00081466870EED14FF4D57208212846FFF7AD
:102EB00003FF430727D585F802904FF0000907E08C
:102EC0003B680393039B9B1B9BB2B3F5FA6F34D80B
:102ED000002237212846FFF7EFFE4A4629212846DF
:102EE000FFF7EAFE68700028EAD1AB78022B39D0F0
:102EF0002846FFF73BFE4046FFF7FCFD0124204635
:102F000005B0BDE8F083374A042194464FF0004EE7
:102F1000FF20136843F480631360C2F82CE0506311
:102F2000D36A002BFCDADCF838300139DBB211F05F
:102F3000FF016B70EDD1AA2B0FD02846FFF716FECC
:102F4000204605B0BDE8F0832A49DEF81430086851
:102F50000340CEF820300B6052E70223AB704FF0F5
:102F60008049B5E702463A212846FFF7A5FE00282A
:102F7000E3D11C4B1A684FF0004442F48062FF20FA
:102F80001A601946DC625863CB6A164A002BFBDADA
:102F9000936B144A03F0C003C02B04BF0323AB7030
:102FA000032116464FF00044FF20136843F480636A
:102FB0001360D4625063D36A002BFCDA013911F03C
:102FC000FF01B36BF1D193E7B43AFF1F3C8004409B
:102FD0008038FF1F80E100E084E100E001401F0035
:102FE00000001F8000C0024000E100E004E100E0BA
:102FF00008E100E088E100E02807FF1FF0B4164C6C
:10300000164A236882B01746009300994FF0004695
:1030100089B2FF25136843F480631360D662556359
:10302000D36A002BFCDABB6BDBB2FF2B43700BD1F6
:1030300023680193019B9BB25B1AB3F5967FE9DD90
:10304000002002B0F0BC7047A3F1FE00B0FA80F09F
:10305000400902B0F0BC7047B43AFF1F00C0024004
:10306000F8B58378032B0E46044618BF4E0215466A
:10307000FFF7A8FD324611212046FFF71DFE18B9C3
:103080002046FFF7BBFF20B92046FFF76FFD002069
:10309000F8BD204B2049214A1A608E4659631A46D2
:1030A00059631E46596305F5FD70A91C05F5FE77A9
:1030B000D36A13F0F00FFBD0C6F834E0B36B01F81D
:1030C000013C1B1201F8023C02318F42F0D105F5A0
:1030D0000075A8420DD20F4A1646D36A13F0F00FBE
:1030E000FBD0B36B191200F8021BA84200F8013C98
:1030F000F3D3084B0949084A196019465A63CB6A49
:10310000044A13F0F00FFAD02046936BFFF72EFD20
:103110000120F8BD00C00240FFFF009000041F80A6
:10312000F0B4314E33684FF0004743F480633360AE
:103130003D46F762344671633346511C02F2012763
:10314000E26A002AFCDA1A6811F8016C42F4806223
:103150001A60DD625E63E26A002AFCDA1A6811F81E
:10316000026B42F480628F421A60DD625E63E7D1D7
:103170001D49CA6A1C4B002AFBDA1A684FF0004549
:1031800042F48062FF241A601946DD625C63CB6AF8
:10319000154A002BFBDA13684FF0004543F48063B7
:1031A000FF2413601146D5625463CB6A0E4A002B8C
:1031B000FBDA13684FF0004543F48063FF2413608B
:1031C0001146D5625463CB6A074A002BFBDA936B36
:1031D000DBB203F01F024370A2F10500B0FA80F0E9
:1031E0004009F0BC704700BF00C0024070B5044603
:1031F00071B18378032B0D4618BF4D021646FFF7B9
:10320000E1FC2A4618212046FFF756FD054620B16D
:103210002046FFF7ABFC002070BD3246FE21204661
:10322000FFF77EFF0028F3D04FF416712046FFF71A
:1032300017FD0028ECD02A460D212046FFF73CFD63
:103240000028E5D10B4B1A684FF0004542F480622C
:10325000FF201A601946DD625863CB6A054A002BCD
:10326000FBDA936B13F0FF0FD2D12046FFF77EFC01
:10327000012070BD00C00240014B024A1A60704735
:103280008038FF1F0320003838B590F90530002B37
:1032900003DBBDE8384000F013BC0446012100699F
:1032A00000F04EFCF8B1257D104B13EB45151AD0FC
:1032B000A3790F4A012B9CBFA369EB61E3691268F4
:1032C0006B831B0CAB8232B105F1160105F11800BE
:1032D00090472B8B6B82637903F07F036371BDE8AA
:1032E000384000F0EDBB002038BD00BF9438FF1F10
:1032F0008838FF1F10B500F1080204460121006A5A
:1033000000F012FD50B1E3693BB96379A268E26154
:1033100063F07F036371012010BD012010BD00BF69
:1033200070B50646FFF7E6FF98B1326AB568117CC2
:1033300053691479023D8D40013B74B11D4402E094
:1033400014F0FF0407D0601900F06AFC013C00286B
:10335000F6D1002070BD336A197CB0694FF4007259
:1033600002FA01F30344B361012070BD82790AB906
:103370000020704710B50446FFF786FF18B1002300
:10338000A371012010BD002010BD00BF70B44B1E02
:1033900001F10A04202203F8012FA342FBD10138D6
:1033A0000025072610F8014F2CB32E2C1ED0164AEC
:1033B00001E09C4217D012F8013B002BF9D1AE423C
:1033C0001FD3A4F121025D2A1BD8A4F16102192A9E
:1033D00005F1010398BF203C0D44DBB298BFE4B275
:1033E0002C701D46DEE7002070BC70470A2EFAD014
:1033F00008250A26D6E70B78B3F1200018BF012074
:10340000F2E71846F0E700BF6CE6000038B58379B4
:103410003BB991F82020102A0D46044603D0202AFB
:1034200010D0002038BD022282714A8CC361530142
:10343000836100230120607123752562A360E3602E
:10344000236138BD03238371496AC16100F1180209
:10345000284600F039FC0028EBD1E2E7837913B964
:103460004FF0FF3070472DE9F04F8B464179C90787
:1034700083B005465BD5C1688469641A944228BF4D
:10348000144626460194002C69D01A46022ADFF819
:10349000FC903D4FDFF8F880C1F3080A42D0286A5B
:1034A0000479013C04EA5124E4B2BAF1000F62D17C
:1034B000002C60D1002956D1EA69AA6090F810E08A
:1034C0004169023A02FA0EF221441144CAF500742D
:1034D0006A79B442A8BF344653062DD4B4F5007FB0
:1034E0002AD00846002100F02BFB00B30AEB090E9E
:1034F0000EEB040086450BD00BF1FF32734613F838
:10350000011B02F8011F9842F9D1CEEB0000834461
:10351000E968361B2144E96021D0AA79022AC1F367
:10352000080ABCD12A6A506A00EB5121CEE74FF05D
:10353000FF3003B0BDE8F08F3A689142D1D0D8F89F
:1035400000000378FE2B18D05A46FFF789FD0028AB
:10355000EDD0E968361B2144A344E960DDD1019830
:1035600003B0BDE8F08F05F10802A96800F074FB14
:103570000028DCD0286AAA68A0E75846FFF7D0F9EF
:10358000B0FA80F04009E2E72407FF1F9438FF1FDC
:103590009038FF1F8379012B17D930B5C36883B0EA
:1035A00001220DF107010446C3F34315FFF756FF4F
:1035B000012802D0002003B030BDE36804481F3367
:1035C00000EB4510E36003B030BD0020704700BF42
:1035D0009438FF1FF8B5837913B182698A4201D20A
:1035E0000020F8BD022B0F4605461AD007B32B6A00
:1035F000E9681C7C4A1E04F109037C1EDA40DC40A9
:10360000A24211D9EB69AB6005F1080606E0A96892
:10361000286A00F021FB013C0028E1D03246002C52
:10362000F5D1EF600120F8BD0029EBD0A41AEBE73B
:10363000AF60EF600120F8BD83790BB1FFF724BEC6
:10364000184670478379012B01D000207047F0B5F0
:103650004579AC0783B002461CD585698D420C467E
:1036600018D3D5B12546D6681446FFF7B3FF88B105
:10367000B5B9E169206A00F0E1FB58B1E56122E0EB
:1036800000F0DCFB30B16FF07042A168206A00F0FE
:10369000C3FBC0B9002003B0F0BD184603B0F0BDB5
:1036A00001AAA168206A00F0D7FA0028F2D0206AA7
:1036B0000F4B90F8207001994FF6F872102F08BF49
:1036C00013469942DCD36379A279A56163F07F0345
:1036D0006371002ADED02046FFF7D6FD0028D9D03E
:1036E000B5422946204628BF3146FFF773FFD2E78F
:1036F000F8FFFF0F70B51D4B03EB4116F37A13F083
:10370000110F02D012F0420F1ED1194B01751B6828
:103710000361738BB18A43EA0141C161F37A13F00B
:103720001803154604460DD1F369836101238371A3
:1037300005F00F03002163716B06A160E1600FD4F7
:10374000012070BD102B01D0002070BD00F11802C7
:10375000006A00F0B9FA0028F6D00423A371E7E765
:103760002046BDE87040FFF76DBF00BF9438FF1FD3
:103770002407FF1F2DE9F04784B001AF06460C4631
:10378000104639469946FFF701FE78B30022216AB8
:10379000316213461546A260E260DFF8008108E05E
:1037A000E52B1CD001460B22384606F011FA88B3EF
:1037B000E368A2699A421DD92046C3F3431AFFF772
:1037C000E9FE98B10378002BEAD15DB9D8F8003052
:1037D00086F814A03361037823B10125E8E7002DB2
:1037E000FBD1F3E709F01203122B1DD0002004B027
:1037F000BDE8F08709F01203122BF7D1A5B9A37920
:10380000022BF3D02046FFF78BFD0028EED0214C91
:10381000357514E009F03003302BE7D04A465146A5
:103820003046FFF767FFE2E70121306900F088F9D1
:103830000028DBD0347D174B13EB4414D6D0202264
:103840000021204606F05AFA97E80700234603C3F2
:10385000114923F8022B0D68120C1A709DB104F166
:103860000E0104F11000A847238AE28963822383B2
:10387000E28200F025F90028B8D04A46317D304672
:10388000FFF738FFB3E742F621034FF400622382CB
:10389000E281EBE79438FF1F8838FF1F2407FF1FE2
:1038A00010B484791CB100205DF8044B70475DF8BA
:1038B000044BFFF75FBF00BF2DE9F04F8B468179C6
:1038C00085B001290746019205D001233B710020F4
:1038D00005B0BDE8F08F42799107F6D5530708D5BA
:1038E000FC68B9698C4200F0B480FFF773FE0028D1
:1038F000EBD0019BFC68002B4AD0DFF8A491DFF8E5
:10390000A4A1DDF80480386A0679013E06EA54264F
:1039100016F0FF06C4F3080443D1002C41D1B96866
:10392000002973D1FA69002A00F08380BA60C4F5D7
:103930000075ADB245453AD9057C4169023AAA40C5
:103940000E4416441FFA88F51CB9F868BA6990420B
:103950004FD23046012100F0F3F80028B5D04C4496
:1039600004EB050E74450DD00BF1FF31621E0EF114
:10397000FF3611F8010F02F8010F9642F9D1C4EB9E
:103980000E04A344FC68B8EB05082C44FC60BAD1D3
:10399000BB69A34262D27A79BC6142F080027A713B
:1039A00065E0C4F50075ADB24545BA68C4D8017C80
:1039B0004069023A8A400644B5F5007F1644C3D1F7
:1039C000DAF80020964204BF4FF0FF32CAF8002018
:1039D0002F4A10680278FE2A314633D05A46FFF744
:1039E00005FC00283FF471AF0BF5007B4FF4007528
:1039F000C8E700F065F800283FF467AF2549CAF82A
:103A000000600A7842F001020A70A8E703AA00F0F9
:103A100023F900283FF45CAF386A1F4B90F8205020
:103A2000039A4FF6F871102D18BF19468A42FFF419
:103A30007DAF3846FFF75EFC00283FF446AF386A9A
:103A4000BA6874E75846FEF7EDFFB0FA80F0400917
:103A5000C7E7019B002B7FF450AF08E00F4B7A794A
:103A60001B6823B1019B13B142F080027A711207E7
:103A700009D5BB79002B3FF428AF3846FFF704FC8B
:103A800000283FF422AF019805B0BDE8F08F00BFD9
:103A90009038FF1F943AFF1FF8FFFF0F8838FF1F71
:103AA0009438FF1F2407FF1F00B583B002AB01222B
:103AB00003F8011D1946FFF7FFFE03B05DF804FB94
:103AC00070B51A4C23780BB9012070BD184D194BF5
:103AD000286819680378FE2B17D0174AFFF786FB72
:103AE00088B1164E316819B900232370012070BDCA
:103AF00028680378FE2B0FD00F4AFFF777FB10B131
:103B000000233360F0E7002070BD0B48FEF78AFF0A
:103B1000B0FA80F04009E3E70748FEF783FFB0FA08
:103B200080F040090028EBD1EDE700BF943AFF1F79
:103B30009038FF1F2407FF1F9438FF1F8C38FF1F8A
:103B400070B5124D2B6883420E4611D00446FFF724
:103B5000B7FF08B9002070BD0D4B18680378FE2B25
:103B60000CD00C4A2146FFF77BFA0028F2D02C60DB
:103B7000094B197831431970012070BD2146054861
:103B8000FEF7CEFEB0FA80F04009EEE72407FF1FF3
:103B90009038FF1F9438FF1F943AFF1FF8B590F834
:103BA0002030C469102B1A4B05460E4617461B6879
:103BB00016D004EBD1149C4216D106F07F06154AAC
:103BC00042F826701449287E0A78012842F0010242
:103BD0000A7018D9A968114A0B4413600120F8BD76
:103BE00004EB11249C4208D000212046FFF7A8FFD7
:103BF00050B195F82030102B07D1F6B2054A234674
:103C000022F81670DEE70120F8BD2346D5E700BF95
:103C10002407FF1F9438FF1F943AFF1F8C38FF1FA3
:103C200010B50446FFF74CFF78B1084B002103F5AF
:103C3000007203F8011F9342FBD1054A054913782E
:103C40000C6043F001031370012010BD9338FF1F77
:103C5000943AFF1F2407FF1FC36801338B4218D318
:103C600070B590F82030102B154B044616460D46C3
:103C7000C0691B680FD000EBD11098420FD105F03E
:103C80007F01104B53F8213023F070433360012043
:103C900070BD0020704700EB1120984207D0002132
:103CA000FFF74EFF50B194F82030102BE7D1E9B266
:103CB000044B33F811303360012070BD002070BD1B
:103CC0002407FF1F9438FF1F2DE9F04782B002AD93
:103CD000DFF8508045F8041D044691464FF0000A75
:103CE0004FF400774FF6F8760CE094F82030227C01
:103CF0000199102B14BF4346334607FA02F299424A
:103D0000924408D22A462046FFF7A6FF0028ECD1AD
:103D100002B0BDE8F0870120C9F800A002B0BDE8FC
:103D2000F08700BFF8FFFF0F2DE9F04F176883B051
:103D30006FB301374FF0000AC36803F1010813B3F2
:103D40008B46064691463C46002505E01C461F462C
:103D5000F3680135AB4216D9A04538BF022421468D
:103D600001AA304638BF2746FFF776FF631CD91BF0
:103D700048B1019A002AE9D18B4510D01C46F3685E
:103D80000135AB42E8D8002003B0BDE8F08FA1F1C7
:103D9000010ABAFA8AFA07684FEA5A1ACCE7012CE4
:103DA000F1D9F36801339C42EDD86FF0704221469F
:103DB0003046FFF7F3FE0028E5D0A74214D2013CBD
:103DC000012CE0D9F36801339C42DCD8621C214607
:103DD0003046FFF7E3FE0028D5D0A74204F1FF34B8
:103DE00002D0012CEED1CEE7D9F8001059B101294B
:103DF000C9D9F36801339942C5D83A463046FFF72E
:103E0000CDFE0028BFD0C9F80070BAF1000F01D074
:103E1000013737600120B7E701290CD9C3680133A6
:103E2000994210B403D85DF8044BFFF7B7BE0020E9
:103E30005DF8044B70470020704700BFF0B50223C7
:103E400083B00546134F03600C464FF6F8760FE03B
:103E5000EB6801339C4216D8FFF7A0FE98B195F8A5
:103E60002030019C102B0CBF33463B469C420DD2A8
:103E700001AA21462846FFF7EFFE2146002210B195
:103E8000012C2846E4D8002003B0F0BD012003B087
:103E9000F0BD00BFF8FFFF0FF8B53E4B05461960B7
:103EA0001446DAB1042A01D90020F8BD00210846E1
:103EB000FFF746FE0028F7D0374B03EB041292F8C9
:103EC000AE215206F0D11B3403EB0414D4F80A30AF
:103ED000632BE9D9D4F80640002CE5D00021204618
:103EE000FFF72EFE0028DFD02B4AB2F80B30B3F5D7
:103EF000007FD9D1117C0029D6D0D389002BD3D013
:103F0000567B002ED0D0002329762E712B740127EA
:103F100003E009290B462974C6D007FA03F0B04222
:103F200003F10101F5D1D68A1B4906B94E6AB2F8F0
:103F30000EE0AE60A644C5F81CE0B2F81110177C84
:103F40006984480106FB07E600F2FF1006EB6020DB
:103F50006E626861B2F813100F4E01B9316A241A0B
:103F60000C4424FA03F340F6F4718B42EB600BD956
:103F70004FF6F4718B4285BFD36A6B621023202306
:103F800085F820300120F8BD0C2385F82030012071
:103F9000F8BD00BF9038FF1F9438FF1F10B4047F96
:103FA0004160022CC26003D05DF8044B03F080BC7A
:103FB00083685DF8044B1847F0B4464B464A186BCB
:103FC000DC6A01791170454922790A709A6A007990
:103FD0000870002A46D05968C9688A423ED82168CC
:103FE000CC8B240402F1FF3065D4C0F30E00C883EB
:103FF000C88B80B2C882196B0968C88B000452D480
:10400000C2F30E00C883C88B002480B212F1FF32C5
:10401000C88218BF01229C62D96A2E4809680D68BF
:1040200000F12404A54236D00068C46814F0804F23
:104030000C680D6815BF248824780235013544F0DA
:1040400000440D604463196B254B097919702149AF
:1040500012B1CA6A12791A70F0BC7047521A9A6289
:104060000122D9E7586B196805681E4C0A63CC62B7
:10407000CC682D681C4E24F080440327B542CC60E8
:1040800083F825701FD1037F4260022BC2601ED0CF
:10409000F0BC03F00DBC016890F82400CC6840F03F
:1040A00000404863CFE7CC8BC2F3080004F47E44A1
:1040B0002043C883A7E7CC8BC0F3080004F47E44F8
:1040C0002043C88394E72B461146F0BC1847836809
:1040D000F0BC18472807FF1F1F8000401C800040CD
:1040E0001B80004000000FFF9D3F000090E80C0087
:1040F000F0B41C6859682568164F174E2943216093
:10410000164D17491760D66015611160417A154A3E
:104110005C180C3194F82C4053F8215002EBC40188
:1041200049680D60017A5C1803EB8101247ECD693A
:1041300002EBC40149680D60817A581803EB8103D2
:1041400090F84000596C02EBC002F0BC5368196053
:10415000704700BF01401F000110003801100078B7
:1041600000001F8010E8000090F8392090F8380017
:10417000101A704790F8383090F839209A4205D9D3
:104180005A1C034480F83820187E70474FF0FF30E7
:10419000704700BF90F8383090F839209A4286BFB7
:1041A0001B18187E4FF0FF30704700BF704700BFEC
:1041B00038B50546B0F85E0090B195F85D3014460C
:1041C000C3F1210294420CD805F13B001844224669
:1041D00000F028FE95F85D30234485F85D302046D8
:1041E00038BD012014462871EEE700BFB0F85E30FC
:1041F0006BB190F85D30202B07D8C218013380F8DE
:104200005D30012082F83B107047012303710020CC
:10421000704700BF0023426980F8383080F8393099
:1042200080F85C3080F85D3080F85E3080F85F3078
:1042300006CA30B40D68046943662A4383660A607F
:10424000A370426990F861301649146813441D7ACE
:104250005B7B01EBC5051B026D6803F4E06343F073
:1042600064032B6090F8623013449D7CDB7D01EB8E
:10427000C5011B02496803F4E06343F064030B606B
:1042800021685368194205D003692C225A700369CA
:1042900004229A71036920225A71036980229A705C
:1042A00030BC704710E8000038B50269D478E4B239
:1042B000E106054624D51023D37063061FD504F00C
:1042C000040404F0FF03002C5AD042496A6E002314
:1042D0000B7085F85D30002A66D0904795F85D3008
:1042E000002B61D02B69D0229A702B6995F83B2066
:1042F0001A712B69012285F85C200222DA7038BD20
:1043000004F0400303F0FF00002BD8D19379DBB217
:1043100003F0600160294ED0937803F0100303F09E
:10432000FF01B3B114F0010437D195F85C3095F872
:104330005D1099424BD9591C2B4485F85C1093F8B9
:104340003B3013712B69D0229A702B690222DA70EC
:10435000D5E785F86010937943F0200393712B69BA
:1043600095F839101A791F29D2B2C6D819480078A1
:104370000028C2D06818013185F839100276BCE7F0
:104380002A6985F83930C02393702B69114A19794D
:10439000012111700222DA70B1E7C02393702B69FA
:1043A0001A790222DA70AAE70122002385F85D203B
:1043B00085F83B3096E703F0DF039371AB6E23B1D2
:1043C00085F8380095F8390098472A69A4E71471F0
:1043D000B8E700BF953AFF1FF0B503691222DA7003
:1043E000026993780546980687B051D5B423464CA8
:1043F000937023680293029E2A6905E02368039361
:10440000039B9B1B042B5AD8D37803F0200303F0A3
:10441000FF00002BF2D095F85D30002B31D04FF02B
:10442000000E4FF0020C05EB0E0393F83B301371B6
:1044300023680493049F286907E09B060DD5236831
:104440000593059BDB1B052B40D8C378DBB203F03B
:10445000020202F0FF06002AEFD080F803C02E69A6
:10446000F378DBB2DF0632463FD49F063DD5DB074B
:1044700043D40EF1010E95F85D305FFA8EFE734560
:10448000D1D80020002934D1002385F85E301BE00C
:104490001D4C23680093009E05E023680193019B57
:1044A0009B1B0F2B19D8D37803F0200303F0FF00D8
:1044B000002BF2D1B02385F85F00937099E79070DC
:1044C0002B6980229A70042007B0F0BD86702B699A
:1044D000802204209A7007B0F0BD002393702B69EE
:1044E000802204209A7007B0F0BD8023B3700420AE
:1044F000C8E72E698023B370C6E7BEF1000F0CBF7A
:1045000002200320F6E700BFB43AFF1F0148FFF77F
:10451000CBBE00BFCC07FF1F0148FFF7C5BE00BFE1
:104520003808FF1F0148FFF7BFBE00BF6007FF1F2D
:1045300030B4054D4171002105608272C372017172
:10454000017330BC704700BF9CE7000038B5437969
:10455000094C0125AB4084F83B3084F85E5084F868
:104560005D50037B20461943FFF740FE2946204655
:10457000BDE83840FFF730BFCC07FF1F08230373A7
:104580000021FFF7E3BF00BF38B50C4641F004013E
:104590000546FFF7DBFF2823013BFDD104F0FB01BB
:1045A0002846FFF7D3FF4FF4FA63013BFDD138BD36
:1045B000F8B521F00F05154314460F460646294667
:1045C00044EA0714FFF7C2FFE4B229463046FFF77A
:1045D000DBFF21463046FFF7B9FF21463046BDE8F4
:1045E000F840FFF7D1BF00BF08B50122FFF7E0FF99
:1045F000012008BD08B500220121FFF7D9FF024BB9
:10460000013BFDD108BD00BF80380100F0B5104B63
:10461000144606460F460FCB85B0757A0DF1100E85
:104620000EE90F00A5423CBF05F1FF34E4B204AB34
:1046300003EB8404304654F8101C394461F07F01C8
:10464000C9B2002205B0BDE8F040FFF7B1BF00BF1E
:10465000ACE70000012A70B5044603D9817941F026
:104660000801817162720BB1012A5AD0322000F028
:10467000FBFE217B2D4D2046FFF768FF4FF47A703B
:1046800000F0F2FE20463021FFF760FF3021204687
:10469000FFF77AFF2B46013BFDD130212046FFF783
:1046A00055FF20463021FFF76FFF013DFDD130213E
:1046B0002046FFF74BFF20463021FFF765FF41F210
:1046C0007073013BFDD120212046FFF73FFF2046BC
:1046D0002021FFF759FFA179154D204641F0200117
:1046E0000022FFF765FF0423E371204600220C211E
:1046F000FFF75EFF204600220121FFF759FF2B46FE
:10470000013BFDD102262046267200220621FFF73A
:104710004FFF204631460022FFF74AFF013DFDD101
:1047200070BDA37943F00403A3719FE720BF02008B
:104730008038010010B504460548FFF76BFD0023E3
:10474000A371E27AA17A2046BDE81040FFF782BF4C
:10475000CC07FF1FFFF7EEBF10B40024054A04701A
:1047600083B012680192019A8160426003B05DF8E3
:10477000044B7047B43AFF1F10B4114944680B68EA
:10478000826883B00093009B1B1B934212D342B1FB
:10479000037833B922444260012003B05DF8044B32
:1047A00070470B680193019B4360012003B05DF8E3
:1047B000044B7047002003B05DF8044B704700BF06
:1047C000B43AFF1F034B82B01B680193019B436007
:1047D00002B07047B43AFF1F704700BF044A136825
:1047E000190644BF03F07F031360024B1B68184790
:1047F00000900340A408FF1F0022C0F82021C0F849
:104800002421C0F82821704700230171026080F83C
:104810001431A0F8163170472DE9F04FC3B002AD46
:1048200002792A70172907460E4669703FD801227F
:10483000AD4B8A401340002B00F0EF800189C38804
:10484000EB700C121B124FF008080620AB70697158
:104850002C71C24603460721A44C144074B1B7F82A
:104860008A300AF102041A122A540AF1010240465F
:104870005FFA84F86B545346D1B2C246721F122AB3
:1048800000F21982DFE812F07A016C0117021702B8
:104890001702170217021702170217023801EE005B
:1048A00017021702170217021702D000EE004FF08E
:1048B00004094FF002084C46C2464FF0030CAE46C6
:1048C00000204FF6FF735340082213F0010F4FEA08
:1048D00053011ABF81F4204383F00103C3F34F0354
:1048E000013AF2D10130C2B2924502D91EF8012F2D
:1048F000E9E7DAB2C3F30723002105F8082005F839
:104900000C3005F80910386803685B699847013076
:10491000F9D1D7F8243103B1984764B1013C55FA75
:1049200084F80DF10704386814F8011F03681B6848
:1049300098474445F7D138680368DB689847D7F84B
:10494000283103B19847DFF8AC91D9F800300093D3
:10495000DDF800A04FF00008082416E0D7F8203159
:1049600003B19847B8F1050F25D0D9F8003001936D
:10497000019BCAEB0303B3F5FA6F8CBFE220002062
:10498000002C00F0FE8000283BD1386803681B69CA
:1049900098470028E2D0386803685A6908F1010393
:1049A0005FFA83FB904705F80800D846013CB8F150
:1049B000050FE4B2D9D12A783B79934240F0508177
:1049C0006B7803F07F01B14240F04881190600F195
:1049D0004981172BC9D8464A012101FA03F31A402D
:1049E0003AB9414A1A40B2B913F4800F18BF0524EE
:1049F000BBE70324B9E7295DDAB2914200F04B81AD
:104A0000E320002387F81431A7F8163187F81C310A
:104A100043B0BDE8F08FAC78A7E74FF00408022060
:104A2000C2460346032117E7B7F88E40B7F890E077
:104A3000DA1C4FEA242CD2B205F800C003F1040AB4
:104A40006C549C1D4FEA2E2105F808105FFA8AFA73
:104A5000E4B2053305F802E05FFA83FCD046A146D4
:104A60002A782CE7B7F88C205C1D4FEA222E05F837
:104A700000E003F1030A5FFA82FEE4B2520004335D
:104A800005F801E05FFA8AFA05F80820A1465FFA06
:104A900083FCBEF1000F00F00C810AEB4E085FFAB8
:104AA00088F807F18C00534630F8021F5A1C4FEA71
:104AB000212C9C1C05F803C0D2B2E3B24345A95493
:104AC000F2D10AEB4E0A5FFA8AFA0AF10204E4B262
:104AD0000AF1010CA1465FFA8CFCD046BAF1000F36
:104AE000BED1FF231A4607E71E0080006080C10088
:104AF00060800100B43AFF1FB7F88C2014122C54C8
:104B00006A5451071CBFD210013203F1030A03F1AA
:104B1000040C14BFD2B2C2F3C7025FFA8AFA5FFA7A
:104B20008CFC05F80820002A00F0BE800020044616
:104B300020F001033B440AEB040EE4074CBFB3F83A
:104B40008E30B3F88E3000F101005FFA8EFEC4B2F1
:104B500048BF1B12944205F80E30E9D39244B2E7E5
:104B6000B7F88E300AF102041A12E4B20AF1010C0D
:104B70002A54A1466B545FFA8CFC71E7B7F88C306D
:104B8000F0E700287FF43DAFB8F1040F4BD86B7805
:104B9000172B46D801264B4C06FA03F31C40CCB128
:104BA000AB7853FA06F83CD00026344606E0631C86
:104BB00087F81D41DCB24445264632DA3F2CF6D850
:104BC00005EB460307EB46061979D87803F08CFA13
:104BD0007081ECE713F0060F23D095F802805FEAAE
:104BE000680953D03F2C26460BD8A31C05EB430283
:104BF00015F8130012F8011C03F076FA07EB4404D1
:104C00006081741CE4B2A14587F81D61EADC18F0EC
:104C1000010F06D03F2C06F1020628D9F6B287F81C
:104C20001D610020EDE62A78A8F102044FF6FF731B
:104C3000002053400822DE074FEA530146BF81F4AB
:104C4000204383F00103C3F34F03013AF3D1013052
:104C5000C0B2A042BFF6CFAE2A5CEAE7E120D0E6C0
:104C6000E020CEE6A87803240028DFD0C9E602239E
:104C70000322F6B213FB0423A146E95C002003F0F3
:104C800033FA07EB4909A9F80A00C8E718F0010F41
:104C9000C7D00323F1E7A844C3F3072318F8012C76
:104CA0009A427FF4ADAE72E70533DCB2A146D0463E
:104CB000D6E6D046D4E6C14654468C4680469A464F
:104CC000CEE600BF1800800010B40024A0F88A10BF
:104CD000A0F88C40A0F88E2006215DF8044BFFF769
:104CE0009BBD00BF2DE9F0413949867901FB06F1F2
:104CF00006B306F2B27C40F2B373DFF8D8E0642763
:104D00004FF4C8780DE013F0030F09D1C2EBE512A0
:104D100008FB123204B91AB901F5A83101F5C071C6
:104D200001338EFB0325DA17C2EB65149C4507FBA4
:104D30001434E8D14779012F2FDD264C264ADFF8BD
:104D40009CE006F2B27384FB0346DC17C4EB661CDE
:104D50006425C4EBE6164FF4C87405FB1C3C04FB49
:104D6000163603F00305012307E014780133BB4234
:104D70000EFB041102F101020FD0022BF5D1002D20
:104D8000F3D1BCF1000F1BD001F5181101F56E51E4
:104D90000133BB4202F10102EFD1437885780478F8
:104DA00002790E48C3EB03134FF461669B0006FBC8
:104DB00005332344013A00FB02300844BDE8F0818A
:104DC000002ED2D101F5181101F56E51E0E700BFB8
:104DD0008033E1011F85EB51BCE7000080510100E9
:104DE00070B40A4B0A4A1B6812680A4E0A4D0B49F6
:104DF000306083B010440193019C094B286002226B
:104E00000C601A7003B070BC704700BFB43AFF1F4B
:104E1000A808FF1F9C3AFF1FA83AFF1FA43AFF1FD4
:104E2000A03AFF1F844641EA000313F003036DD14B
:104E3000403A41D351F8043B40F8043B51F8043B5D
:104E400040F8043B51F8043B40F8043B51F8043B64
:104E500040F8043B51F8043B40F8043B51F8043B54
:104E600040F8043B51F8043B40F8043B51F8043B44
:104E700040F8043B51F8043B40F8043B51F8043B34
:104E800040F8043B51F8043B40F8043B51F8043B24
:104E900040F8043B51F8043B40F8043B51F8043B14
:104EA00040F8043B51F8043B40F8043B51F8043B04
:104EB00040F8043B403ABDD2303211D351F8043BA4
:104EC00040F8043B51F8043B40F8043B51F8043BE4
:104ED00040F8043B51F8043B40F8043B103AEDD253
:104EE0000C3205D351F8043B40F8043B043AF9D2A4
:104EF000043208D0D2071CBF11F8013B00F8013B77
:104F000001D30B8803806046704700BF082A13D383
:104F10008B078DD010F003038AD0C3F10403D21A9B
:104F2000DB071CBF11F8013B00F8013B80D331F8CF
:104F3000023B20F8023B7BE7043AD9D3013A11F84F
:104F4000013B00F8013BF9D20B7803704B784370BA
:104F50008B78837060467047374A384913681B0660
:104F6000FCD40B6813F08003F8D172B634490A7888
:104F7000002A5FD0334A3448F0B4344C17680668CE
:104F80002568D4680C303E44143200681268304FF3
:104F900035442C4420440244C2F34E022D4E2E4888
:104FA0002E4D2F4C42F400423A60376806682D6857
:104FB0002C4A24680C303E44006812682A4F35445D
:104FC0002C4420440244C2F34E02284E2848294D66
:104FD000294C42F400423A60376806682D68274A37
:104FE00024680C303E4400681268254F35442C4438
:104FF00020440244C2F34E02224E2348234D244C47
:1050000042F400423A60376806682D68214A2468F5
:105010000C303E440068126835442C44204402445D
:10502000C2F34E021C4842F4004202600B7062B6AA
:10503000F0BC704762B6704724B0034024B00B4008
:10504000AD3AFF1F38B003403CB0034040B00340CE
:105050002CB0034058B003405CB0034060B0034044
:1050600064B003406CB0034030B0034038B00B4034
:105070003CB00B4040B00B4044B00B404CB00B4038
:105080002CB00B4058B00B405CB00B4060B00B40F4
:1050900064B00B406CB00B4030B00B4030B42948CA
:1050A000294A2A4B2A4D6024E121047011701B7893
:1050B000284C082B30D00A2B2748284937D00C2BF6
:1050C0000CBF35225D2212232A60236002600B6030
:1050D000234B24491B78244ABBB101230B60136086
:1050E000224B23491B78234A012B26D9042B0FD9A5
:1050F000082B1ED9102B94BF862387230B601360C7
:105100001D4B01221A7030BC70470B601360E7E73B
:1051100084230B601360F3E700F58E200F490830FD
:10512000212213232A60236002600B60D0E739221A
:10513000F7E785230B601360E2E780230B601360C1
:10514000DEE700BF0040074001400740AC08FF1FFA
:1051500008B003400CB0034008B00B400CB00B404B
:10516000B03AFF1F20B0034020B00B40AD08FF1F36
:1051700024B0034024B00B40AD3AFF1F47282FD87E
:10518000334B2DE9F0411E5CFF2E2BD0314B1B78A9
:10519000002B2AD132062CD472B62F4D2F4C2F461D
:1051A000012326602B7062B672B623681B060CD4EE
:1051B0003B781BB9F4E72B78002BF1D062B603F0F3
:1051C000D5F872B623681806F5D5254B1B68002262
:1051D0002A7062B6234A107843FA00F0BDE8F081E5
:1051E000002070470020BDE8F081FFF7B5FE3206D1
:1051F000D2D572B61C4DDFF87C801C4C06F04007FF
:10520000FFB206F03F06D8F80030DFB123F01003FC
:10521000C8F8003001232660134A2B7062B672B6BC
:10522000236819060CD413781BB9ECE72B78002BF4
:10523000E9D062B603F09AF872B623681B06F5D57A
:105240000B4BC3E743F01003C8F80030E2E700BFA0
:10525000C8E70000AD3AFF1FAF3AFF1F00B00340A0
:1052600010B00340AC3AFF1FAE3AFF1F00B00B4036
:1052700010B00B400CB00B4008B5104C08E0236890
:1052800059050DD423681A050FD42368DB0411D403
:1052900023685803F3D501F0CBFC23685905F1D5F9
:1052A00000F034FD23681A05EFD501F0DDF823681E
:1052B000DB04EDD501F098FBEAE700BF3480044041
:1052C00008B5FFF7D9FF00BF014B10221A807047C5
:1052D00000200540704700BF094908B50B6830B190
:1052E0006A461844A2F50052904202D2086018465D
:1052F00008BD04F05DF90C2303604FF0FF3008BDDA
:10530000B008FF1FEFF3138070B9EFF310836BB990
:10531000EFF305825AB94FF48070EFF311832BB18C
:10532000984228BF184670474FF0FF3070470F2A49
:1053300001D81846F1E7014BD05CEEE7F0E300E05E
:1053400010B4114B53F8302092F8804234B101234D
:1053500079B182F880305DF8044B704703EBC003ED
:105360005B681A6851B922F002021A605DF8044BBA
:10537000704782F800315DF8044B704742F0030239
:105380001A605DF8044B704710E800001C4A02EBFD
:10539000C00301295B6811D004291BD052F83000EA
:1053A000002280F8802229B1022920D0032922D0AE
:1053B0001A6070474FF480721A60704752F83000DC
:1053C0004FF4A27280F880121A601A6822F020024C
:1053D0001A60704752F830104FF4A272012081F821
:1053E00080021A601A6842F020021A60704740F288
:1053F00003121A6070474FF481721A60704700BF41
:1054000010E80000014B1868704700BF00D003404F
:1054100030B4054B054D064C002210211A602A605D
:105420002060196030BC704714D0034004D00340A2
:1054300000D003403F2801D8FFF782BF704700BF6C
:105440003F2806D8044B53F8303093F80002C0B21E
:1054500070470020704700BF10E800003F2801D8C7
:10546000FFF794BF704700BF2DE9F843054672B6B9
:10547000204F214B214A1B683C68126862B65201DA
:1054800002D5322B88BF013495B3C3F5EA331C4EE5
:10549000DFF86490DFF86480BF334FF47A72A6FBC4
:1054A000031302FB04F404EB931472B6D9F8001052
:1054B0003A68D8F800E062B6C1F5EA33BF33A6FB1C
:1054C00003031EF0806FC4EB93134FF47A7002D085
:1054D000322988BF013200FB0233B3F57A7F04D34F
:1054E000013D05D004F57A74DFE702F03FFFDCE709
:1054F000BDE8F883B43AFF1F18E000E004ED00E0D7
:1055000089888888F8B53E4B3E49DFF818C13E4E81
:105510003E4ADFF814E13E4D3E4C3F4F4FF00060F5
:1055200018604FF0805018604FF0005018604FF036
:10553000804018604FF00040186000200860282369
:105540004EF6FF71CCF80010CEF8003033600EF547
:10555000012E13602B60236005F500253B6004F5E8
:105560000024B36207F50027936206F5012602F5D1
:1055700001220EF1100E05F6E87504F6E87407F541
:105580007F67103220362B602360CEF800303B60FE
:1055900013603360214EBB61936109223260A7F52D
:1055A000002706F58056203F083638603160BB6022
:1055B000F36047F8042C06F5FD2607F5FE2706F2F2
:1055C000FC76043730603960B360FB6046F8042C29
:1055D0000836C7F8FC0F06F6FC76114831602B60E0
:1055E00023600260FFF75AFD3220FFF73DFF01F014
:1055F0004BFF4FF4AF70BDE8F840FFF735BF00BF79
:1056000004E100E004800340148003401C80034058
:10561000248003402C8003403480034000800340FA
:1056200000900B40088003400C8003402DE9F84FA8
:10563000214B1B6807460BB101221A70DFF88890D6
:105640001E4D99F80040DFF884801D4E01343F2C38
:105650008ABF4FF0000A5FFA84FA5446AB462B78B3
:10566000A34216D1FFF74EFE40281FDC33791B06FC
:10567000F5D59BF8003001333F2B86BF002213463F
:10568000DAB218F80330DBB2F3712A702B78A34238
:10569000E8D00C490A4BFFB208F804700120BC2284
:1056A000087089F800A0DA70BDE8F88FFF28D6DD11
:1056B00002F05CFED3E700BF483BFF1F453BFF1FE6
:1056C00000A00640443BFF1F4C3BFF1FC03AFF1F9A
:1056D0002E4A2F491368F0B543F4806313600A78AB
:1056E0002C4F2D4E2D4D2E4C2E490023152A3B704C
:1056F00033702B7023700B7043D01B2A3CD04AB3FD
:10570000294B1B78052B2DD01A2B30D0012B1CD008
:10571000264B274C2749C0F34436C0F347151E706B
:1057200000F01F005D7004224FF0020E88273C2617
:10573000402598729A704FF0004083F813E05A7534
:105740001F74DE7025700860F0BD1B4B4FF4517262
:105750001A60DDE7194B40F213321A60124B1B78C6
:10576000052BD1D1164B4FF451721A60D0E7154B6F
:105770004FF451721A60CBE7134B40F213321A60A8
:10578000BEE7124B40F213321A60B9E7348004408E
:10579000003BFF1FBC3AFF1FBD3AFF1F4C3BFF1FE2
:1057A000453BFF1F443BFF1FB408FF1F00A00640FE
:1057B0001FE400E000E100E044A0044040A00440F9
:1057C0001CC00440389004403C90044018C0044081
:1057D000194B19499B7803F0EC0200F003031343C3
:1057E000420700F00F0248BF43F01003042A8B70F9
:1057F0001CD0114B104A5B79C10603F0EF0348BF80
:1058000043F0100353719379820603F0EF030A4AC1
:1058100048BF43F010039371C30506D55378117840
:10582000DBB241F020011170537070478B7943F067
:1058300040038B71DDE700BF00A00640284B1B68CA
:105840005B0533D510B5274C237823B102F08EFDCC
:105850002378002BFAD12448244A254B4FF00044EA
:1058600000210460D1701B78152B20D01B2B32D067
:105870001BB9204B40F203121A601F4B1B7803F038
:105880007F03052B1DD01A2B20D0012B03D11B4BDE
:1058900040F203121A601A4B1A481B491A68002377
:1058A00003700B700AB10123137010BD7047174BC2
:1058B00040F203121A60104B1B7803F07F03052B94
:1058C000E1D1134B40F203121A60E4E7114B40F2AE
:1058D00003121A60DFE7104B40F203121A60CCE7A4
:1058E00034800440443BFF1F80E100E000A00640FC
:1058F000003BFF1F40A00440B408FF1F44A0044029
:10590000B83AFF1FBC3AFF1FBD3AFF1F18C0044042
:105910001CC00440389004403C9004400A4A38B50A
:105920000546137803F0FF04002BFAD10121284625
:10593000FFF794FD21462846FFF77CFD034A044B00
:1059400052F835201A6038BD443BFF1F10E80000B4
:10595000483BFF1F09B140F080001E4A137898426F
:105960001BD010B41C4C2468640513D503F07F03CE
:10597000052B2AD01A2B24D0012B14D0002900F09B
:105980007F0114BF60234423052915D01A290ED0A6
:10599000012903D010705DF8044B70470F4943F4A0
:1059A00040730B60F6E70D4B00241C60E6E70C49E2
:1059B00043F440730B60EDE70A4943F440730B6016
:1059C000E8E7074B00241C60D8E7064B00241C6066
:1059D000D4E700BFB408FF1F3480044044A0044053
:1059E000389004401CC00440174A137883420ED0FC
:1059F00016490968490509D5152B20D01B2B1AD04B
:105A00005BB115280DD01B2810D008B1107070475D
:105A10000F4B40F213311960F8E70D4915280B6060
:105A2000F1D10C4B40F213311960EFE70A4B40F211
:105A300013311960EAE7084B00211960E1E7054BD3
:105A400000211960DDE700BF003BFF1F34800440E8
:105A500040A0044018C004403C9004400D4B1B681B
:105A600013F4806305D03F2805D90B4B0020186044
:105A7000704718467047094B10B5074C53F8303043
:105A800023600121FFF7EAFC236800221A7001203D
:105A900010BD00BF34800440B83AFF1F10E800007A
:105AA0000F4B1B6813F4806308D0122808D0142809
:105AB00011D00C4A537B03F0FE0353730020704750
:105AC000094B40F202321A60064A537B43F001034D
:105AD000537301207047054B40F202321A60F3E71E
